:100000000C943B0E0C94660E0C94660E0C94660ECB
:100010000C94660E0C94660E0C94660E0C94660E90
:100020000C94660E0C94660E0C94660E0C94660E80
:100030000C94660E0C9408990C94660E0C94660E43
:100040000C94660E0C94B7A10C94DFF00C94660E21
:100050000C94182C0C94660E0C94660E0C94660E80
:100060000C94660E0C94660E0C9428ED0C94660E9F
:100070000C94660E0C94660E0C94660E0C94660E30
:100080000C942A970C94660E0C94660E084AD73B83
:100090003BCE016E84BCBFFDC12F3D6C74319ABD57
:1000A00056833DDA3D00C77F11BED9E4BB4C3E917B
:1000B0006BAAAABE000000803F05A84CCDB2D44E6A
:1000C000B93836A9020C50B9918688083CA6AAAA6C
:1000D0002ABE000000803F4D383420582059205A55
:1000E0002045006563686F3A0043616E6E6F74204F
:1000F000656E746572207375626469723A20004D92
:100100003234004D3233202573006175746F2569D8
:100110002E67004572726F723A006572726F7220BC
:1001200077726974696E6720746F2066696C650008
:100130004E6F74205344207072696E74696E67004C
:100140002F005344207072696E74696E6720627963
:10015000746520002E0044656C6574696F6E2066BE
:1001600061696C65642C2046696C653A20004669BB
:100170006C652064656C657465643A002E006F7070
:10018000656E206661696C65642C2046696C653A11
:10019000200057726974696E6720746F2066696CFD
:1001A000653A20002E006F70656E206661696C658F
:1001B000642C2046696C653A20002E006F70656ED5
:1001C000206661696C65642C2046696C653A200084
:1001D00046696C652073656C6563746564002053C3
:1001E000697A653A200046696C65206F70656E65B6
:1001F000643A20002E006F70656E206661696C6540
:10020000642C2046696C653A20004E6F7720667238
:100210006573682066696C653A20004E6F772064CC
:100220006F696E672066696C653A20002220706FE6
:1002300073002220706172656E743A220053554239
:10024000524F5554494E452043414C4C20746172E5
:100250006765743A2200747279696E6720746F2042
:1002600063616C6C207375622D67636F64652066D3
:10027000696C6573207769746820746F6F206D6195
:100280006E79206C6576656C732E204D4158206C1C
:100290006576656C2069733A00534420636172642B
:1002A000206F6B006F70656E526F6F7420666169AE
:1002B0006C656400766F6C756D652E696E6974206F
:1002C0006661696C656400534420696E69742066D8
:1002D00061696C006563686F3A0048617264636FBE
:1002E0006465642044656661756C7420536574743C
:1002F000696E6773204C6F616465640053746F723C
:1003000065642073657474696E67732072657472B6
:100310006965766564002044002049002020204D56
:100320003330312050005049442073657474696E35
:1003300067733A00205A0020590020204D32303691
:10034000205800486F6D65206F66667365742028BD
:100350006D6D293A00204500205A002058002042A7
:100360000020540020204D32303520530041647667
:10037000616E636564207661726961626C65733A6F
:1003800020533D4D696E2066656564726174652019
:10039000286D6D2F73292C20543D4D696E20747289
:1003A0006176656C20666565647261746520286D90
:1003B0006D2F73292C20423D6D696E696D756D201E
:1003C0007365676D656E742074696D6520286D7343
:1003D000292C20583D6D6178696D756D2058592024
:1003E0006A65726B20286D6D2F73292C20205A3D71
:1003F0006D6178696D756D205A206A65726B202871
:100400006D6D2F73292C2020453D6D6178696D75C8
:100410006D2045206A65726B20286D6D2F73290051
:1004200020540020204D3230342053004163636556
:100430006C65726174696F6E3A20533D61636365E8
:100440006C65726174696F6E2C20543D72657472B4
:1004500061637420616363656C65726174696F6E5A
:1004600000204500205A0020590020204D32303114
:100470002058004D6178696D756D20416363656C2E
:1004800065726174696F6E20286D6D2F7332293A21
:1004900000204500205A0020590020204D323033E2
:1004A0002058004D6178696D756D206665656472D0
:1004B0006174657320286D6D2F73293A0020450003
:1004C000205A0020590020204D3932205800537402
:1004D0006570732070657220756E69743A0053659B
:1004E0007474696E67732053746F7265640065631A
:1004F000686F3A004572726F723A0053544F505011
:1005000045442E20005072696E7465722073746FBA
:10051000707065642064756520746F206572726FF9
:1005200072732E2046697820746865206572726F38
:100530007220616E6420757365204D3939392074DD
:100540006F20726573746172742E202854656D700B
:100550006572617475726520697320726573657464
:100560002E20536574206974206166746572207250
:10057000657374617274696E6729004B494C4C4510
:10058000442E20005072696E7465722068616C742C
:1005900065642E206B696C6C28292063616C6C6526
:1005A0006421006F6B00526573656E643A2000220F
:1005B00000556E6B6E6F776E20636F6D6D616E644C
:1005C0003A2022005A204F6666736574203A200054
:1005D0007A5F6D61783A20007A5F6D696E3A20002B
:1005E0005A204F6666736574005A204F66667365BD
:1005F00074206F6B007A5F6D696E3A2000795F6DD1
:10060000696E3A2000785F6D696E3A2000205A3A90
:100610000020593A0020436F756E7420583A20002C
:1006200020453A00205A3A0020593A00583A0046EC
:1006300049524D574152455F4E414D453A4D6172C9
:100640006C696E2056313B20537072696E7465720E
:100650002F6772626C206D617368757020666F72AF
:100660002067656E36204649524D574152455F55C9
:10067000524C3A68747470733A2F2F6769746875B6
:10068000622E636F6D2F4572696B5A616C6D2F4DD1
:1006900061726C696E2F2050524F544F434F4C5F24
:1006A00056455253494F4E3A312E30204D41434822
:1006B000494E455F545950453A5038303251415FA8
:1006C000382045585452554445525F434F554E5477
:1006D0003A3120555549443A30303030303030309E
:1006E0002D303030302D303030302D303030302D16
:1006F0003030303030303030303030300A00503828
:10070000303251415F38204F66662E0042656420CA
:10071000646F6E652E0020423A0020453A00543A3C
:10072000004265642048656174696E672E00486503
:100730006174696E6720646F6E652E0020573A0001
:1007400020453A00543A0048656174696E672E2E60
:100750002E002042403A0020403A00202F003A006C
:10076000205400202F0020423A00202F006F6B20E1
:10077000543A002569206D696E2C20256920736527
:100780006300456E642066696C65206C6973740053
:10079000426567696E2066696C65206C69737400D8
:1007A0004E6F206D6F76652E00526573756D696EA4
:1007B00067207072696E74005761697420666F7289
:1007C00020757365722E2E2E000A00205A3A2000E2
:1007D00020593A200020583A2000426564002064E5
:1007E0003A200020623A200045716E20636F6566F2
:1007F00066696369656E74733A20613A2000486FD8
:100800006D6520582F59206265666F7265205A0009
:10081000486F6D6520582F59206265666F7265209C
:100820005A005A2070726F6265206F75742E2062B4
:100830006564005A2070726F6265206F75742E2097
:1008400062656400486F6D6520582F5920626566A7
:100850006F7265205A00486F6D6520582F592062CD
:1008600065666F7265205A00536C6565702E2E2E7A
:1008700000FFFFFF0000614300006143000066438A
:100880000000A0400000A040000000400000A0C008
:100890000000A0C0000000000000A0C00000A0C038
:1008A0000000000000005C4300005C430000664361
:1008B0000A00207A3A200020793A200020783A2055
:1008C0000042656400256920686F75727320256990
:1008D000206D696E7574657300446F6E652070726B
:1008E000696E74696E672066696C650053544F5079
:1008F0005045442E20005072696E746572207374E6
:100900006F707065642064756520746F2065727205
:100910006F72732E20466978207468652065727244
:100920006F7220616E6420757365204D39393920EE
:10093000746F20726573746172742E202854656D13
:100940007065726174757265206973207265736574
:10095000742E20536574206974206166746572205A
:1009600072657374617274696E6729006F6B004EF3
:100970006F204C696E65204E756D626572207769D7
:10098000746820636865636B73756D2C204C6173AC
:1009900074204C696E653A20004E6F204368656391
:1009A0006B73756D2077697468206C696E65206E55
:1009B000756D6265722C204C617374204C696E6594
:1009C0003A2000636865636B73756D206D69736DA4
:1009D000617463682C204C617374204C696E653AB5
:1009E00020004C696E65204E756D626572206973DA
:1009F000206E6F74204C617374204C696E65204EBC
:100A0000756D6265722B312C204C617374204C69BA
:100A10006E653A20004D31313000446F6E652073B1
:100A20006176696E672066696C652E006F6B004D9C
:100A30003239002020506C616E6E657242756666B8
:100A4000657242797465733A2000204672656520AC
:100A50004D656D6F72793A20004A616E2020382012
:100A60003230313600436F6D70696C65643A200036
:100A70002848616C6C792C20503830325120636FDB
:100A80006E6669672900207C20417574686F723A30
:100A900020004A616E202038203230313620313734
:100AA0003A33303A313300204C617374205570640E
:100AB000617465643A2000312E302E30004D617231
:100AC0006C696E0020536F667477617265205265A1
:100AD00073657400205761746368646F67205265A2
:100AE000736574002042726F776E206F75742052A8
:100AF00065736574002045787465726E616C205270
:100B00006573657400506F7765725570007374611A
:100B10007274002200656E717565696E672022002F
:100B20002200656E717565696E67202200656368D5
:100B30006F3A0020746F6F206C6F6E672065787459
:100B4000727573696F6E2070726576656E74656418
:100B50000020636F6C6420657874727573696F6EC2
:100B60002070726576656E746564007C3C3E5E2B19
:100B70003D3F2F5B5D3B2C2A225C0045303A200034
:100B80005A3A2000593A2000583A20004D53312C4F
:100B90004D53322050696E730A0024F404D9201B8F
:100BA000C40C5C0E9804C4095F0265077101F4056A
:100BB000F900FB04B30048048700C103690058032F
:100BC000550003034500BE023A008402310053027F
:100BD0002A002902250004022000E4011C00C801AB
:100BE0001900AF011700980114008401130071016E
:100BF00010006101100051010E0043010D0036018B
:100C00000B002B010B0020010B00150109000C014A
:100C1000090003010800FB000800F3000800EB00D6
:100C20000700E4000600DE000600D8000600D2003F
:100C30000600CC000500C7000500C2000500BD008D
:100C40000400B9000400B5000400B1000400AD00C8
:100C50000400A9000400A5000300A20003009F00F7
:100C600004009B000300980003009500020093001D
:100C70000300900003008D0002008B000300880039
:100C800002008600020084000300810002007F0051
:100C900002007D0002007B00020079000200770064
:100CA0000100760002007400020072000100710071
:100CB00002006F0002006D0001006C0002006A007B
:100CC0000100690002006700010066000100650084
:100CD0000100640002006200010061000100600088
:100CE00001005F0002005D0001005C0001005B008C
:100CF00001005A000100590001005800010057008E
:100D0000010056000100550001005400010053008D
:100D1000000053000100520001005100010050008A
:100D200001004F0001004E0000004E0001004D0088
:100D300001004C0001004B0000004B0001004A0084
:100D40000100490001004800000048000100470080
:100D5000010046000000460001004500000045007B
:100D60000100440001004300000043000100420074
:100D7000000042000100410000004100010040006D
:100D800001003F0000003F0001003E0000003E0067
:100D900001003D0000003D0001003C0000003C005F
:100DA00000003C0001003B0000003B0001003A0055
:100DB00000003A000100390000003900010038004D
:100DC0000000380000003800010037000000370044
:100DD000010036000000360000003600010035003A
:100DE0000000350000003500010034000000340030
:100DF0000000340001003300000033000000330025
:100E00000100320000003200000032000100310019
:100E1000000031000000310001003000000030000F
:100E20000000300001002F0000002F0000002F0004
:100E300000002F0001002E0000002E0000002E00F8
:100E400001002D0000002D0000002D0000002D00ED
:100E500001002C0000002C0000002C0000002C00E1
:100E600001002B0000002B0000002B0000002B00D5
:100E700001002A0000002A0000002A0000002A00C9
:100E800001002900000029000000290000002900BD
:100E900000002900010028000000280000002800B0
:100EA00000002800000028000100270000002700A3
:100EB0000000270000002700000027000100260096
:100EC000000026000000260000002600000026008A
:100ED000010025000000250000002500000025007D
:100EE000000025000000250001002400000024006F
:100EF0000000240000002400000024000100230062
:100F00000000230000002300000023000000230055
:100F10000000230000002300010022000000220046
:100F20000000220000002200000022000000220039
:100F3000010021000000210000002100000021002C
:100F4000000021000000210000002100010020001D
:100F50000000200000002000000020000000200011
:100F600000002000000020000000200001001F0001
:100F700000001F0000001F0000001F0000001F00F5
:100F800000001F0000001F0001001E0000001E00E6
:100F900000001E0000001E00000024F4D43050C3E6
:100FA0008E20C2A24017828B7011127A910D816C33
:100FB000D90AA861E108C7586607615143061E4B6C
:100FC0005D05C145A7041A411104093D9803713913
:100FD00031034036DB0265339102D4305402802E57
:100FE0001D02632CEE01752AC501B028A00110274F
:100FF00081018F2564012B244B01E0223401AC21B7
:101000001F018D200D01801FFC00841EED00971D27
:10101000DF00B81CD200E61BC600201BBC00641A0F
:10102000B200B219A8000A19A0006A189900D117D5
:10103000910040178B00B516840031167E00B31561
:1010400079003A157300C7146F0058146A00EE1344
:1010500066008813630025135E00C7125B006C12E4
:10106000570015125400C111510070114F00211189
:101070004B00D61049008D10470046104400021066
:101080004200C00F4000800F3E00420F3C00060FA0
:101090003B00CB0E3800930E37005C0E3500270E58
:1010A0003400F30D3200C10D3100900D3000600DA1
:1010B0002E00320D2D00050D2C00D90C2B00AE0C8E
:1010C0002900850C29005C0C2700350C27000E0C2C
:1010D0002600E80B2400C40B2400A00B23007D0B8A
:1010E00023005A0B2100390B2100180B2000F80AAD
:1010F0001F00D90A1E00BB0A1E009D0A1D00800A9F
:101100001D00630A1C00470A1B002C0A1B00110A61
:101110001A00F7091A00DD091900C4091900AB0902
:101120001900920917007B091800630917004C0980
:10113000160036091600200916000A091500F508E0
:101140001500E0081400CC081400B8081400A40826
:101150001400900813007D0812006B081300580853
:10116000120046081200340811002308110012086A
:10117000110001081100F0071000E0071000D0076F
:101180001000C0071000B0070F00A1071000910762
:101190000E0083070F0074070F0065070E00570746
:1011A0000E0049070E003B070D002E070E0020071A
:1011B0000D0013070D0006070D00F9060C00ED06E3
:1011C0000D00E0060C00D4060C00C8060C00BC069E
:1011D0000C00B0060C00A4060B0099060C008D064E
:1011E0000B0082060B0077060B006C060B006106F5
:1011F0000A0057060B004C060A0042060A00380691
:101200000A002E060A0024060A001A060A00100622
:10121000090007060A00FD050900F4050900EB05B1
:101220000900E2050900D9050900D0050900C70534
:101230000900BE050900B5050800AD050800A505B3
:1012400009009C050800940508008C050800840529
:1012500008007C050800740508006C05070065059A
:1012600008005D050700560508004E050700470504
:1012700007004005080038050700310507002A056A
:101280000700230507001C050600160507000F05CB
:1012900007000805060002050700FB040600F50428
:1012A0000700EE040600E8040600E2040700DB0481
:1012B0000600D5040600CF040600C9040600C304D6
:1012C0000600BD040600B7040600B1040500AC0426
:1012D0000600A6040600A00405009B040600950471
:1012E0000500900406008A040500850405008004BA
:1012F00006007A04050075040500700405006B04FF
:10130000050066040500610405005C04050057043F
:101310000500520405004D0405004804050043047F
:1013200005003E0404003A040500350405003004BD
:1013300004002C04050027040400230405001E04F7
:1013400004001A04040016040500110404000D042E
:101350000400090405000404040000040400FC0364
:101360000400F8030400F4030400F0030400EC0399
:101370000400E8030400E4030400E0030400DC03C9
:101380000400D8030400D4030400D0030400CC03F9
:101390000400C8030300C50303006563686F3A00D7
:1013A000656E6473746F7073206869743A205A00B4
:1013B000205A3A00656E6473746F707320686974A4
:1013C0003A20590020593A00656E6473746F707347
:1013D000206869743A20580020583A00656E64739A
:1013E000746F7073206869743A20004572726F726E
:1013F0003A004572723A204D415854454D502042B2
:1014000045440054656D706572617475726520683D
:1014100065617465642062656420737769746368CC
:101420006564206F66662E204D415854454D50200E
:101430007472696767657265642021210045727264
:101440003A204D494E54454D50003A20457874722B
:1014500075646572207377697463686564206F666C
:10146000662E204D494E54454D5020747269676771
:10147000657265642021004572723A204D415854CE
:10148000454D50003A20457874727564657220733A
:1014900077697463686564206F66662E204D4158D5
:1014A00054454D50207472696767657265642021E8
:1014B00000202D20496E76616C6964206578747215
:1014C00075646572206E756D626572202100100072
:1014D000C902E0002C010001220130011801700155
:1014E0000E01B0010401F001FA005002F000F00218
:1014F000E6009003DC004004D2004005C80040062E
:10150000BE000008B400B009AA00D00BA000600E15
:10151000960060118C000015820020197800C01D13
:101520006E00A0226400B0275A00902C50000031B9
:101530004600E0343C0010383200903A2800603C0D
:101540001E00A03D1400803E0A00203F00005049CC
:1015500044204175746F74756E652066696E697399
:10156000686564212050757420746865206C61730F
:1015700074204B702C204B6920616E64204B6420DA
:10158000636F6E7374616E74732066726F6D206129
:10159000626F766520696E746F20436F6E6669674F
:1015A00075726174696F6E2E6800504944204175F0
:1015B000746F74756E65206661696C656421207452
:1015C000696D656F75740020403A006F6B20543A66
:1015D000006F6B20423A00504944204175746F748B
:1015E000756E65206661696C6564212054656D7057
:1015F0006572617475726520746F6F2068696768C1
:1016000000204B643A2000204B693A2000204B70A8
:101610003A200020436C6173736963205049442071
:10162000002054753A2000204B753A2000206D614F
:10163000783A2000206D696E3A200020643A20003C
:1016400020626961733A20002D2D3A2D2D002D2D39
:101650002D005344002059000120000120004D328C
:101660003100496E69742E20534420636172640016
:101670004E6F2053442063617264004D3231004349
:1016800068616E6765205344206361726400507224
:10169000696E742066726F6D2053440053746F70CE
:1016A000207072696E7400526573756D652070727A
:1016B000696E74005061757365207072696E740094
:1016C000436F6E74726F6C0050726570617265006A
:1016D00054756E6500496E666F2073637265656E42
:1016E00000052E2E000452656672657368004D6118
:1016F000696E004D3234004D3233202573004D3871
:101700003420582059205A204500526573746F7256
:1017100065206661696C73616665004C6F61642069
:101720006D656D6F72790053746F7265206D656DB4
:101730006F7279004D6F74696F6E0054656D7065DE
:10174000726174757265004D61696E0045737465F0
:1017500070732F6D6D004573746570732F6D6D0020
:101760005A73746570732F6D6D005A73746570735E
:101770002F6D6D005973746570732F6D6D00597303
:10178000746570732F6D6D005873746570732F6D71
:101790006D005873746570732F6D6D00412D726507
:1017A000747261637400412D7265747261637400B8
:1017B000416D6178206500416D6178206500416D63
:1017C0006178207A00416D6178207A00416D6178FE
:1017D000207900416D6178207900416D6178207831
:1017E00000416D61782078005654726176206D69F1
:1017F0006E005654726176206D696E00566D696E8A
:1018000000566D696E00566D6178206500566D61F9
:1018100078206500566D6178207A00566D617820D9
:101820007A00566D6178207900566D6178207900D4
:10183000566D6178207800566D6178207800566585
:101840002D6A65726B0056652D6A65726B00567A5B
:101850002D6A65726B00567A2D6A65726B00567838
:10186000792D6A65726B005678792D6A65726B0006
:10187000416363656C00416363656C005A204F6689
:1018800066736574005A204F666673657400436F13
:101890006E74726F6C0050726568656174204142AD
:1018A0005320636F6E6600507265686561742050E6
:1018B0004C4120636F6E66005049442D43005049EF
:1018C000442D43005049442D44005049442D4400C8
:1018D0005049442D49005049442D49005049442D58
:1018E00050005049442D500020022046616374008E
:1018F00020022046616374002002204D61780020A0
:1019000002204D6178002002204D696E00200220E7
:101910004D696E004F6666004F6E20004F66660090
:101920004F6E20004175746F74656D700046616E76
:101930002073706565640046616E20737065656430
:101940000042656400426564004E6F7A7A6C6500FF
:101950004E6F7A7A6C6500436F6E74726F6C0053D1
:10196000746F7265206D656D6F72790042656400F9
:10197000426564004E6F7A7A6C65004E6F7A7A6CBD
:10198000650046616E2073706565640046616E2077
:1019900073706565640054656D706572617475720D
:1019A000650053746F7265206D656D6F72790042CA
:1019B000656400426564004E6F7A7A6C65004E6F14
:1019C0007A7A6C650046616E2073706565640046C6
:1019D000616E2073706565640054656D7065726139
:1019E00074757265004D6F76652061786973004388
:1019F0006F6F6C646F776E005072656865617420FC
:101A0000414253005072656865617420504C41003A
:101A10004731205A302E342046363030004265643B
:101A2000204C6576656C205465737400473239002C
:101A30004175746F204C6576656C696E670047323E
:101A400038004175746F20686F6D65004D38340043
:101A500044697361626C652073746570706572733C
:101A6000004D61696E004D6F766520302E316D6DD1
:101A7000004D6F766520316D6D004D6F76652031BC
:101A8000306D6D00507265706172650045787472DA
:101A900075646572004D6F7665205A004D6F7665EE
:101AA0002059004D6F76652058004D6F7665206196
:101AB000786973004578747275646572005A0059CC
:101AC000005800507265686561742041425320429D
:101AD000656400507265686561742041425320312D
:101AE000005072657061726500507265686561745E
:101AF00020504C41204265640050726568656174F5
:101B000020504C4120310050726570617265004672
:101B10006C6F77203000466C6F77203000466C6F1A
:101B20007700466C6F770046616E20737065656460
:101B30000046616E20737065656400426564004212
:101B40006564004E6F7A7A6C65004E6F7A7A6C65C8
:101B5000005370656564005370656564004D61698C
:101B60006E005A6F6E657374617220334420507238
:101B7000696E7465720042617365206F6E204D61FD
:101B8000726C696E56312E30005038303251415FE0
:101B900056312E30005038303251415F38000A0043
:101BA00020000A00207A3A200020793A200020788C
:101BB0003A200000002100240027002A0000002213
:101BC00000250028002B000000200023002600290B
:101BD00000020202020202020204040404040404D9
:101BE00004030303030303030301010101010101D2
:101BF0000101020408102040800102040810204066
:101C00008001020408102040808040201008040257
:101C100001000000010200000000000000040307B2
:101C200006000000000000000000000000000000AE
:101C300000494E46494E4954594E414ECDCCCC3DBB
:101C40000AD7233C17B7D13877CC2B329595E624A9
:101C50001FB14F0A000020410000C84200401C464E
:101C600020BCBE4CCA1B0E5AAEC59D74AC2C6B2F4B
:101C7000EEE195EC642F11241FBECFEFD0E4DEBF60
:101C8000CDBF14E0A0E0B1E0E4E1F2EF01E00BBF72
:101C900002C007900D92A831B107D9F71BBE12E11F
:101CA000A8E1B4E001C01D92A538B107E1F71CE13D
:101CB000C4E7DCE104C02297FE010E94AFF8CC36F5
:101CC000D107C9F70E943EF30C94FDF80C94000074
:101CD000CF93DF93BC018230910510F462E070E095
:101CE000A0918112B0918212ED01E0E0F0E040E0BD
:101CF00050E021C0888199818617970769F48A810D
:101D00009B81309719F09383828304C09093821251
:101D100080938112FE0134C06817790738F44115A9
:101D2000510519F08417950708F4AC01FE018A816A
:101D30009B819C01E9012097E9F641155105A9F124
:101D4000CA01861B970B049708F4BA01E0E0F0E0A3
:101D50002AC08D919C91119784179507F9F4641707
:101D6000750781F412968D919C911397309719F015
:101D70009383828304C09093821280938112FD0129
:101D800032964CC0CA01861B970BFD01E80FF91F64
:101D90006193719302978D939C9340C0FD01828162
:101DA00093819C01D9011097A1F680917F129091A7
:101DB0008012892B41F48091730290917402909368
:101DC000801280937F1240917502509176024115E6
:101DD000510541F44DB75EB7809171029091720246
:101DE000481B590B20917F1230918012CA01821B2F
:101DF000930B8617970780F0AB014E5F5F4F8417F8
:101E0000950750F0420F531F5093801240937F125A
:101E1000F9016193719302C0E0E0F0E0CF01DF913E
:101E2000CF910895CF93DF93009709F450C0EC0150
:101E300022971B821A82A0918112B0918212109770
:101E400009F140E050E0AC17BD0708F1BB83AA835D
:101E5000FE0121913191E20FF31FAE17BF0779F414
:101E60008D919C911197280F391F2E5F3F4F398319
:101E7000288312968D919C9113979B838A83411599
:101E8000510571F4D0938212C093811220C0129632
:101E90008D919C911397AD01009711F0DC01D3CF88
:101EA000FA01D383C28321913191E20FF31FCE1740
:101EB000DF0769F488819981280F391F2E5F3F4F12
:101EC000FA01318320838A819B8193838283DF910E
:101ED000CF910895A0E0B0E0E0E7FFE00C94CCF8EB
:101EE000EC015B016115710519F0FB0191838083A1
:101EF000F9908F2D90E00E94B3F8892BC9F7FDE28D
:101F0000FF1621F4F990EE24E39405C02BE2F216BB
:101F100009F4F990EE248E0101501040C80161E3EC
:101F20007CE143E050E00E940912892B01F58E010B
:101F30000E5F1F4FC80164E37CE145E050E00E9462
:101F40000912892B19F48E01095F1F4FA114B104E6
:101F500019F0F50111830083E0FC04C070E090E00B
:101F600080E814C070E090E080E86FEF08C1C8011D
:101F700069E37CE143E050E00E940912892B69F497
:101F8000A114B10429F470E090E080EC6FE7F7C091
:101F90002296F501D183C083F6CF8824992440E0AE
:101FA00050E060E070E0EF2DE053EA30A0F5F2E0A1
:101FB000EF2A8E2D90E09C0128703070E2FE06C062
:101FC000232B79F50894811C911C2BC0232B19F02D
:101FD000089481089108DB01CA0112E0880F991F5B
:101FE000AA1FBB1F1A95D1F7480F591F6A1F7B1FE5
:101FF000440F551F661F771F4E0F511D611D711D28
:10200000483929E9520729E9620729E1720748F0AE
:1020100084E0E82A06C0EE3F31F4E3FC39C098E0E2
:10202000E92AF990C0CFE53311F0E53189F529911E
:102030002D3219F4E0E1EE2A05C02B3219F081E0CF
:1020400090E003C0299182E090E0E22FE053EA3073
:1020500018F0C81BD90B1CC020E030E0FCE0203891
:102060003F075CF4C901880F991F880F991F280F3B
:10207000391F220F331F2E0F311DE991E053EA3033
:1020800068F3E4FE03C0309521953F4F820E931E06
:10209000CE2CDD24E1FE07C0A114B10421F021976C
:1020A000F501D183C083CB01BA010E9418F57B01F1
:1020B0008C01F3E0CF22DD2423E0C216D10421F409
:1020C00017FB109517F9109557016801C801B70162
:1020D00020E030E040E050E00E9478F4882309F4EA
:1020E0004AC097FE0DC020E5E22E2CE1F22E90941E
:1020F000819491089394C0E2D0E000E010E012C017
:1021000098E6E92E9CE1F92EF6CFF701259135915D
:1021100045915491C601B5010E9458F75B016C01CD
:102120008C1A9D0A8C169D0684F7D595C7950F5F6E
:102130001F4F0630110529F08CEF9FEFE80EF91EB6
:10214000F1CFC501D6017C018D018C2D880F8D2D1D
:10215000881F8F3F51F0C601B50120E030E040E01C
:1021600050E00E9478F4882331F482E290E090936A
:102170008412809383127E2D9F2D802F612F272F15
:10218000392F482F562FB901CA01CDB7DEB7ECE081
:102190000C94E8F82F923F925F926F927F928F9209
:1021A0009F92AF92BF92CF92DF92EF92FF920F93E6
:1021B0001F93CF93DF938C011B01EA016115710519
:1021C00019F0FB0191838083209749F0CE0102979B
:1021D000839728F020E030E040E050E0F6C0F801BE
:1021E000A1908F018A2D90E00E94B3F8892BB9F756
:1021F000FDE2AF1631F4F801A1908F0155245394FC
:1022000007C0FBE2AF1619F4F801A1908F01552425
:10221000209719F0C031D105C1F4F0E3AF1679F47D
:10222000F8018081883711F0883549F4F801A180E0
:102230000E5F1F4FF2E05F2AC0E1D0E006C020979A
:1022400021F480E3A816E9F427C0C830D10531F1A4
:10225000C930D10524F4C230D10531F50CC0CA30E3
:10226000D10589F0C031D105F9F4C12CD12CE12C74
:10227000B8E0FB2E28C0C12CD12CE12CA0E4FA2E12
:1022800022C0CAE0D0E0FCECCF2EFCECDF2EFCEC50
:10229000EF2EFCE0FF2E17C0C8E0D0E0C12CD12CFF
:1022A000E12CE0E1FE2E0FC09E01442737FD409552
:1022B000542F60E070E080E090E80E9470F8C9015F
:1022C000DA016C017D0120E030E040E050E060E0A8
:1022D0003E01882477FC8094982C70EDB72EBA0CC0
:1022E000E9E0EB1570F48A2D81548A3118F499ECE9
:1022F000B92E06C08A2D81568A3150F589EAB82E4A
:10230000BA0C8B2D90E08C179D0714F56F3FE1F010
:10231000C216D306E406F506B0F0CA01B901A4015D
:1023200093010E942AF89B01AC012B0D311D411D28
:10233000511D2130F0E03F07F0E04F07F0E85F0764
:1023400010F461E001C06FEFF801A1908F01C5CFDB
:102350002114310481F0662331F001501040F10165
:102360001183008308C051FE1AC002501040F101D1
:102370001183008314C067FF12C050FC05C02FEF0B
:102380003FEF4FEF5FE704C020E030E040E050E86F
:1023900082E290E0909384128093831216C050FEE4
:1023A00008C050954095309521953F4F4F4F5F4F56
:1023B0000CC057FF0AC082E290E090938412809391
:1023C00083122FEF3FEF4FEF5FE7B901CA01DF91B3
:1023D000CF911F910F91FF90EF90DF90CF90BF9022
:1023E000AF909F908F907F906F905F903F902F90D5
:1023F0000895FB01DC0105900D920020E1F708959E
:10240000FC0105900020E9F7809590958E0F9F1FA5
:102410000895FB01DC014150504088F08D918134DA
:102420001CF08B350CF4805E659161341CF06B35CB
:102430000CF4605E861B611171F3990B0895881B83
:10244000FCCFFB01DC014150504048F005900D925B
:102450000020C9F701C01D9241505040E0F7089597
:10246000FB0155915523A9F0BF01DC014D914517A2
:102470004111E1F759F4CD010590002049F04D914B
:1024800040154111C9F3FB014111EFCF81E090E00C
:1024900001970895FB01DC0104C08D910190801922
:1024A00021F441505040C8F7881B990B0895FB0157
:1024B000DC0102C001900D9241505040D8F70895C0
:1024C000FB01DC010D900020E9F7119701900D92BE
:1024D0000020E1F70895FC018191861721F08823FF
:1024E000D9F7992708953197CF010895FB01DC01B1
:1024F0008D91019080190110D9F3990B0895FB017A
:10250000DC0101900D920020E1F70895FB01DC0150
:102510004150504030F08D910190801919F4002005
:10252000B9F7881B990B0895FB01DC01415050401D
:1025300048F001900D920020C9F701C01D92415052
:102540005040E0F70895AEE0B0E0E9EAF2E10C9423
:10255000D4F80D891E898EE08C831A8309838FEF4E
:102560009FE79E838D839E01275E3F4FCE0101969C
:102570006F89788DA9010E94C7122F813885020FBB
:10258000131FF80110822E96E4E00C94F0F8ABE0F3
:10259000B0E0EDECF2E10C94C6F83C012B015A01DD
:1025A000FC0117821682838181FD03C06FEF7FEFEC
:1025B000C6C19AE0892E1E010894211C311CF3012A
:1025C0002381F20123FD859123FF81912F0188232F
:1025D00009F4B2C1853239F423FD859123FF81913D
:1025E0002F01853229F490E0B3010E94BA14E7CF9D
:1025F000982FFF24EE249924FFE1FF15D0F09B32A1
:1026000069F09C3228F4903259F0933291F40EC064
:102610009D3249F0903369F441E024C052E0F52A3C
:1026200084E0F82A28C098E0F92A25C0E0E1FE2AD3
:1026300022C0F7FC29C0892F80538A3070F4F6FE3F
:1026400005C0989C902C1124980E15C0E89CE02C95
:102650001124E80EF0E2FF2A0EC09E3229F4F6FCA7
:102660006BC140E4F42A07C09C3619F450E8F52AFF
:1026700002C0983649F4F20123FD959123FF919110
:102680002F01992309F0B8CF892F8554833018F092
:102690008052833038F444E050E0A40EB51E5FE36E
:1026A00059830FC0933631F0933779F0933509F0A1
:1026B00056C020C0F5018081898342E050E0A40E1D
:1026C000B51E610101E010E012C0F501C080D180AB
:1026D000F6FC03C06FEF7FEF02C0692D70E042E0AF
:1026E00050E0A40EB51EC6010E94AF148C015FE736
:1026F000F52214C0F501C080D180F6FC03C06FEF55
:102700007FEF02C0692D70E042E050E0A40EB51EDC
:10271000C6010E94A4148C0150E8F52AF3FE07C0FC
:102720001AC080E290E0B3010E94BA14EA948E2DA0
:1027300090E008171907A8F30EC0F601F7FC859181
:10274000F7FE81916F0190E0B3010E94BA14E1108D
:10275000EA94015010400115110579F7EAC094364A
:1027600011F0993669F5F7FE08C0F5012081318135
:102770004281538184E090E00AC0F501808191811B
:102780009C01442737FD4095542F82E090E0A80E2D
:10279000B91E9FE6F92257FF09C050954095309524
:1027A00021953F4F4F4F5F4FE0E8FE2ACA01B90124
:1027B000A1012AE030E00E94E614D82ED21840C0D1
:1027C000953729F41F2D1F7E2AE030E01DC01F2DF4
:1027D000197F9F3661F0903720F4983509F0ACC02E
:1027E0000FC0903739F0983709F0A6C004C028E030
:1027F00030E00AC0106114FD146020E130E004C034
:1028000014FD166020E132E017FF08C0F501608179
:1028100071818281938144E050E008C0F50180819C
:102820009181BC0180E090E042E050E0A40EB51E32
:10283000A1010E94E614D82ED2188FE7F82EF122BB
:10284000F6FE0BC05EEFF522D91438F4F4FE07C093
:10285000F2FC05C08FEEF82202C01D2D01C0192D1B
:10286000F4FE0DC0FE01ED0DF11D8081803319F4E1
:1028700099EEF92208C01F5FF2FE05C003C08F2D3C
:10288000867809F01F5F0F2DF3FC14C0F0FE0FC017
:102890001E1510F09D2C0BC09D2C9E0C911A1E2D08
:1028A00006C080E290E0B3010E94BA141F5F1E15BB
:1028B000C0F304C01E1510F4E11A01C0EE2404FF99
:1028C0000FC080E390E0B3010E94BA1402FF1DC064
:1028D00001FD03C088E790E00EC088E590E00BC0E2
:1028E000802F867891F001FF02C08BE201C080E268
:1028F000F7FC8DE290E0B3010E94BA1406C080E3B9
:1029000090E0B3010E94BA149A94D914C0F3DA94F7
:10291000F101ED0DF11D808190E0B3010E94BA1428
:10292000DD20A9F706C080E290E0B3010E94BA144E
:10293000EA94EE20C1F743CEF30166817781CB01A3
:102940002B96E2E10C94E2F8FC0105906150704096
:102950000110D8F7809590958E0F9F1F0895FC0168
:102960006150704001900110D8F7809590958E0FBE
:102970009F1F08950F931F93CF93DF938C01EB015B
:102980008B8181FF1BC082FF0DC02E813F818C8116
:102990009D812817390764F4E881F9810193F9834F
:1029A000E88306C0E885F985802F0995892B31F4E5
:1029B0008E819F8101969F838E8302C00FEF1FEF50
:1029C000C801DF91CF911F910F910895FA01AA27B5
:1029D000283051F1203181F1E8946F936E7F6E5F62
:1029E0007F4F8F4F9F4FAF4FB1E03ED0B4E03CD010
:1029F000670F781F891F9A1FA11D680F791F8A1FF3
:102A0000911DA11D6A0F711D811D911DA11D20D059
:102A100009F468943F912AE0269F11243019305D13
:102A20003193DEF6CF010895462F4770405D419304
:102A3000B3E00FD0C9F7F6CF462F4F70405D4A3351
:102A400018F0495D31FD4052419302D0A9F7EACF19
:102A5000B4E0A6959795879577956795BA95C9F748
:102A600000976105710508959B01AC010A2E06943B
:102A70005795479537952795BA95C9F7620F731FF4
:102A8000841F951FA01D0895FC01128213820895D2
:102A9000FC018381882311F081E082830895FC0189
:102AA0008281811112820895CF93DF93DC01FC01B2
:102AB000EB55FE4F808191810097C9F10197918379
:102AC0008083ED01CC5ADF4FFD01ED58FF4F8BE1C4
:102AD000019009928150E1F7FD01EE5AFF4FAF5886
:102AE000BF4F8D919C911197A157B04091838083E6
:102AF000FD01ED58FF4F20E030E0AD014B555E4F3A
:102B000010C02F5F3F4FEF01DF015F968BE10D900B
:102B100009928150E1F7858D968D3297918380835C
:102B2000B196DA018D919C912817390750F3DF9106
:102B3000CF910895FC0183EB93E09183808387819B
:102B4000882321F0CF0104960E94488A0895CF92ED
:102B5000DF92EF92FF920F931F93DF93CF93CDB746
:102B6000DEB76F970FB6F894DEBF0FBECDBF8C01F6
:102B70006B01095A1F4FD8018C91075510408823CB
:102B800021F42FE2E22EF12C03C090E5E92EF12C86
:102B9000E00EF11E83EB93E09A8389831C821B82F3
:102BA00018861D82B7016C5F7F4FCE010596A60186
:102BB00021E00E945691882391F5E3EEF0E0949194
:102BC00008C08091C00085FFFCCF9093C60031966D
:102BD00094919923B1F7E9EEF0E0949108C08091C7
:102BE000C00085FFFCCF9093C60031969491992345
:102BF000B1F709C08091C00085FFFCCF0894C11CCB
:102C0000D11C9093C600F6019081992399F7809189
:102C1000C00085FFFCCF8AE08093C6005AC0F8014F
:102C2000EB55FE4F208131812A30310508F040C03C
:102C30002F5F3F4F3183208321503040F90185E0E1
:102C4000EE0FFF1F8A95E1F7E21BF30BED58FF4FE4
:102C5000E00FF11F13C0AF01415E5F4FBF018BE179
:102C6000DB010D90BD01DA010D92AD018150C1F77C
:102C7000929182913296968F858F7F972150304026
:102C8000BFEF2E3F3B0739F7D801AD58BF4FF701D3
:102C900034968BE101900D928150E1F70F581F4F50
:102CA000F70182819381D8018D939C930157104045
:102CB000D801AC5ABF4FFE0135968BE101900D92C1
:102CC0008150E1F70E5A1F4F8B819C81F80191834F
:102CD0008083CE0101960E949A156F960FB6F894E4
:102CE000DEBF0FBECDBFCF91DF911F910F91FF903F
:102CF000EF90DF90CF900895EF92FF920F931F9384
:102D00008C013EECE32E31E0F32EE80EF91EC701F4
:102D10000E94FA89C7010E94488AF8011082118234
:102D20001F910F91FF90EF900895CF92DF92EF9255
:102D3000FF920F931F93CF93DF937C016B01DB0115
:102D40000D900020E9F78D0101501040061B170B74
:102D5000EEECF1E0EE0EFF1ED7011C92E2E3FEEF77
:102D6000EE0EFF1ECB016EE470E00E946B12EC01D0
:102D7000009731F4F8013197EC0DFD1D86010EC06E
:102D800060E270E00E946B128C010F5F1F4FCE015A
:102D90006AE270E00E946B12FC0131978DE0818342
:102DA0008AE082831382C70186539E4FB8010E9436
:102DB00058928EEC91E0E80EF91ED7018C91882391
:102DC00019F1E3E1F1E0949108C08091C00085FF22
:102DD000FCCF9093C600319694919923B1F7EAE124
:102DE000F1E0949108C08091C00085FFFCCF9093E2
:102DF000C600319694919923B1F78091C00085FF68
:102E0000FCCF8AE08093C600DF91CF911F910F9194
:102E1000FF90EF90DF90CF900895CF93DF93EC0178
:102E20008B81882309F43BC0E2E4F1E0949108C06F
:102E30008091C00085FFFCCF9093C600319694919D
:102E40009923B1F7CD57DD4F488159816A817B8144
:102E5000C358D2408CE994E02AE030E00E94472D2C
:102E6000E0E4F1E0949108C08091C00085FFFCCFC0
:102E70009093C600319694919923B1F7C558DD4FD0
:102E8000488159816A817B818CE994E02AE030E0B5
:102E90000E94472D8091C00085FFFCCF12C0E0E367
:102EA000F1E0949108C08091C00085FFFCCF909321
:102EB000C600319694919923B1F78091C00085FFA7
:102EC000FCCF8AE08093C600DF91CF9108952F92C6
:102ED0003F924F925F926F927F928F929F92AF92AA
:102EE000BF92CF92DF92EF92FF920F931F93DF93E7
:102EF000CF93CDB7DEB7AC970FB6F894DEBF0FBE59
:102F0000CDBF5C014B01FC018381882309F438C1EA
:102F1000C50182539E4F0E94488AF50112821A8A87
:102F20001D8A198A188A83EB93E09F878E875EE457
:102F3000C52ED12CCA0CDB1C2FE230E0A20EB31E32
:102F4000F601B182A08221ED3FEFA20EB31EF40183
:102F500080818F3209F090C0C4016FE270E00E945E
:102F60006B127C010894E11CF11C3E010894611C69
:102F7000711C260142E1242E312C2C0E3D1E77C0FF
:102F8000C7016FE270E00E946B126C01009709F4B8
:102F900081C0E816F90608F07DC08C010E191F09E2
:102FA000C301B701A8010E949412060D171DF80174
:102FB0001082F30107C08091C00085FFFCCF3196DD
:102FC0009093C60090819923B1F78091C00085FF4E
:102FD000FCCFFAE0F093C600F201608171816115C7
:102FE000710519F460E070E002C06C5F7F4FC101B1
:102FF000A30121E00E945691882371F5EEE7F1E0EC
:10300000949108C08091C00085FFFCCF9093C600CA
:10301000319694919923B1F7FE01319607C08091C2
:10302000C00085FFFCCF31969093C6009081992314
:10303000B1F7ECE7F1E0949108C08091C00085FF02
:10304000FCCF9093C600319694919923B1F780916B
:10305000C00085FFFCCF8DC02EE030E02C0F3D1F5F
:10306000F2013183208376010894E11CF11CE11404
:10307000F10409F085CF0BC080E590E0A80EB91EE1
:10308000F601B182A08220EB3FEFA20EB31ED82C36
:10309000092D02C0DE2C0F2D8EE490E0A80EB91E83
:1030A000F5018081918122EB3FEFA20EB31E0097C4
:1030B00019F480E090E001C004966D2D702F0E94FD
:1030C0002892882339F1EEE6F1E0949108C08091CE
:1030D000C00085FFFCCF9093C60031969491992350
:1030E000B1F78D2D902F9C01F90107C08091C00090
:1030F00085FFFCCF31969093C60090819923B1F75C
:1031000083E892E0A80EB91EF501108211821282A6
:10311000138232C0E6E5F1E0949108C08091C000CE
:1031200085FFFCCF9093C600319694919923B1F717
:103130008D2D902F9C01F90107C08091C00085FF63
:10314000FCCF31969093C60090819923B1F7E4E5C6
:10315000F1E0949108C08091C00085FFFCCF90936E
:10316000C600319694919923B1F78091C00085FFF4
:10317000FCCF8AE08093C600CE010E960E949A157D
:10318000AC960FB6F894DEBF0FBECDBFCF91DF91E6
:103190001F910F91FF90EF90DF90CF90BF90AF9075
:1031A0009F908F907F906F905F904F903F902F9067
:1031B0000895BF92CF92DF92EF92FF920F931F93E9
:1031C000CF93DF938C01EB018FE28993EE24E3949C
:1031D000FF2475EAC72E71E0D72EC00ED11E6FE115
:1031E000B62E14C0FB9CC00111248D589F4F800F38
:1031F000911FBE010E945A8A02C02196E3948881E1
:10320000882319F08CE88E15C0F7F3942F2D30E049
:10321000F601808191812817390720F3E7FC07C068
:10322000C80182539E4FBE010E945A8A01C0188273
:10323000DF91CF911F910F91FF90EF90DF90CF9092
:10324000BF9008952F923F924F925F926F927F921C
:103250008F929F92AF92BF92CF92DF92EF92FF92A6
:103260000F931F93DF93CF93CDB7DEB7AD970FB614
:10327000F894DEBF0FBECDBF6C014B014DA7DC0142
:1032800013968C91882309F44AC3E1EDF1E0CE0E48
:10329000DF1ED6018C91EFE2FEEFCE0EDF1E8823FB
:1032A00009F419C1222309F0E1C029EE31E0C20E70
:1032B000D31ED6018C91E7E1FEEFCE0EDF1E8823F0
:1032C00071F1E3E1F1E0949108C08091C00085FFC5
:1032D000FCCF9093C600319694919923B1F7E6E51F
:1032E000F2E0949108C08091C00085FFFCCF9093DC
:1032F000C600319694919923B1F78CE994E061E08E
:1033000070E04AE050E00E949B2D8091C00085FF54
:10331000FCCF8AE08093C6000E94B42F00C3E3EE86
:10332000F0E0949108C08091C00085FFFCCF90939D
:10333000C600319694919923B1F7EDE3F2E09491B0
:1033400008C08091C00085FFFCCF9093C6003196E5
:1033500094919923B1F7F40107C08091C00085FFD3
:10336000FCCF31969093C60090819923B1F7E2E3A8
:10337000F2E0949108C08091C00085FFFCCF90934B
:10338000C600319694919923B1F7C6012EEE31E033
:10339000C20ED31EB6010E94D9184BEF5FEFC40EC8
:1033A000D51ED6019C91E7E1FEEFCE0EDF1E8DE823
:1033B000989FF0011124E251FE4FEC0DFD1D07C056
:1033C0008091C00085FFFCCF31969093C60090811C
:1033D0009923B1F7ECE2F2E0949108C08091C0002B
:1033E00085FFFCCF9093C600319694919923B1F755
:1033F00023E832E0C20ED31ED6014D915D916D914E
:103400007C91EDE7FDEFCE0EDF1E8CE994E02AE023
:1034100030E00E94472D8091C00085FFFCCF8AE0FC
:103420008093C600A60147515E4FDA012C91E22F2E
:10343000F0E0EE0FFF1FEE0FFF1FEC0DFD1DE6513C
:10344000FE4F83E892E0C80ED91ED6014D905D90E4
:103450006D907C908DE79DEFC80ED91E4082518201
:10346000628273822F5FDA012C932FC0E3EEF0E0CB
:10347000949108C08091C00085FFFCCF9093C60056
:10348000319694919923B1F7EBE1F2E0949108C061
:103490008091C00085FFFCCF9093C6003196949137
:1034A0009923B1F7F40107C08091C00085FFFCCFDC
:1034B00031969093C60090819923B1F78091C00016
:1034C00085FFFCCF8AE08093C600C60182539E4FE1
:1034D0000E94488A39C0E9EEF1E0CE0EDF1ED60127
:1034E0001C92E7E1FEEFCE0EDF1EE3EEF0E09491DA
:1034F00008C08091C00085FFFCCF9093C600319634
:1035000094919923B1F7EAE0F2E0949108C0809198
:10351000C00085FFFCCF9093C6003196949199230B
:10352000B1F7F40107C08091C00085FFFCCF319650
:103530009093C60090819923B1F78091C00085FFD8
:10354000FCCF8AE08093C600D60112961C921A8A9C
:103550001D8A198A188A83EB93E09F878E87FEE481
:10356000AF2EB12CAC0CBD1CEFE2F0E0CE0EDF1E96
:10357000D501CD92DC92E1EDFFEFCE0EDF1ED4013E
:103580008C918F3209F090C0C4016FE270E00E940C
:103590006B127C010894E11CF11C3E010894611C33
:1035A000711C2501E2E12E2E312C2C0E3D1E77C020
:1035B000C7016FE270E00E946B125C01009709F492
:1035C00081C0E816F90608F07DC08C010E191F09AC
:1035D000C301B701A8010E949412060D171DF8013E
:1035E0001082F30107C08091C00085FFFCCF3196A7
:1035F0009093C60090819923B1F78091C00085FF18
:10360000FCCFFAE0F093C600D2016D917C91611578
:10361000710519F460E070E002C06C5F7F4FC1017A
:10362000A30121E00E945691882371F5E6EFF1E0B5
:10363000949108C08091C00085FFFCCF9093C60094
:10364000319694919923B1F7FE01319607C080918C
:10365000C00085FFFCCF31969093C60090819923DE
:10366000B1F7E4EFF1E0949108C08091C00085FFCC
:10367000FCCF9093C600319694919923B1F7809135
:10368000C00085FFFCCF1BC12EE030E02C0F3D1F9A
:10369000F2013183208375010894E11CF11CE114CF
:1036A000F10409F085CF0BC040E550E0C40ED51EF3
:1036B000D501CD92DC92E0EBFFEFCE0EDF1E082DA0
:1036C000F92C01C00E2DF601E25BFF4F2DA5222340
:1036D00009F4B1C0608171816115710519F460E070
:1036E00070E002C06C5F7F4FC60182539E4F402F37
:1036F0005F2D21E00E945691882309F46CC04FEDA4
:1037000051E0C40ED51ED6014D915D916D917C9115
:10371000ECE9F0E0CE0EDF1ED6014D935D936D9384
:103720007C931397E5E8FDEFCE0EDF1EE6EEF1E0A9
:10373000949108C08091C00085FFFCCF9093C60093
:10374000319694919923B1F7802F9F2D9C01F90117
:1037500007C08091C00085FFFCCF31969093C600D2
:1037600090819923B1F7EEEDF1E0949108C080913A
:10377000C00085FFFCCF9093C600319694919923A9
:10378000B1F78CE994E02AE030E00E94472D809167
:10379000C00085FFFCCF8AE08093C60023E832E0BA
:1037A000C20ED31ED6011D921D921D921C9213971C
:1037B000E0EDF1E0949108C08091C00085FFFCCF5E
:1037C0009093C600319694919923B1F78091C000EF
:1037D00085FFFCCF99C0ECEBF1E0949108C080919B
:1037E000C00085FFFCCF9093C60031969491992339
:1037F000B1F7802F9F2D9C01F90107C08091C00077
:1038000085FFFCCF31969093C60090819923B1F744
:10381000EAEBF1E0949108C08091C00085FFFCCFF5
:103820009093C600319694919923B1F78091C0008E
:1038300085FFFCCF44C0608171816115710519F469
:1038400060E070E002C06C5F7F4FC60182539E4F04
:10385000402F5F2D26E50E945691882309F033C042
:10386000E6EAF1E0949108C08091C00085FFFCCFAA
:103870009093C600319694919923B1F7802F9F2D94
:103880009C01F90107C08091C00085FFFCCF3196F3
:103890009093C60090819923B1F7E4EAF1E0949106
:1038A00008C08091C00085FFFCCF9093C600319680
:1038B00094919923B1F78091C00085FFFCCF8AE0F5
:1038C0008093C60028C081E0F6018083E2E9F1E040
:1038D000949108C08091C00085FFFCCF9093C600F2
:1038E000319694919923B1F7F40107C08091C000FB
:1038F00085FFFCCF31969093C60090819923B1F754
:103900008091C00085FFFCCF8AE08093C600802FA5
:103910009F2D0E944EE2CE010E960E949A15AD9602
:103920000FB6F894DEBF0FBECDBFCF91DF911F91D0
:103930000F91FF90EF90DF90CF90BF90AF909F904E
:103940008F907F906F905F904F903F902F90089551
:10395000EF92FF920F931F93CF93DF93EC010E949E
:10396000ED988E0107511E4FD8018C919EECE92EE7
:1039700091E0F92EEC0EFD1E8823A1F1C7010E94F3
:10398000488AF8016081615060838DE8689FB001CA
:10399000112462517E4F6C0F7D1FCE0141E021E06A
:1039A0000E942219D801EC91F0E0EE0FFF1FEE0FFC
:1039B000FF1FEC0FFD1FE651FE4F408151816281D8
:1039C0007381CD57DD4F488359836A837B83C35806
:1039D000D240C7010E9430898B81882389F181E020
:1039E0008A832EC00E94CA98C7010E94488A1A8200
:1039F00087ED90E00E94375980919C09882301F15E
:103A000010929C0980915407C82FD0E0CC0FDD1F85
:103A1000CE5FDE4E68817981882777FD8095982F6B
:103A20000E941AF52091DC023091DD024091DE0205
:103A30005091DF020E9486F6181614F4198218823B
:103A4000DF91CF911F910F91FF90EF900895FC01AE
:103A500081E08183CF0140E021E00E942219089596
:103A6000EF92FF920F931F93CF93DF938C01FC0192
:103A7000138286A9882321F0C801C3960E94488A30
:103A800027EAE22E21E0F22EE00EF11EC70160E0EF
:103A90004FE10E94EE87882309F5E3EEF0E0949170
:103AA00008C08091C00085FFFCCF9093C60031967E
:103AB00094919923B1F7E7ECF2E0949108C08091DA
:103AC000C00085FFFCCF9093C60031969491992356
:103AD000B1F78091C00085FFFCCF7DC0E801C455DF
:103AE000DE4FCE01B70141E00E94ED92882341F5FF
:103AF000CE01B70140E00E94ED92882309F5E3E191
:103B0000F1E0949108C08091C00085FFFCCF9093B4
:103B1000C600319694919923B1F7E4EBF2E09491C9
:103B200008C08091C00085FFFCCF9093C6003196FD
:103B300094919923B1F78091C00085FFFCCF4BC0D1
:103B4000C801C396BE010E94498D882309F5E3E1AF
:103B5000F1E0949108C08091C00085FFFCCF909364
:103B6000C600319694919923B1F7E4EAF2E094917A
:103B700008C08091C00085FFFCCF9093C6003196AD
:103B800094919923B1F78091C00085FFFCCF23C0A9
:103B900081E0F8018383E3EEF0E0949108C0809126
:103BA000C00085FFFCCF9093C60031969491992375
:103BB000B1F7E9E9F2E0949108C08091C00085FF77
:103BC000FCCF9093C600319694919923B1F78091E0
:103BD000C00085FFFCCF8AE08093C600D801AC5AB4
:103BE000BF4FF801F3968BE101900D928150E1F700
:103BF000F80181A992A90E5A1F4FF8019183808381
:103C000002551040C8018F96025B1F4FF801918347
:103C10008083DF91CF911F910F91FF90EF900895D6
:103C20002F923F924F925F926F927F929F92AF92AC
:103C3000BF92CF92DF92EF92FF920F931F93DF9389
:103C4000CF93CDB7DEB7CC55D0400FB6F894DEBFDA
:103C50000FBECDBF6C01662311F527E832E0C20E1E
:103C6000D31ED6018C91E9E7FDEFCE0EDF1E88232F
:103C700009F4E6C02FE732E0C20ED31ED601ED9064
:103C8000FD900D911C91E1E8FDEFCE0EDF1E0E942C
:103C900027F1E616F7060807190708F4D1C027E848
:103CA00032E0C20ED31ED6011C92E9E7FDEFCE0E24
:103CB000DF1ED60113968C91882341F4C6010E9421
:103CC000301DF6018381882309F4BAC000D000D0EA
:103CD00000D0EDB7FEB731967E010894E11CF11CCF
:103CE000ADB7BEB71296FC92EE9211978AE091E0C2
:103CF00093838283D6019D968D919C919E97958307
:103D000084830E94A3128701EDB7FEB736960FB6E3
:103D1000F894FEBF0FBEEDBF57010AC0D8018C91C9
:103D2000992787FD90950E94BBF8F80181938F0138
:103D3000F50101900020E9F73197EA19FB09802F7E
:103D40008E198E175CF363E3A62EB12CAC0CBD1C50
:103D5000C50140E050E060E070E00E9430899924A5
:103D60005DE3E52EF12CEC0EFD1E2E010894411CA6
:103D7000511C4FE1642E712C6C0E7D1E33E0232EFE
:103D800031E0332E43C0D8018C9190E00E94BBF803
:103D9000F80181938F01D7010D900020E9F7119769
:103DA000AE19BF09802F8E198A176CF327968FAD35
:103DB00027978E3759F1C701B20145E050E00E94C4
:103DC0008612009719F500D000D000D0EDB7FEB7ED
:103DD0003196ADB7BEB712967C926E921197338230
:103DE0002282558244820E94A312EDB7FEB7369616
:103DF0000FB6F894FEBF0FBEEDBFC3010E94B059CD
:103E00008FEF90E00E94375999249394C501B70130
:103E100040E050E00E94658C181614F48701BBCF77
:103E2000992041F48FEF9FEFD6019E969C938E933D
:103E30009D9706C0F60185A596A5019696A785A72C
:103E4000C45ADF4F0FB6F894DEBF0FBECDBFCF917F
:103E5000DF911F910F91FF90EF90DF90CF90BF9077
:103E6000AF909F907F906F905F904F903F902F907A
:103E700008952F923F924F925F926F927F928F920E
:103E80009F92AF92BF92CF92DF92EF92FF920F93E9
:103E90001F93DF93CF93CDB7DEB7CF58D0400FB687
:103EA000F894DEBF0FBECDBF8C013B016A0184E0F8
:103EB00090E0C80ED91EF8017196C757DF4FF983FD
:103EC000E883C958D040C8010496CA57DF4F998388
:103ED0008883C658D040C857DF4F1882C858D04092
:103EE000B6E6EB2EF12CEC0EFD1EF7013B96C55706
:103EF000DF4FF983E883CB58D040A8E88A2EA2E0B0
:103F00009A2E800E911EFAE8AF2EF2E0BF2EA00E80
:103F1000B11EEEE02E2E312C2C0E3D1E77E4472EE6
:103F2000512C4C0E5D1EC2010496C357DF4F99837E
:103F30008883CD58D040E3EEF0E09491C157DF4F35
:103F40009883CF58D0404FC1F7018385482F50E068
:103F5000BA01687170706031710509F052C1F401E5
:103F6000208131812130310509F44BC122303105E6
:103F700009F447C1F701DE0111969081903239F0C2
:103F80008E2F8E19883011F48EE28D939D93319689
:103F9000C557DF4F88819981CB58D040E817F90782
:103FA00061F71C921E86F3018081882329F4C101E8
:103FB00060E071E00E946012C101B3010E946012D2
:103FC000C101BE016F5F7F4F0E946012C10160E0BE
:103FD00071E00E9460121CA61FA61BA61AA683EB06
:103FE00093E099A788A7CE018C96B601AE014F5FEA
:103FF0005F4F21E00E945691882309F03FC0F401F1
:1040000080819181892BD1F5C157DF4F9881CF589D
:10401000D040E3EEF0E008C08091C00085FFFCCF07
:104020009093C600319694919923B1F7E2E0F1E0C4
:1040300007C08091C00085FFFCCF31969093C600E9
:1040400090819923B1F78091C00085FFFCCFFAE001
:10405000F093C600FE01319607C08091C00085FF35
:10406000FCCF31969093C60090819923B1F780914F
:10407000C00085FFFCCF8AE08093C600C357DF4FA6
:10408000A881B981CD58D040FE01BC968BE101904A
:104090000D928150E1F78AA59BA5F201938382835B
:1040A00083EB93E091838083C801B101A2010E9458
:1040B000391FC2010E949A15CE0188960E949A1556
:1040C00092C0953E09F48FC09E3209F48CC09F3592
:1040D00009F489C0F8019189992331F09E3209F4DD
:1040E00082C09F3509F47FC043FD7DC080E0603110
:1040F000710509F481E0F80184A7882349F4F701E8
:104100008085873409F06FC081858E3709F46BC0D4
:10411000CA57DF4FA881B981C658D040F7018081C6
:10412000803241F08E2F8E19883011F48EE28D93FB
:1041300080818D933196C557DF4F88819981CB5807
:10414000D040E817F90759F71C92F401808191815A
:10415000009729F5F30107C08091C00085FFFCCFCF
:1041600031969093C60090819923B1F7CA57DF4FDB
:10417000E881F981C658D04007C08091C00085FF12
:10418000FCCF31969093C60090819923B1F780912E
:10419000C00085FFFCCFFAE0F093C60024C0813058
:1041A000910539F4F5018081918101969183808395
:1041B0001AC00297C1F4C857DF4FF881C858D040E1
:1041C0002F2F30E0F5018081918128173907F1F018
:1041D000C857DF4FF881C858D040FF5FC857DF4F3E
:1041E000F883C858D040C601B701C757DF4F488190
:1041F0005981C958D0400E94658C18160CF4A4CE81
:1042000005C0F7019081992309F05BCFC157DF4FBB
:104210000FB6F894DEBF0FBECDBFCF91DF911F91D7
:104220000F91FF90EF90DF90CF90BF90AF909F9055
:104230008F907F906F905F904F903F902F90089558
:10424000EF92FF920F931F93DF93CF93CDB7DEB71B
:104250006F970FB6F894DEBF0FBECDBF7C018C0107
:10426000025B1F4F805B9F4FF8019183808328E89A
:1042700032E0E20EF31E21E030E0F70121933193AA
:104280007F011182108226E73DEFE20EF31E0496B5
:1042900040E050E060E070E00E943089F801208149
:1042A0003181DE011596F90134968BE101900D9272
:1042B0008150E1F7F901828193819C838B8383EBA9
:1042C00093E09A838983C70165E171E08E010F5FF6
:1042D0001F4FA8010E94391FC8010E949A15F701BB
:1042E000E657FD4F808191816F960FB6F894DEBF3F
:1042F0000FBECDBFCF91DF911F910F91FF90EF9037
:104300000895EF92FF920F931F93DF93CF93CDB752
:10431000DEB76F970FB6F894DEBF0FBECDBF7C013E
:104320008C01025B1F4F805B9F4FF801918380835C
:1043300028E832E0E20EF31E22E030E0F70131839C
:10434000208328E73DEFE20EF31EF701E657FD4F0D
:1043500060831182049640E050E060E070E00E94CB
:104360003089F80120813181DE011596F9013496FA
:104370008BE101900D928150E1F7F90182819381E7
:104380009C838B8383EB93E09A838983C70165E1E8
:1043900071E08E010F5F1F4FA8010E94391FC801F5
:1043A0000E949A156F960FB6F894DEBF0FBECDBF70
:1043B000CF91DF911F910F91FF90EF900895EF92B1
:1043C000FF920F931F93DF93CF93CDB7DEB76F9715
:1043D0000FB6F894DEBF0FBECDBF7C0188E892E037
:1043E000E80EF91EF7011182108288E79DEFE80EB2
:1043F000F91E87010D5C1F4FC80140E050E060E0EE
:1044000070E00E943089DE011596F8018BE1019081
:104410000D928150E1F7F70181A992A99C838B83CA
:1044200083EB93E09A838983C70165E171E08E0194
:104430000F5F1F4FA8010E94391FC8010E949A15E3
:104440006F960FB6F894DEBF0FBECDBFCF91DF9150
:104450001F910F91FF90EF9008950F931F93CF93AB
:10446000DF93DC01D3961C92D397D6961C92D697F5
:10447000D2961C921E92D19783EB93E0D0969C9398
:104480008E939F97AC5ABF4F1C9213961C92A755C0
:10449000B040FD01E05BFF4FAE5ABF4F11961C923A
:1044A0001E92A255B04091838083ED01C159DF4F28
:1044B000FE0120E030E0482F14821782138212821E
:1044C00040839183215E3F4F7F9681E026333807FA
:1044D00099F7A855BE4F89E18C9313961C92589674
:1044E0001C921B961C9213961C92A15DB140FD017B
:1044F000E653FE4FA453BE4F11961C921E9240836A
:104500009183A155BF4F1D921D921D921C9213972E
:1045100018961D921D921D921C921397A358B2409B
:1045200012961C92129713961C9213971C92119636
:104530001C9211978D0101581D4FF80110821182B4
:1045400012821382AB55BE4F11961C921E92AC5B29
:10455000BF4F1C92FE01C90111920197E9F7A256C3
:10456000BF4F81E08C93A758B2409E961C921E923A
:104570009D970E9427F168577C4E8F4F9F4FF801FF
:104580006083718382839383DF91CF911F910F9119
:104590000895DF93CF93CDB7DEB72B970FB6F8947E
:1045A000DEBF0FBECDBF8091160190911701A09183
:1045B0001801B09119018C839D83AE83BF83FE01E6
:1045C000349624E630E08081F999FECF1FBA32BDDF
:1045D00021BD80BD0FB6F894FA9AF99A0FBE2F5FED
:1045E0003F4F2836310511F03196EDCFE0E4F9E088
:1045F0008081F999FECF1FBA32BD21BD80BD0FB6B3
:10460000F894FA9AF99A0FBE2F5F3F4F2837310579
:1046100011F03196EDCFE0E3F9E08081F999FECF1A
:104620001FBA32BD21BD80BD0FB6F894FA9AF99A2F
:104630000FBE2F5F3F4F2838310511F03196EDCF77
:10464000E0E5F9E08081F999FECF1FBA32BD21BDC6
:1046500080BD0FB6F894FA9AF99A0FBE2F5F3F4FBC
:104660002839310511F03196EDCFE4E6F9E080818B
:10467000F999FECF1FBA32BD21BD80BD0FB6F894A7
:10468000FA9AF99A0FBE2F5F3F4F2C39310511F07E
:104690003196EDCFE8E6F9E08081F999FECF1FBAB7
:1046A00032BD21BD80BD0FB6F894FA9AF99A0FBEBB
:1046B0002F5F3F4F203A310511F03196EDCFE0E604
:1046C000F9E08081F999FECF1FBA32BD21BD80BDCE
:1046D0000FB6F894FA9AF99A0FBE2F5F3F4F243A1B
:1046E000310511F03196EDCFE8E7F9E08081F999D5
:1046F000FECF1FBA32BD21BD80BD0FB6F894FA9A25
:10470000F99A0FBE2F5F3F4F283A310511F03196CD
:10471000EDCFECE2F9E08081F999FECF1FBA32BD0E
:1047200021BD80BD0FB6F894FA9AF99A0FBE2F5F9B
:104730003F4F2C3A310511F03196EDCFECE6F9E020
:104740008081F999FECF1FBA32BD21BD80BD0FB661
:10475000F894FA9AF99A0FBE2F5F3F4F203B31052C
:1047600011F03196EDCFE0E7F9E08081F999FECFC5
:104770001FBA32BD21BD80BD0FB6F894FA9AF99ADE
:104780000FBE2F5F3F4F243B310511F03196EDCF27
:10479000E4E7F9E08081F999FECF1FBA32BD21BD6F
:1047A00080BD0FB6F894FA9AF99A0FBE2F5F3F4F6B
:1047B000283B310511F03196EDCFE1E4F7E080813F
:1047C000F999FECF1FBA32BD21BD80BD0FB6F89456
:1047D000FA9AF99A0FBE2F5F3F4F243C310511F032
:1047E0003196EDCFE9E5F1E18081F999FECF1FBA6D
:1047F00032BD21BD80BD0FB6F894FA9AF99A0FBE6A
:104800002F5F3F4F263C310511F03196EDCFEBE5A0
:10481000F1E18081F999FECF1FBA32BD21BD80BD83
:104820000FB6F894FA9AF99A0FBE2F5F3F4F283CC3
:10483000310511F03196EDCFEDE5F1E18081F99987
:10484000FECF1FBA32BD21BD80BD0FB6F894FA9AD3
:10485000F99A0FBE2F5F3F4F2A3C310511F0319678
:10486000EDCFEFE5F1E18081F999FECF1FBA32BDBE
:1048700021BD80BD0FB6F894FA9AF99A0FBE2F5F4A
:104880003F4F2C3C310511F03196EDCFE1E6F1E1DF
:104890008081F999FECF1FBA32BD21BD80BD0FB610
:1048A000F894FA9AF99A0FBE2F5F3F4F2E3C3105CC
:1048B00011F03196EDCFE3E6F1E18081F999FECF79
:1048C0001FBA32BD21BD80BD0FB6F894FA9AF99A8D
:1048D0000FBE2F5F3F4F203D310511F03196EDCFD8
:1048E000E0E5F7E08081F999FECF1FBA32BD21BD26
:1048F00080BD0FB6F894FA9AF99A0FBE2F5F3F4F1A
:10490000243D310511F03196EDCFEDEEF2E08081DE
:10491000F999FECF1FBA32BD21BD80BD0FB6F89404
:10492000FA9AF99A0FBE2F5F3F4F283D310511F0DB
:104930003196EDCFE1EFF2E08081F999FECF1FBA19
:1049400032BD21BD80BD0FB6F894FA9AF99A0FBE18
:104950002F5F3F4F2C3D310511F03196EDCFE5EF44
:10496000F2E08081F999FECF1FBA32BD21BD80BD32
:104970000FB6F894FA9AF99A0FBE2F5F3F4F203E78
:10498000310511F03196EDCF80E290E09B838A8370
:10499000FE0132968081F999FECF1FBA32BD21BD4A
:1049A00080BD0FB6F894FA9AF99A0FBE213E3105F0
:1049B00021F0319621EE30E0EDCF80911A019091F7
:1049C0001B01A0911C01B0911D0188879987AA87BE
:1049D000BB87FE01389684E690E02081F999FECFEE
:1049E0001FBA92BD81BD20BD0FB6F894FA9AF99A0C
:1049F0000FBE8736910519F001963196EECF8DE600
:104A00008983F999FECF1FBA12BC11BC8DE680BD17
:104A10000FB6F894FA9AF99A0FBEE4EDF2E0949189
:104A200008C08091C00085FFFCCF9093C6003196EE
:104A300094919923B1F7EEEDF4E0949108C0809140
:104A4000C00085FFFCCF9093C600319694919923C6
:104A5000B1F78091C00085FFFCCF8AE08093C6004B
:104A60002B960FB6F894DEBF0FBECDBFCF91DF916E
:104A70000895EF92FF920F931F93DF93CF93CDB7DB
:104A8000DEB7E0970FB6F894DEBF0FBECDBFDE01F4
:104A90001196E3E6F3E080E101900D928150E1F799
:104AA000DE015196E3E5F3E080E101900D92815043
:104AB000E1F7DE019196E3E4F3E080E101900D92ED
:104AC0008150E1F789819A81AB81BC818093400953
:104AD00090934109A0934209B093430989899A8927
:104AE000AB89BC898093300990933109A093320936
:104AF000B093330989A19AA1ABA1BCA180935009BD
:104B000090935109A0935209B09353098D819E81CE
:104B1000AF81B8858093440990934509A0934609D5
:104B2000B09347098D899E89AF89B88D80933409E8
:104B300090933509A0933609B09337098DA19EA1B2
:104B4000AFA1B8A58093540990935509A093560935
:104B5000B093570989859A85AB85BC8580934809B0
:104B600090934909A0934A09B0934B09898D9A8D76
:104B7000AB8DBC8D8093380990933909A0933A0985
:104B8000B0933B0989A59AA5ABA5BCA5809358090C
:104B900090935909A0935A09B0935B098D859E851E
:104BA000AF85B88980934C0990934D09A0934E0925
:104BB000B0934F098D8D9E8DAF8DB8A180933C0928
:104BC00090933D09A0933E09B0933F098DA59EA502
:104BD000AFA5B8A980935C0990935D09A0935E0985
:104BE000B0935F090E94EE5E80E090E0AAE7B4E433
:104BF0008093640990936509A0936609B09367094F
:104C000080E090E8ABE3B5E480936809909369098C
:104C1000A0936A09B0936B0920E030E040E050E0D7
:104C200020936009309361094093620950936309AE
:104C300080E29EE4A0E0B0E080932C0990932D09DF
:104C4000A0932E09B0932F09209378093093790906
:104C500040937A0950937B0980E090E0A0EAB1E4A8
:104C600080936C0990936D09A0936E09B0936F09BE
:104C70008DEC9CECACECBEE38093700990937109D1
:104C8000A0937209B093730980E090E0A0EAB0E4C9
:104C90008093740990937509A0937609B09377096E
:104CA0002093490730934A0740934B0750934C0792
:104CB0002093450730934607409347075093480792
:104CC0002093410730934207409343075093440792
:104CD0008EEB90E090935A118093591187E390E006
:104CE00090935C1180935B112FEF30E030935E1155
:104CF00020935D1180EF90E09093601180935F119D
:104D000085E590E090936211809361113093641176
:104D1000209363110F2EF0E0EF2EF0E0FF2EF0E86D
:104D20000F2FFFE31F2FF02DE0925007F092510755
:104D3000009352071093530780E090E0A8ECB1E491
:104D40008093ED029093EE02A093EF02B093F002F5
:104D5000C801B7010E94E6A06093F1027093F202CD
:104D60008093F3029093F40260E070E080EF92E4AD
:104D70000E94F4A06093F5027093F6028093F7020C
:104D80009093F8020E9404A0E092F902F092FA02D5
:104D90000093FB021093FC02E4EDF2E0949108C052
:104DA0008091C00085FFFCCF9093C600319694910E
:104DB0009923B1F7EAEDF2E0949108C08091C00028
:104DC00085FFFCCF9093C600319694919923B1F75B
:104DD0008091C00085FFFCCF8AE08093C600E096FA
:104DE0000FB6F894DEBF0FBECDBFCF91DF911F91FC
:104DF0000F91FF90EF9008950F931F93DF93CF9340
:104E0000CDB7DEB72B970FB6F894DEBF0FBECDBF80
:104E1000F999FECF12BC11BCF89A80B589838091B4
:104E20001A0190911B01A0911C01B0911D0188876E
:104E30009987AA87BB87FE01349604E610E0F999AA
:104E4000FECF12BD01BDF89A80B580830F5F1F4F62
:104E50000836110511F03196F2CFCE010896BE0149
:104E60006C5F7F4F43E050E00E948612009709F08C
:104E70009CC189818D3609F098C1E0E4F9E0F99987
:104E8000FECF12BD01BDF89A80B580830F5F1F4F22
:104E90000837110511F03196F2CFE0E3F9E0F99906
:104EA000FECF12BD01BDF89A80B580830F5F1F4F02
:104EB0000838110511F03196F2CFE0E5F9E0F999E3
:104EC000FECF12BD01BDF89A80B580830F5F1F4FE2
:104ED0000839110511F03196F2CF0E94EE5EE4E63A
:104EE000F9E0F999FECF12BD01BDF89A80B5808333
:104EF0000F5F1F4F0C39110511F03196F2CFE8E624
:104F0000F9E0F999FECF12BD01BDF89A80B5808312
:104F10000F5F1F4F003A110511F03196F2CFE0E616
:104F2000F9E0F999FECF12BD01BDF89A80B58083F2
:104F30000F5F1F4F043A110511F03196F2CFE8E7E9
:104F4000F9E0F999FECF12BD01BDF89A80B58083D2
:104F50000F5F1F4F083A110511F03196F2CFECE2C6
:104F6000F9E0F999FECF12BD01BDF89A80B58083B2
:104F70000F5F1F4F0C3A110511F03196F2CFECE69E
:104F8000F9E0F999FECF12BD01BDF89A80B5808392
:104F90000F5F1F4F003B110511F03196F2CFE0E794
:104FA000F9E0F999FECF12BD01BDF89A80B5808372
:104FB0000F5F1F4F043B110511F03196F2CFE4E76C
:104FC000F9E0F999FECF12BD01BDF89A80B5808352
:104FD0000F5F1F4F083B110511F03196F2CFE1E44E
:104FE000F7E0F999FECF12BD01BDF89A80B5808334
:104FF0000F5F1F4F043C110511F03196F2CFE9E528
:10500000F1E1F999FECF12BD01BDF89A80B5808318
:105010000F5F1F4F063C110511F03196F2CFEBE503
:10502000F1E1F999FECF12BD01BDF89A80B58083F8
:105030000F5F1F4F083C110511F03196F2CFEDE5DF
:10504000F1E1F999FECF12BD01BDF89A80B58083D8
:105050000F5F1F4F0A3C110511F03196F2CFEFE5BB
:10506000F1E1F999FECF12BD01BDF89A80B58083B8
:105070000F5F1F4F0C3C110511F03196F2CFE1E6A6
:10508000F1E1F999FECF12BD01BDF89A80B5808398
:105090000F5F1F4F0E3C110511F03196F2CFE3E682
:1050A000F1E1F999FECF12BD01BDF89A80B5808378
:1050B0000F5F1F4F003D110511F03196F2CFE0E573
:1050C000F7E0F999FECF12BD01BDF89A80B5808353
:1050D0000F5F1F4F043D110511F03196F2CFEDEE39
:1050E000F2E0F999FECF12BD01BDF89A80B5808338
:1050F0000F5F1F4F083D110511F03196F2CFE1EF20
:10510000F2E0F999FECF12BD01BDF89A80B5808317
:105110000F5F1F4F0C3D110511F03196F2CFE5EFF7
:10512000F2E0F999FECF12BD01BDF89A80B58083F7
:105130000F5F1F4F003E110511F03196F2CFFE01B7
:105140003296F999FECF12BD01BDF89A80B58083E1
:10515000013E110521F0319601EE10E0F2CF0E94E0
:1051600004A0E4EDF2E0949108C08091C00085FFB6
:10517000FCCF9093C600319694919923B1F7ECEF50
:10518000F2E0949108C08091C00085FFFCCF90931D
:10519000C600319694919923B1F78091C00085FFA4
:1051A000FCCF8AE08093C60002C00E9439252B966E
:1051B0000FB6F894DEBF0FBECDBFCF91DF911F9128
:1051C0000F910895CF93DF93C4EDD2E0FE01949147
:1051D00008C08091C00085FFFCCF9093C600319637
:1051E00094919923B1F7EEECF4E0949108C080918A
:1051F000C00085FFFCCF9093C6003196949199230F
:10520000B1F78091C00085FFFCCF8AE08093C60093
:10521000FE019491E4EDF2E008C08091C00085FFAA
:10522000FCCF9093C600319694919923B1F74091A9
:10523000400950914109609142097091430986ECFF
:1052400094E00E942D3540914409509145096091A8
:1052500046097091470983EC94E00E942D354091F6
:1052600048095091490960914A0970914B0980ECB5
:1052700094E00E942D3540914C0950914D09609168
:105280004E0970914F098DEB94E00E942D35EEE1AF
:10529000F1E007C08091C00085FFFCCF319690936C
:1052A000C60090819923B1F78091C00085FFFCCFA3
:1052B0008AE08093C600FE019491E4EDF2E008C01C
:1052C0008091C00085FFFCCF9093C60031969491E9
:1052D0009923B1F7E3EAF4E0949108C08091C0000B
:1052E00085FFFCCF9093C600319694919923B1F736
:1052F0008091C00085FFFCCF8AE08093C600FE014C
:105300009491E4EDF2E008C08091C00085FFFCCFED
:105310009093C600319694919923B1F7409130094A
:105320005091310960913209709133098AE994E012
:105330000E942D354091340950913509609136090C
:105340007091370987E994E00E942D354091380922
:105350005091390960913A0970913B0984E994E0D0
:105360000E942D3540913C0950913D0960913E09C4
:1053700070913F0981E994E00E942D35EEE1F1E062
:1053800007C08091C00085FFFCCF31969093C60086
:1053900090819923B1F78091C00085FFFCCF8AE00E
:1053A0008093C600FE019491E4EDF2E008C0809184
:1053B000C00085FFFCCF9093C6003196949199234D
:1053C000B1F7E3E7F4E0949108C08091C00085FF55
:1053D000FCCF9093C600319694919923B1F78091B8
:1053E000C00085FFFCCF8AE08093C600FE01949147
:1053F000E4EDF2E008C08091C00085FFFCCF9093FF
:10540000C600319694919923B1F74091500950917B
:10541000510960915209709153098AE694E00E9403
:105420006235409154095091550960915609709127
:10543000570987E694E00E946235409158095091DF
:10544000590960915A0970915B0984E694E00E94C1
:10545000623540915C0950915D0960915E097091DF
:105460005F0981E694E00E946235EEE1F1E007C059
:105470008091C00085FFFCCF31969093C60090814B
:105480009923B1F78091C00085FFFCCF8AE080931B
:10549000C600FE019491E4EDF2E008C08091C000E6
:1054A00085FFFCCF9093C600319694919923B1F774
:1054B000ECE2F4E0949108C08091C00085FFFCCF3D
:1054C0009093C600319694919923B1F78091C000D2
:1054D00085FFFCCF8AE08093C600FE019491E4ED45
:1054E000F2E008C08091C00085FFFCCF9093C60019
:1054F000319694919923B1F74091640950916509CF
:10550000609166097091670983E294E00E942D35ED
:10551000409168095091690960916A0970916B091D
:1055200080E294E00E942D35EEE1F1E007C0809129
:10553000C00085FFFCCF31969093C60090819923DF
:10554000B1F78091C00085FFFCCF8AE08093C60050
:10555000FE019491E4EDF2E008C08091C00085FF67
:10556000FCCF9093C600319694919923B1F7EDE664
:10557000F3E0949108C08091C00085FFFCCF909328
:10558000C600319694919923B1F78091C00085FFB0
:10559000FCCF8AE08093C600FE019491E4EDF2E036
:1055A00008C08091C00085FFFCCF9093C600319663
:1055B00094919923B1F740916009509161096091EC
:1055C00062097091630984E693E00E942D35409151
:1055D00078095091790960917A0970917B0981E687
:1055E00093E00E942D3540912C0950912D09609136
:1055F0002E0970912F098EE593E00E94623540914B
:105600006C0950916D0960916E0970916F098BE57D
:1056100093E00E942D35409170095091710960917D
:1056200072097091730988E593E00E942D354091CD
:10563000740950917509609176097091770985E533
:1056400093E00E942D35EEE1F1E007C08091C000AB
:1056500085FFFCCF31969093C60090819923B1F7D6
:105660008091C00085FFFCCF8AE08093C600FE01D8
:105670009491E4EDF2E008C08091C00085FFFCCF7A
:105680009093C600319694919923B1F7E3E4F3E047
:10569000949108C08091C00085FFFCCF9093C60014
:1056A000319694919923B1F78091C00085FFFCCF8A
:1056B0008AE08093C600FE019491E4EDF2E008C018
:1056C0008091C00085FFFCCF9093C60031969491E5
:1056D0009923B1F7409141075091420760914307E8
:1056E000709144078AE393E00E942D35409145076D
:1056F00050914607609147077091480787E393E010
:105700000E942D354091490750914A0760914B07FF
:1057100070914C0784E393E00E942D35EEE1F1E0B7
:1057200007C08091C00085FFFCCF31969093C600E2
:1057300090819923B1F78091C00085FFFCCF8AE06A
:105740008093C600FE019491E4EDF2E008C08091E0
:10575000C00085FFFCCF9093C600319694919923A9
:10576000B1F7E6E2F3E0949108C08091C00085FFB4
:10577000FCCF9093C600319694919923B1F7809114
:10578000C00085FFFCCF8AE08093C600FE019491A3
:10579000E4EDF2E008C08091C00085FFFCCF90935B
:1057A000C600319694919923B1F74091ED02509142
:1057B000EE026091EF027091F0028CE193E00E94A2
:1057C0002D356091F1027091F2028091F302909177
:1057D000F4020E94EDA0AB01BC0189E193E00E94BC
:1057E0002D356091F5027091F6028091F70290914B
:1057F000F8020E94FBA0AB01BC0186E193E00E948D
:105800002D35EEE1F1E007C08091C00085FFFCCFAF
:1058100031969093C60090819923B1F78091C00092
:1058200085FFFCCF8AE08093C600DF91CF91089579
:105830001F920F920FB60F920BB60F9211242F9357
:105840003F934F938F939F93EF93FF934091C600A5
:10585000E0919804F091990431969F012F77307070
:10586000319780919A0490919B042817390739F059
:10587000E85EFB4F40833093990420939804FF9196
:10588000EF919F918F914F913F912F910F900BBE70
:105890000F900FBE0F901F9018959A01AB0120300A
:1058A00081EE380780E0480780E0580749F182E040
:1058B0008093C00060E079E08DE390E00E9492F870
:1058C0002150304040405040CA01B90122E030E050
:1058D00040E050E00E9492F83093C5002093C4004D
:1058E0008091C10080618093C1008091C100886077
:1058F0008093C1008091C10080688093C1000895A9
:105900001092C00020E130E0E7CF20919A0430915E
:105910009B0480919804909199048217930719F43D
:105920002FEF3FEF0EC0F901E85EFB4F80812F5F44
:105930003F4F2F77307030939B0420939A04282F89
:1059400030E0C901089580919A0490919B0490934E
:10595000990480939804089508952F923F924F924E
:105960005F926F927F928F929F92AF92BF92CF92EF
:10597000DF92EF92FF920F931F93DF93CF93CDB7F8
:10598000DEB7A0970FB6F894DEBF0FBECDBF1C01E7
:105990006A017B01411551056105710549F440E338
:1059A00050E060E070E020E030E00E94662D56C0DC
:1059B000882499245401422E55246624772401E03A
:1059C00010E00C0F1D1F080D191DC701B601A30122
:1059D00092010E9470F8F80160830894811C911C68
:1059E000A11CB11CC701B601A30192010E9470F86D
:1059F000C901DA016C017D01C114D104E104F10493
:105A0000F1F681E0E82EF12CEC0EFD1EE80CF91CFD
:105A10003E010894611C711CD501C4010197A109C4
:105A2000B1096C01C818D90816C0F601EE0DFF1DAA
:105A300040814A3010F4405D01C0495C552747FD64
:105A40005095652F752FC10120E030E00E94662D32
:105A50000894E108F1086E147F0439F7A0960FB698
:105A6000F894DEBF0FBECDBFCF91DF911F910F9194
:105A7000FF90EF90DF90CF90BF90AF909F908F906E
:105A80007F906F905F904F903F902F9008952115D9
:105A9000310539F48091C00085FFFCCF4093C600EA
:105AA00008950E94AD2C0895EF92FF920F931F93DB
:105AB0009A01E62EFF2400E010E0B801A7010E9441
:105AC000472D1F910F91FF90EF900895EF92FF9255
:105AD0000F931F93CF93DF93EC017A018B01211574
