:100000000C943A150C9465150C9465150C946515B3
:100010000C9465150C9465150C9465150C94651578
:100020000C9465150C9465150C9465150C94651568
:100030000C9465150C9423510C9465150C9465155E
:100040000C9465150C945C500C948BC70C9465153E
:100050000C94AD4E0C94D74E0C9465150C9465150C
:100060000C9465150C9465150C9465150C94651528
:100070000C9465150C9465150C9465150C94651518
:100080000C9465150C9465150C946515C09CEE9C3C
:100090001C9D0E9EE7ACE7ACE7ACE7ACE7ACE7AC89
:1000A000E7ACE7ACE7AC4B9D8A9DCB9DE7ACE7ACFA
:1000B000E7ACE7ACE7ACE7ACE7ACE7ACE7ACE7ACA8
:1000C000E7AC95A0F6A057A1B8A119A27AA2DBA22D
:1000D0005FA3E8A7E3A35BA4D3A448A5BCA530A66F
:1000E000A4A610A77CA7E7ACE7ACE7ACE7ACE7AC0D
:1000F000639FCB9FE7AC3FA8B3A822A998A9C0A94A
:1001000016AA53AA90AAEFAA50ABAFAB0EAC3AAC6A
:10011000E8A9E7ACE7ACE7ACE7ACE7ACE7ACE7AC49
:10012000E7ACE7ACE7ACE7ACE7ACF79E2C9FE7ACFD
:10013000E7ACE7ACE7ACE7ACE7ACE7ACE7ACE7AC27
:10014000E7AC8A9FE7ACE7ACE7AC73ACB0ACE7AC2C
:10015000E7ACE7ACE7ACB29CE7ACE7AC519E8A9E5B
:10016000D79E30A0084AD73B3BCE016E84BCBFFD72
:10017000C12F3D6C74319ABD56833DDA3D00C77F77
:1001800011BED9E4BB4C3E916BAAAABE0000008010
:100190003F05A84CCDB2D44EB93836A9020C50B99F
:1001A000918688083CA6AAAA2ABE000000803F00CB
:1001B0000001000F0015000E001200FFFF160017CF
:1001C000000E001300FFFF030002001A001400FFDE
:1001D000FF1B00FFFF0D000C000400010000000EDB
:1001E00000070006001F00536574204D6963726F9D
:1001F0007374657070696E670048656174696E67D5
:10020000204265640048656174696E6720457874B2
:100210007275646572004649524D574152455F4EB2
:10022000414D453A52657065746965725F302E398B
:1002300031204649524D574152455F55524C3A681C
:10024000747470733A2F2F6769746875622E636FC8
:100250006D2F72657065746965722F526570657473
:100260006965722D4669726D776172652F205052F3
:100270004F544F434F4C5F56455253494F4E3A31BE
:100280002E30204D414348494E455F545950453A20
:100290004D656E64656C2045585452554445525F17
:1002A000434F554E543A31205245504554494552DA
:1002B0005F50524F544F434F4C3A32004465627581
:1002C000673A006F6B000D0A004E414E00494E46E2
:1002D000004572726F723A00496E666F3A0057615C
:1002E000726E696E673A00526573656E643A0045D6
:1002F00063686F3A006F6B200057726F6E67206300
:100300006865636B73756D004D697373696E672003
:10031000636865636B73756D00466F726D61742001
:100320006572726F7200446F6E65207072696E74D0
:10033000696E672066696C650020580020590020AE
:100340005A0020450020460020530020500020493C
:1003500000204A00205200534420726561642065E9
:1003600072726F72004572726F723A65787065636F
:10037000746564206C696E65200020676F742000CE
:10038000736B69702000424C4B200073746172746F
:1003900000506F77657255700045787465726E61B4
:1003A0006C2052657365740042726F776E206F75B2
:1003B00074205265736574005761746368646F6775
:1003C00020526573657400536F667477617265209F
:1003D000526573657400556E6B6E6F776E20636F38
:1003E0006D6D616E643A00467265652052414D3A0A
:1003F00000583A0020583A0020593A00205A3A0052
:1004000020453A00543A0020423A0020403A002069
:1004100054002040002042403A0020524157003A08
:10042000002F00202F0053706565644D756C746952
:10043000706C793A00466C6F774D756C7469706CAE
:10044000793A0046616E73706565643A005072696E
:100450006E7465642066696C616D656E743A0050F7
:1004600072696E74696E672074696D653A006D20FB
:10047000002064617973200020686F75727320001A
:10048000206D696E00496E76616C696420617263EB
:10049000002C002000593A005A3A0045303A0045F5
:1004A000313A004D53312C4D53322050696E730058
:1004B000536574206F7574707574200020746F20FC
:1004C000004820004C2000785F6D696E3A00785F2C
:1004D0006D61783A00795F6D696E3A00795F6D61A0
:1004E000783A007A5F6D696E3A007A5F6D61783AAA
:1004F000004A65726B3A00205A4A65726B3A0020D6
:100500006C696E6561722073746570733A00207156
:1005100075616472617469632073746570733A0005
:100520002C2073706565643D00454550524F4D2049
:1005300075706461746564006C696E656172204CED
:100540003A0020717561647261746963204B3A00EE
:10055000546172676574457874720054617267659E
:10056000744265643A00504944204175746F747553
:100570006E652073746172740020626961733A2041
:100580000020643A2000206D696E3A2000206D61E1
:10059000783A2000204B753A20002054753A20000C
:1005A00020436C61737369632050494400204B7091
:1005B0003A2000204B693A2000204B643A2000503A
:1005C0004944204175746F74756E65206661696C6D
:1005D0006564212054656D70657261747572652063
:1005E000746F206869676800504944204175746FD2
:1005F00074756E65206661696C6564212074696D2F
:10060000656F757400504944204175746F74756E40
:10061000652066696E6973686564202120506C618D
:10062000636520746865204B702C204B6920616ED7
:1006300064204B6420636F6E7374616E7473206901
:100640006E2074686520436F6E66696775726174A9
:10065000696F6E2E68206F7220454550524F4D00D5
:100660004D54454D503A006865617465642062657B
:100670006400657874727564657220003A20746550
:100680006D702073656E736F722064656665637448
:10069000003A20776F726B696E67005072696E74F2
:1006A00065722073657420696E746F20647279209E
:1006B00072756E206D6F646520756E74696C207242
:1006C00065737461727421004175746F6C65766531
:1006D0006C696E6720656E61626C6564004175745B
:1006E0006F6C6576656C696E672064697361626CB6
:1006F0006564005A2D70726F6265206661696C6571
:1007000064005A2D70726F6265206D61783A0050F6
:1007100072696E746572206865696768743A0077FB
:10072000616974004731205A3320463630300A4719
:100730003120583130205931302046363030300A9F
:100740004731205A302E3220463630300A004731A9
:10075000205A3320463630300A473120583139305C
:10076000205931302046363030300A4731205A3057
:100770002E3220463630300A004731205A33204688
:100780003630300A4731205831393020593139302C
:100790002046363030300A4731205A302E3220463B
:1007A0003630300A004731205A3320463630300A7E
:1007B00047312058313020593139302046363030D9
:1007C000300A4731205A302E3220463630300A0067
:1007D000436F6E66696775726174696F6E207374BA
:1007E0006F72656420746F20454550524F4D2E0046
:1007F000436F6E66696775726174696F6E206C6FA6
:10080000616465642066726F6D20454550524F4D9E
:100810002E00436F6E66696775726174696F6E2032
:10082000726573657420746F2064656661756C749D
:10083000732E0050726F746F636F6C2076657273E5
:10084000696F6E206368616E6765642C20757067E0
:10085000726164696E6700457874722E004550526B
:100860003A3020004550523A3120004550523A3239
:1008700020004550523A3320004261756472617421
:10088000650046696C616D656E74207072696E7486
:100890006564205B6D5D005072696E7465722061E5
:1008A0006374697665205B735D004D61782E206905
:1008B0006E6163746976652074696D65205B6D7324
:1008C0002C303D6F66665D0053746F7020737465E5
:1008D0007070657220616674657220696E61637400
:1008E0006976697479205B6D732C303D6F66665D47
:1008F000005820686F6D6520706F73205B6D6D5DB3
:10090000005920686F6D6520706F73205B6D6D5DA1
:10091000005A20686F6D6520706F73205B6D6D5D90
:100920000058206D6178206C656E677468205B6D7F
:100930006D5D0059206D6178206C656E677468206C
:100940005B6D6D5D005A206D6178206C656E67741B
:1009500068205B6D6D5D0058206261636B6C617334
:1009600068205B6D6D5D0059206261636B6C617323
:1009700068205B6D6D5D005A206261636B6C617312
:1009800068205B6D6D5D004D61782E206A65726B2D
:10099000205B6D6D2F735D004D61782E205A2D6A9E
:1009A00065726B205B6D6D2F735D00582D617869EA
:1009B0007320737465707320706572206D6D0059BB
:1009C0002D6178697320737465707320706572206F
:1009D0006D6D005A2D617869732073746570732092
:1009E000706572206D6D00582D61786973206D619E
:1009F000782E206665656472617465205B6D6D2F6D
:100A0000735D00592D61786973206D61782E2066C1
:100A100065656472617465205B6D6D2F735D005A4E
:100A20002D61786973206D61782E2066656564722A
:100A3000617465205B6D6D2F735D00582D61786961
:100A40007320686F6D696E67206665656472617496
:100A500065205B6D6D2F735D00592D617869732082
:100A6000686F6D696E672066656564726174652084
:100A70005B6D6D2F735D005A2D6178697320686F0F
:100A80006D696E67206665656472617465205B6D73
:100A90006D2F735D00582D61786973206163636504
:100AA0006C65726174696F6E205B6D6D2F735E3261
:100AB0005D00592D6178697320616363656C6572AF
:100AC0006174696F6E205B6D6D2F735E325D005ACD
:100AD0002D6178697320616363656C657261746907
:100AE0006F6E205B6D6D2F735E325D00582D6178E7
:100AF00069732074726176656C20616363656C65EF
:100B0000726174696F6E205B6D6D2F735E325D0074
:100B1000592D617869732074726176656C20616308
:100B200063656C65726174696F6E205B6D6D2F73A8
:100B30005E325D005A2D617869732074726176654A
:100B40006C20616363656C65726174696F6E205BB4
:100B50006D6D2F735E325D004F5053206F70657264
:100B60006174696F6E206D6F6465205B303D4F6608
:100B7000662C313D436C61737369632C323D466171
:100B800073745D004F5053206D6F766520616674FD
:100B900065722078252072657472616374205B250C
:100BA0005D004F5053206D696E2E2064697374612F
:100BB0006E636520666F722066696C2E20726574A4
:100BC00072616374696F6E205B6D6D5D004F505391
:100BD0002072657472616374696F6E206C656E67F4
:100BE0007468205B6D6D5D004F50532072657472A8
:100BF000616374696F6E206261636B6C61736820FE
:100C00005B6D6D5D004265642048656174204D61D7
:100C10006E61676572205B302D335D004265642034
:100C2000504944206472697665206D6178004265A0
:100C30006420504944206472697665206D696E00B5
:100C40004265642050494420502D6761696E00421E
:100C500065642050494420492D6761696E004265F2
:100C6000642050494420442D6761696E00426564E8
:100C700020504944206D61782076616C7565205B59
:100C8000302D3235355D0073746570732070657278
:100C9000206D6D006D61782E2066656564726174EB
:100CA00065205B6D6D2F735D0073746172742066D7
:100CB00065656472617465205B6D6D2F735D0061A5
:100CC0006363656C65726174696F6E205B6D6D2F17
:100CD000735E325D0068656174206D616E61676589
:100CE00072205B302D335D00504944206472697678
:100CF00065206D61780050494420647269766520F2
:100D00006D696E0050494420502D6761696E2F64F3
:100D10006561642D74696D650050494420492D67F3
:100D200061696E0050494420442D6761696E00502E
:100D30004944206D61782076616C7565205B302DAB
:100D40003235355D00582D6F6666736574205B73B0
:100D5000746570735D00592D6F6666736574205BF2
:100D600073746570735D0074656D702E20737461AB
:100D700062696C697A652074696D65205B735D00DA
:100D800074656D702E20666F722072657472616377
:100D900074696F6E207768656E2068656174696E2E
:100DA00067205B435D0064697374616E63652074E2
:100DB0006F2072657472616374207768656E206855
:100DC000656174696E67205B6D6D5D006578747236
:100DD0007564657220636F6F6C65722073706565F2
:100DE00064205B302D3235355D00616476616E6361
:100DF00065204B205B303D6F66665D006164766107
:100E00006E6365204C205B303D6F66665D00534429
:100E100020436172642072656D6F7665640053448F
:100E2000204361726420696E736572746564005357
:100E30004420696E6974206661696C006572726F26
:100E4000722077726974696E6720746F2066696CAE
:100E50006500426567696E2066696C65206C697320
:100E60007400456E642066696C65206C697374005B
:100E700046696C65206F70656E65643A0020536941
:100E80007A653A0046696C652073656C65637465C4
:100E9000640066696C652E6F70656E206661696CB2
:100EA0006564005344207072696E74696E672062D5
:100EB00079746520004E6F74205344207072696EFF
:100EC00074696E67006F70656E206661696C656439
:100ED0002C2046696C653A200057726974696E6708
:100EE00020746F2066696C653A2000446F6E65203F
:100EF000736176696E672066696C652E0046696C61
:100F0000652064656C657465640044656C6574692E
:100F10006F6E206661696C65640044697265637414
:100F20006F727920637265617465640043726561F4
:100F300074696F6E206661696C6564005344206556
:100F400072726F72436F64653A0047342053310AFE
:100F50000047342053330A004739310A004D3434F6
:100F6000340A00473120582D353020463230303099
:100F70000A004731205835302046323030300A00E0
:100F8000473120592D35302046323030300A004765
:100F900031205935302046323030300A0047312078
:100FA0005A3520463230300A004731205A2D35203C
:100FB000463230300A004D31303620533130300A5D
:100FC000004D3130370A004D313930205335300A69
:100FD000004D31303920533230300A00473120453E
:100FE0003820463230300A00473120452D33204624
:100FF0003230300A000701061C151C143A21002269
:1010000043141F1F1E108E10E2105211A2118A12DB
:1010100000000E139613A214F2146E1500000000C7
:10102000A00F5C006009690010097900C0088C00FD
:101030007008A2002008BD00D007DE00800705016F
:1010400030073401E0066D019006B2014006070248
:10105000F0056D02A005E80250057B0300052B0496
:10106000B004F8046004EB06C003350920037F0BCD
:101070008002650DE001B00E40011D0FF000480F29
:10108000C8006C0FA000ED0F60FFFE0F48FE0400CB
:10109000801AD8009808AC0120078002500654033B
:1010A000C80528045805FC040005D005B004A406B2
:1010B0006804780728044C08E8032009B003F40901
:1010C0007003C80A38039C0BF802700CB002440D80
:1010D0006802180E0802EC0E8801C00F8800F00F9D
:1010E00000000400001B5400600964001009740033
:1010F000C008840070089C002008B800D007D80001
:101100008007000130072C01E00668019006AC0161
:1011100040060002F0056802A005E00250057403D5
:1011200000052404B004F0046004DC051004E406A7
:10113000C0030408700330092003780B8002600D9F
:10114000E001A80E4001680FA000C00F0000E80FEA
:1011500060FF0400700DD8004804AC015803800201
:10116000D8025403800228043802FC040002D0058F
:10117000C801A4069801780770014C0848012009AD
:101180001801F409F000C80AC8009C0BA000700CFC
:101190007000440D3800180E0000EC0EA8FFC00FC0
:1011A000E8FE380060093B0038094000100946009D
:1011B000E8084C00C0085200980859007008620006
:1011C00048086C0020087600F8078000D0079100DE
:1011D000A8079C008007A8005807BB003007D00074
:1011E0000807E300E006F800B806100190062D019C
:1011F000680650014006720118069001F005C20110
:10120000C805EC01A0052802780567025005B20266
:101210002805EE0200053E03D8049803B004F2034B
:1012200088045E046004BF04380432051004B40569
:10123000E8033A06C003D80698036C077003F80762
:101240004803980820032E09F802D409D0026F0A37
:10125000A8020F0B80029F0B58022B0C3002B30C1C
:1012600008022F0DE001980DB801FC0D90014C0E05
:1012700068019C0E40011D0FF000480FC8006C0F64
:10128000A000ED0F60FFFE0F48FE38006009BB00B4
:10129000D0076702F005B202C805EE02A0053E03C2
:1012A000780598035005F20328055E040005BF0485
:1012B000D80432058804B40560043A063804D80618
:1012C00010046C07E803F807C003980898032E0978
:1012D0007003D40948036F0A10030F0BE0029F0B41
:1012E000A8022B0C6002B30C4002980DF001FC0D1B
:1012F000A0014C0E70019C0E40011D0FF000480F24
:10130000C8006C0FA000ED0F60FFFE0F48FE00004C
:10131000401F450060094F0010095C00C0086B00C9
:1013200070087D0020089200D007AC008007CC0038
:101330003007DE00E006230190065E014006A601AC
:10134000F005FF01A0056D025005F30200059603AC
:10135000B0045A046004400510044806C0036E0738
:101360007003A8082003EB09D002230B8002410C74
:101370003002390DE001040E9001A20E4001170F5A
:10138000F000690FA000A20F5000C60F0000DD0F93
:10139000B0FFEB0F60FF0400681D4C00500B940081
:1013A0005809DC0050082401A8076C012807B40183
:1013B000C006FC017006440228068C02F005D40227
:1013C000B8051C03880564035805AC033005F40315
:1013D00010053C04E8048404C804CC04A8041405E3
:1013E00090045C057004A4055804EC053804340628
:1013F00020047C060804C406F0030C07D803540735
:10140000C8039C07B003E40798032C088003740802
:101410007003BC085803040948034C0930039409BD
:101420001803DC090803240AF0026C0AE002B40A7B
:10143000C802FC0AB002440BA0028C0B8802D40B39
:1014400070021C0C5802640C4002AC0C2802F40C14
:1014500010023C0DF001840DD801CC0DB801140E22
:1014600098015C0E7001A40E4801EC0E1801340FB7
:10147000D8007C0F8800C40F0800FC0F000000009B
:10148000000000000000000000000000000000005C
:10149000000000000000000000000000000000004C
:1014A000000004000016D800C006AC0178058002D8
:1014B000C004540348042804E803FC049803D0053E
:1014C0005003A40618037807D8024C08A802200984
:1014D0007002F4093802C80A08029C0BD001700C93
:1014E0009001440D5001180EF800EC0E8800C00F5A
:1014F00000000400401D900060091C01B007A80115
:10150000D00634023806C002C8054C036805D8036B
:1015100018056404D804F00498047C0560040806E7
:101520003004940600042007D003AC07A803380851
:101530008003C408580350093003DC090803680A13
:10154000E002F40AB802800B88020C0C6002980CCE
:101550003002240DF801B00DC0013C0E8001C80E10
:101560003001540FB800B40F2800E00F0000040051
:10157000081D900058091C01B007A801C8063402D4
:101580003006C002C0054C036805D8031805640482
:10159000D004F00498047C05600408063004940626
:1015A00000042007D003AC07A80338088003C40850
:1015B000580350093003DC090803680AD802F40A0A
:1015C000B002800B88020C0C6002980C3002240DD3
:1015D000F801B00DC0013C0E8001C80E3001540F5F
:1015E000B800B40F2800E00F000053442065727269
:1015F0006F72206669786564005344206572726F6B
:101600007220646964206E6F74207265636F766502
:1016100072210053442052656164204572726F72DA
:101620000042696E6172793A00436F6D6D616E645C
:101630004275666665720000000000000000000050
:101640000000000000000024F403D950C38EB1C292
:10165000A23D96828B3582127AE372816CCB66A8AA
:1016600061015DC758EB546151204E1E4B5648C175
:101670004559431A41013F093D2F3B7139CD374050
:1016800036C93465331432D430A32F802E6B2D63CA
:101690002C672B752A8E29B028DC2710274B268F24
:1016A00025D9242B248223E0224322AC211A218D28
:1016B000200420801F001F841E0C1E971D261DB8AD
:1016C0001C4E1CE61B821B201BC11A641A0A1AB28C
:1016D000195D190A19B9186A181C18D1178817400A
:1016E00017FA16B51673163116F115B31576153AA5
:1016F000150015C7148F1458142214EE13BA13884A
:101700001356132513F612C71299126C12401215B4
:1017100012EB11C1119811701148112111FB10D653
:1017200010B1108D106910461024100210E10FC086
:101730000FA00F800F610F420F230F060FE80ECB93
:101740000EAF0E930E770E5C0E410E270E0D0EF3AC
:101750000DDA0DC10DA80D900D780D600D490D32FB
:101760000D1B0D050DEF0CD90CC30CAE0C990C859F
:101770000C700C5C0C480C350C210C0E0CFB0BE8AF
:101780000BD60BC40BB20BA00B8E0B7D0B6B0B5A45
:101790000B4A0B390B290B180B080BF80AE90AD96D
:1017A0000ACA0ABB0AAC0A9D0A8E0A800A710A6339
:1017B0000A550A470A390A2C0A1E0A110A040AF7AE
:1017C00009EA09DD09D009C409B709AB099F0992E3
:1017D0000987097B096F09630958094C09410936D2
:1017E000092B09200915090A090009F508EB08E089
:1017F00008D608CC08C208B808AE08A4089A089011
:101800000887087D0874086B08610858084F084667
:10181000083D0834082C0823081A08120809080192
:1018200008F807F007E807E007D807D007C807C09F
:1018300007B807B007A807A1070000420FA10716C5
:1018400005D0030D038B022E02E801B2018601636D
:101850000145012C0117010401F40049646C650085
:10186000486F6D65205A00486F6D65205900486FBC
:101870006D652058005374657070657220446973FB
:1018800061626C6564004B696C6C65640055706CDA
:101890006F6164696E672E2E2E005344207072694A
:1018A0006E742073746F7070656420627920757334
:1018B00065722E0000002110422063308440A55044
:1018C000C660E770088129914AA16BB18CC1ADD186
:1018D000CEE1EFF13112100273325222B55294422E
:1018E000F772D662399318837BB35AA3BDD39CC3D6
:1018F000FFF3DEE36224433420040114E664C7747A
:10190000A44485546AA54BB528850995EEE5CFF525
:10191000ACC58DD55336722611163006D776F666CD
:101920009556B4465BB77AA719973887DFF7FEE775
:101930009DD7BCC7C448E5588668A7784008611899
:1019400002282338CCC9EDD98EE9AFF948896999C5
:101950000AA92BB9F55AD44AB77A966A711A500A6D
:10196000333A122AFDDBDCCBBFFB9EEB799B588B15
:101970003BBB1AABA66C877CE44CC55C222C033CB9
:10198000600C411CAEED8FFDECCDCDDD2AAD0BBD65
:10199000688D499D977EB66ED55EF44E133E322E0D
:1019A000511E700E9FFFBEEFDDDFFCCF1BBF3AAFB5
:1019B000599F788F8891A981CAB1EBA10CD12DC113
:1019C0004EF16FE18010A100C230E32004502540A9
:1019D00046706760B9839893FBA3DAB33DC31CD309
:1019E0007FE35EF3B1029012F322D23235421452F9
:1019F00077625672EAB5CBA5A89589856EF54FE555
:101A00002CD50DC5E234C324A01481046674476448
:101A100024540544DBA7FAB79987B8975FE77EF7A8
:101A20001DC73CD7D326F2369106B0165766767698
:101A3000154634564CD96DC90EF92FE9C899E98974
:101A40008AB9ABA94458654806782768C018E108E8
:101A50008238A3287DCB5CDB3FEB1EFBF98BD89B48
:101A6000BBAB9ABB754A545A376A167AF10AD01A38
:101A7000B32A923A2EFD0FED6CDD4DCDAABD8BAD94
:101A8000E89DC98D267C076C645C454CA23C832C88
:101A9000E01CC10C1FEF3EFF5DCF7CDF9BAFBABFE8
:101AA000D98FF89F176E367E554E745E932EB23ED8
:101AB000D10EF01E7C3C3E5E2B3D3F2F5B5D3B2CF0
:101AC0002A225C004E6F206572726F7220666F75FD
:101AD0006E642E0043616E2774206F70656E2072F5
:101AE0006F6F74206469726563746F72792E004938
:101AF0006E76616C696420666F726D61742C207201
:101B000065666F726D61742053442E004E6F2063C2
:101B10006172642C2077726F6E6720636869702031
:101B200073656C6563742070696E2C206F7220532E
:101B300050492070726F626C656D3F0043616E2783
:101B4000742061636365737320534420636172641E
:101B50002E20446F206E6F74207265666F726D6107
:101B6000742E000001FF00FF000001010000FF00D3
:101B7000FF0100416374696F6E3A256C61000310C8
:101B8000270200891D03102702008D1D010000019E
:101B900000911D0200000800931D03ED030400A343
:101BA0001D03EE030400AB1D03EF030400B31D038C
:101BB000FA030400BB1D03FB030400C31D03FC0365
:101BC0000400CB1D0200000B00D31D020000060024
:101BD000E91D0200000C00F51D52657175657374F6
:101BE00050617573653A004E6F2053442043617213
:101BF0006400436F6F6C646F776E00556E6C6F613D
:101C0000642046696C616D656E74004C6F61642080
:101C100046696C616D656E740050726568656174CB
:101C200020414253005072656865617420504C41F8
:101C3000008025000040380000004B00008070004C
:101C40000000960000C0DA000000E10000002C0156
:101C50000008B2010000C2010000F401000084038A
:101C60000090D0030000E803000008070020A1074F
:101C70000000100E0040420F0060E316000000005C
:101C80000002000009000D1E1F1E261E2D1E341E00
:101C90004F6E004F666600596573004E6F0003007B
:101CA00004004E2F4100003A002064617973200047
:101CB0004D6F64656C3A5038303251380042616E75
:101CC0006742616E6700536C6F7742616E670044D4
:101CD0006561642054696D65005049440050726923
:101CE0006E74696E672E2E2E0020646566200000DB
:101CF00000003FCDCC4C3D0AD7A33B6F12033A52B4
:101D0000657065746965722D302E3931005A6F6EB9
:101D10006573746172203344205072696E74657209
:101D2000004D6F64656C3A50383032513800465778
:101D30005665723A503830325F56322E300050724B
:101D4000696E7465722072656164792E00004014BA
:101D500054040E15041C000000040A0400000000D6
:101D600000001F1F1F1F1F0000001F1111111F0067
:101D700000040A0A0A0E1F1F0E001C1F11111F006B
:101D800000001F1511151F1F003B1E421E491E504B
:101D90001E571E571E5E1E651E6C1E731E7A1E8108
:101DA0001E881E8F1E961E9D1EA41EAB1EB21EB93F
:101DB0001EC01EC71ECE1ED51EDC1EE31EEA1EF16F
:101DC0001EF81EFF1E061F0D1F141F1B1F221F299A
:101DD0001F301F571E371F3E1F451F4C1F531F5AD2
:101DE0001F611F681F6F1F761F571E7D1F841F8B6B
:101DF0001F921F991F571E371FA01FA71FAE1FB589
:101E00001FBC1FC31FCA1FD11FD81F921F571EDF21
:101E10001F5E1EE61FED1FF41FFB1F02200920009E
:101E20000000040010200000000400182000000042
:101E300004002020000000040028203020000000C2
:101E400000003E2000000000004F200000000000C5
:101E50005D2000000000006E2003E80300007520F4
:101E600003F5030102802003F60302048C200354CF
:101E7000040200972003F7030400A62003F80301DF
:101E800000B32003F9030001BE2003F4030102CADA
:101E9000200000000000D3200000000000E320002C
:101EA00000000000F3200000000000F4200000000B
:101EB0000000FD2000000000000D210000000000D7
:101EC0001D2100000000001E21000000000027214D
:101ED0000000000000372100000000004721000042
:101EE0000000004821000000000051210000000017
:101EF000006121000000000071210000000000725C
:101F00002100000000007B2100000000008B210068
:101F1000000000009B2100000000009C2100000048
:101F20000000A5210000000000B521000000000015
:101F3000C5210000000000C62103FD030020CF21C1
:101F4000041F040000E1210448040000F3210337CA
:101F5000040000FF2103470400000B2203C00F0010
:101F600000192203C10F00002922033804000032A7
:101F700022033104001040220342040020502204B6
:101F80003C0400006022043D0400007022033A0477
:101F900000007F22028E22000095220343040000ED
:101FA000A02203FE030020A72203FF030020AE228D
:101FB0000300040020B52202AF1B0000C122029AD8
:101FC0001B0000CC2202B61B0000D82202A11B007D
:101FD00000E32202BD1B0000EF2202A81B0000FA52
:101FE0002202C41B0000092302D21B00001223029C
:101FF000CB1B00001B2302252300002C2302931B74
:1020000000003423023E2300004523025323000036
:102010005A23612368236F2376237D2384238B2314
:1020200092239923A023A723AE23B523BC23C32344
:10203000436F6E66696775726174696F6E00737461
:102040006F72656420696E20454550524F4D0043C4
:102050006F6E66696775726174696F6E006C6F612F
:1020600064656420662E20454550524F4D00426104
:10207000636B2001005072696E742066696C6500A4
:102080005061757365205072696E740053746F707F
:10209000205072696E7400436F6E74696E756520AE
:1020A0005072696E7400556E6D6F756E7420436169
:1020B0007264004D6F756E742043617264004465F4
:1020C0006C6574652066696C6500583A2578302027
:1020D0006D6D004D696E20656E6473746F703A2586
:1020E0007378004D617820656E6473746F703A2563
:1020F00073580000593A257831206D6D004D696E96
:1021000020656E6473746F703A257379004D617841
:1021100020656E6473746F703A25735900005A3AE3
:10212000257832206D6D004D696E20656E64737484
:102130006F703A25737A004D617820656E64737410
:102140006F703A25735A0000583A257830206D6D2B
:10215000004D696E20656E6473746F703A257378F4
:10216000004D617820656E6473746F703A25735802
:102170000000593A257831206D6D004D696E20655B
:102180006E6473746F703A257379004D61782065C1
:102190006E6473746F703A25735900005A3A25784B
:1021A00032206D6D004D696E20656E6473746F70C2
:1021B0003A25737A004D617820656E6473746F7090
:1021C0003A25735A0000486F6D6520416C6C0053CE
:1021D00070656564204D756C2E3A256F6D2525253B
:1021E00000466C6F77204D756C2E203A256F662562
:1021F0002525005072656865617420504C4100507F
:1022000072656865617420414253004C6F616420BF
:1022100046696C616D656E7400556E6C6F6164200B
:1022200046696C616D656E7400436F6F6C646F77A7
:102230006E0053657420746F204F726967696E0079
:1022400044697361626C65207374657070657200B7
:102250004265642054656D703A2025456202430052
:1022600054656D702E20313A202025453002430000
:1022700045787472756465722031204F666600453A
:102280007874722E20706F736974696F6E0003F03A
:10229000030200CA23536574204F726967696E0098
:1022A000486F6D65205800486F6D65205900486F74
:1022B0006D65205A005820506F732E20466173744C
:1022C000005820506F736974696F6E005920506F09
:1022D000732E2046617374005920506F73697469BE
:1022E0006F6E005A20506F732E2046617374005A2F
:1022F00020506F736974696F6E00517569636B204C
:1023000053657474696E677300506F736974696F95
:102310006E0045787472756465720046616E207354
:1023200070656564000200000700CE23534420431B
:1023300061726400446562756767696E67000200D8
:10234000000600DC23436F6E66696775726174690D
:102350006F6E000200000800E823F8230000000070
:10236000000B2400000000001A2400000000002FD1
:10237000240000000000332400000000003C240082
:1023800000000000452400000000004E2400000072
:102390000000522400000000006324000000000040
:1023A000742400000000007524000000000079245F
:1023B0000000000000872400000000008B240000C3
:1023C0000000009C240000000000A224A924571E45
:1023D000B024B724BE24C524CC24D324571EDA2429
:1023E000E124E824EF24F624571EFD2404250B25C0
:1023F0001225192520252725052565632F254563E9
:1024000002072565422F25456202005A3A25783297
:1024100020204275663A256F42004D756C3A2025A2
:102420006F6D202020466C6F773A20256F6600255F
:102430006F7300583A257830206D6D00593A257831
:1024400031206D6D005A3A257832206D6D00256F70
:10245000730045313A2565302F25453002437E25EE
:102460006F300020423A2565622F25456202437E87
:10247000256F620000256F73005072696E74696E7B
:10248000672074696D65002555740046696C616D3F
:10249000656E74207072696E7465640025556620DF
:1024A0006D002E2500000000003725000000000010
:1024B000462504520400005725031A040800642529
:1024C000031B0400007225031C0400008025031D6B
:1024D0000400008E25031E0400009B2503C80F0086
:1024E00000AB250332040000B7250333040000C30A
:1024F000250334040000CF250335040000DB25024A
:10250000E3250000EA2502F7250000FE2502072644
:1025100000000E2602172600001E260306040000F7
:102520002E2603070400003D260250260000453AEF
:10253000257833206D6D003120636C69636B203D1D
:102540002031206D6D0046616E2073706565643AC0
:10255000254673252525005475726E2046616E2030
:102560004F6666005365742046616E20323525251E
:1025700025005365742046616E20353025252500E1
:102580005365742046616E20373525252500536537
:10259000742046616E2046756C6C00417373656DE6
:1025A000626C6520636865636B20004563686F201B
:1025B00020203A25646F00496E666F2020203A255E
:1025C0006469004572726F7273203A256465004435
:1025D00072792072756E3A2564640047656E657283
:1025E000616C0002000004005726416363656C655E
:1025F000726174696F6E0002000009005F26466513
:1026000065647261746500020000070071264578F8
:10261000747275646572000200000F007F265374A7
:102620006F726520746F20454550524F4D004C6FBE
:10263000616420662E20454550524F4D004C657612
:10264000656C696E6720617578696C696172790083
:1026500002000007009D26571EAB26B226B926575A
:102660001EC026C726CE26D526DC26E326EA26F17E
:1026700026571EF826FF2606270D2714271B275747
:102680001E22272927302737273E2745274C275347
:10269000275A27612768276F2776277D27571E37F8
:1026A0001F84278B2792279927D81FA0270410045F
:1026B0000000AD2702BE270000C52702D327000077
:1026C000DA270408040000E6270409040000F227C2
:1026D000040A040000FE27040B0400000A28040C6E
:1026E0000400001628040D0400002228040E040033
:1026F000002E28040F0400003A28041404000044AB
:102700002804150400004E2804160400005828046C
:1027100011040000632804120400006E280413044E
:102720000000792804290400008628042C040000F5
:102730009328042B0400009E28042A040000A828E3
:10274000042E040000B628044D040000C928044CDF
:10275000040000DA28042D040000E6280422040006
:1027600000F3280423040000FD28042404000007CB
:102770002904250400001529042604000023290447
:102780002F0400002F2903B10F00003B2903B20FD3
:102790000000472903B30F0000532903B40F0000C2
:1027A00042617564726174653A256F6300537465A4
:1027B0007070657220496E616374697665000320EC
:1027C0000402005F294D61782E20496E61637469AF
:1027D000766500035804020063295072696E742004
:1027E000583A256178005072696E7420593A256113
:1027F00079005072696E74205A3A25617A004D6FE3
:1028000076652058203A256158004D6F766520592D
:10281000203A256159004D6F7665205A203A25618E
:102820005A004A65726B2020203A25616A005A2DB1
:102830004A65726B203A25614A004D617820583A0A
:10284000256678004D617820593A256679004D61FA
:1028500078205A3A25667A00486F6D6520583A25E7
:10286000665800486F6D6520593A25665900486FD3
:102870006D65205A3A25665A0053746570732F4D62
:102880004D3A2553650053746172742046523A25BF
:102890005866004D61782046523A255846004163FB
:1028A00063656C3A25584100537461622E54696D1A
:1028B000653A255877005761697420556E697473BD
:1028C0003A20255855206D6D005761697420546574
:1028D0006D702E20255854024300436F6E74726F42
:1028E0006C3A2558680044542F50494420503A25EA
:1028F00058700050494420493A25586900504944CD
:1029000020443A255864004472697665204D696E0A
:102910003A25586D004472697665204D61783A25F4
:10292000584D00504944204D61783A25584400479D
:102930006F746F20506F73692E3100476F746F2072
:10294000506F73692E3200476F746F20506F736938
:102950002E3300476F746F20506F73692E340067F9
:10296000296E2975297C29832900000000009229FD
:1029700000000000009C290000000000AB290000BE
:102980000000004469732E2041667465723A25691F
:1029900073005B735D20303D4F6666004469732EA3
:1029A0002041667465723A256970005B735D203062
:1029B0003D4F66660000002100240027002A000029
:1029C000002200250028002B000000200023002604
:1029D00000290002020202020202020404040404AA
:1029E00004040403030303030303030101010101BE
:1029F00001010101020408102040800102040810B6
:102A000020408001020408102040808040201008EF
:102A100004020100000001020000000000000004A8
:102A20000307060000000000000000000000000096
:102A3000000000494E46494E4954594E414ECDCCB6
:102A4000CC3D0AD7233C17B7D13877CC2B3295959C
:102A5000E6241FB14F0A000020410000C842004098
:102A60001C4620BCBE4CCA1B0E5AAEC59D741850E5
:102A7000CA7A2C9B11241FBECFEFD0E4DEBFCDBF9E
:102A800013E0A0E0B1E0ECE5FEE901E00BBF02C01D
:102A900007900D92AC38B107D9F71BBE11E1ACE835
:102AA000B3E001C01D92A73CB107E1F71AE2C4E709
:102AB000DAE204C02297FE010E94DECECE36D107B4
:102AC000C9F70E94BAC90C942CCF0C940000CF9384
:102AD000DF93BC018230910510F462E070E0A091B8
:102AE000C311B091C411ED01E0E0F0E040E050E02E
:102AF00021C0888199818617970769F48A819B8113
:102B0000309719F09383828304C09093C41180930B
:102B1000C311FE0134C06817790738F44115510517
:102B200019F08417950708F4AC01FE018A819B8196
:102B30009C01E9012097E9F641155105A9F1CA0167
:102B4000861B970B049708F4BA01E0E0F0E02AC076
:102B50008D919C91119784179507F9F46417750767
:102B600081F412968D919C911397309719F093836D
:102B7000828304C09093C4118093C311FD013296E7
:102B80004CC0CA01861B970BFD01E80FF91F61932A
:102B9000719302978D939C9340C0FD018281938134
:102BA0009C01D9011097A1F68091C1119091C21199
:102BB000892B41F480913E0290913F029093C21183
:102BC0008093C1114091400250914102411551053D
:102BD00041F44DB75EB780913C0290913D02481B95
:102BE000590B2091C1113091C211CA01821B930B64
:102BF0008617970780F0AB014E5F5F4F84179507EC
:102C000050F0420F531F5093C2114093C111F9016C
:102C10006193719302C0E0E0F0E0CF01DF91CF91CA
:102C20000895CF93DF93009709F450C0EC012297E9
:102C30001B821A82A091C311B091C411109709F19F
:102C400040E050E0AC17BD0708F1BB83AA83FE014A
:102C500021913191E20FF31FAE17BF0779F48D91E7
:102C60009C911197280F391F2E5F3F4F398328837E
:102C700012968D919C9113979B838A8341155105E0
:102C800071F4D093C411C093C31120C012968D91DA
:102C90009C911397AD01009711F0DC01D3CFFA019D
:102CA000D383C28321913191E20FF31FCE17DF0747
:102CB00069F488819981280F391F2E5F3F4FFA01EF
:102CC000318320838A819B8193838283DF91CF919B
:102CD0000895A0E0B0E0EFE6F6E10C94FBCEEC0145
:102CE0005B016115710519F0FB0191838083F990F7
:102CF0008F2D90E00E94E2CE892BC9F7FDE2FF16EE
:102D000021F4F990EE24E39405C02BE2F21609F4C5
:102D1000F990EE248E0101501040C80163E37AE27D
:102D200043E050E00E94F818892B01F58E010E5FF8
:102D30001F4FC80166E37AE245E050E00E94F818B0
:102D4000892B19F48E01095F1F4FA114B10419F0EA
:102D5000F50111830083E0FC04C070E090E080E89E
:102D600014C070E090E080E86FEF08C1C8016BE329
:102D70007AE243E050E00E94F818892B69F4A1142C
:102D8000B10429F470E090E080EC6FE7F7C0229680
:102D9000F501D183C083F6CF8824992440E050E028
:102DA00060E070E0EF2DE053EA30A0F5F2E0EF2AAA
:102DB0008E2D90E09C0128703070E2FE06C0232B1F
:102DC00079F50894811C911C2BC0232B19F00894D1
:102DD00081089108DB01CA0112E0880F991FAA1F20
:102DE000BB1F1A95D1F7480F591F6A1F7B1F440F4D
:102DF000551F661F771F4E0F511D611D711D4839EC
:102E000029E9520729E9620729E1720748F084E0BD
:102E1000E82A06C0EE3F31F4E3FC39C098E0E92A25
:102E2000F990C0CFE53311F0E53189F529912D32C4
:102E300019F4E0E1EE2A05C02B3219F081E090E0B0
:102E400003C0299182E090E0E22FE053EA3018F0CD
:102E5000C81BD90B1CC020E030E0FCE020383F0745
:102E60005CF4C901880F991F880F991F280F391F1B
:102E7000220F331F2E0F311DE991E053EA3068F322
:102E8000E4FE03C0309521953F4F820E931ECE2C59
:102E9000DD24E1FE07C0A114B10421F02197F50162
:102EA000D183C083CB01BA010E945ACB7B018C0134
:102EB000F3E0CF22DD2423E0C216D10421F417FB76
:102EC000109517F9109557016801C801B70120E066
:102ED00030E040E050E00E94BACA882309F44AC0BA
:102EE00097FE0DC022E5E22E2AE2F22E9094819404
:102EF00091089394C0E2D0E000E010E012C09AE69E
:102F0000E92E9AE2F92EF6CFF701259135914591F8
:102F10005491C601B5010E946ACD5B016C018C1A07
:102F20009D0A8C169D0684F7D595C7950F5F1F4F98
:102F30000630110529F08CEF9FEFE80EF91EF1CF56
:102F4000C501D6017C018D018C2D880F8D2D881F28
:102F50008F3F51F0C601B50120E030E040E050E085
:102F60000E94BACA882331F482E290E09093C6119D
:102F70008093C5117E2D9F2D802F612F272F392FF4
:102F8000482F562FB901CA01CDB7DEB7ECE00C943B
:102F900017CF2F923F925F926F927F928F929F9264
:102FA000AF92BF92CF92DF92EF92FF920F931F9357
:102FB000CF93DF938C011B01EA016115710519F0B4
:102FC000FB0191838083209749F0CE01029783977C
:102FD00028F020E030E040E050E0F6C0F801A19099
:102FE0008F018A2D90E00E94E2CE892BB9F7FDE295
:102FF000AF1631F4F801A1908F015524539407C006
:10300000FBE2AF1619F4F801A1908F015524209727
:1030100019F0C031D105C1F4F0E3AF1679F4F8012D
:103020008081883711F0883549F4F801A1800E5F5E
:103030001F4FF2E05F2AC0E1D0E006C0209721F4E4
:1030400080E3A816E9F427C0C830D10531F1C930B2
:10305000D10524F4C230D10531F50CC0CA30D105F8
:1030600089F0C031D105F9F4C12CD12CE12CB8E0A4
:10307000FB2E28C0C12CD12CE12CA0E4FA2E22C0BA
:10308000CAE0D0E0FCECCF2EFCECDF2EFCECEF2E07
:10309000FCE0FF2E17C0C8E0D0E0C12CD12CE12C01
:1030A000E0E1FE2E0FC09E01442737FD4095542FCE
:1030B00060E070E080E090E80E9493CEC901DA0100
:1030C0006C017D0120E030E040E050E060E03E0136
:1030D000882477FC8094982C70EDB72EBA0CE9E028
:1030E000EB1570F48A2D81548A3118F499ECB92EBD
:1030F00006C08A2D81568A3150F589EAB82EBA0C5D
:103100008B2D90E08C179D0714F56F3FE1F0C216F0
:10311000D306E406F506B0F0CA01B901A401930193
:103120000E9440CE9B01AC012B0D311D411D511D54
:103130002130F0E03F07F0E04F07F0E85F0710F4C0
:1031400061E001C06FEFF801A1908F01C5CF21149C
:10315000310481F0662331F001501040F1011183F8
:10316000008308C051FE1AC002501040F1011183C3
:10317000008314C067FF12C050FC05C02FEF3FEF63
:103180004FEF5FE704C020E030E040E050E882E22B
:1031900090E09093C6118093C51116C050FE08C0F0
:1031A00050954095309521953F4F4F4F5F4F0CC044
:1031B00057FF0AC082E290E09093C6118093C51138
:1031C0002FEF3FEF4FEF5FE7B901CA01DF91CF91DA
:1031D0001F910F91FF90EF90DF90CF90BF90AF9035
:1031E0009F908F907F906F905F903F902F90089569
:1031F000FB01DC014150504088F08D9181341CF07E
:103200008B350CF4805E659161341CF06B350CF4E9
:10321000605E861B611171F3990B0895881BFCCFCA
:10322000FB01DC0102C001900D9241505040D8F7E3
:103230000895FB01DC010D900020E9F71197019042
:103240000D920020E1F70895FC018191861721F08D
:103250008823D9F7992708953197CF010895FB0165
:10326000DC018D91019080190110D9F3990B08951B
:10327000FB01DC0101900D920020E1F70895FB01B4
:10328000DC014150504048F001900D920020C9F7F8
:1032900001C01D9241505040E0F70895FC0181E0CB
:1032A00090E00190061609F4CF010020D1F70197B4
:1032B0000895A0E0B0E0EFE5F9E10C94FFCE7C01C9
:1032C000EB018A01690109C0CE012196F601099539
:1032D000F70181937F010150104001151105A1F7FD
:1032E000CDB7DEB7E8E00C941BCFBF92CF92DF9250
:1032F000EF92FF920F931F937B018C01FB010995C5
:10330000B82EC8010196F7010995C82EC80102968A
:10331000F7010995D82EC8010396F7010995982F52
:103320006B2D7C2D8D2D1F910F91FF90EF90DF90D5
:10333000CF90BF900895DF92EF92FF920F931F936B
:103340007B018C01FB010995D82EC8010196F7017C
:103350000995982F8D2D1F910F91FF90EF90DF9081
:103360000895A0E0B0E0E7EBF9E10C94FFCEEC01AA
:103370007B018A01690109C0CE012196F7016191A3
:103380007F01F60109950150104001151105A1F7C3
:10339000CDB7DEB7E8E00C941BCFBF92CF92DF929F
:1033A000EF92FF920F931F93D52EC62EB72E790161
:1033B0008C01642FF9010995C80101966D2DF70163
:1033C0000995C80102966C2DF7010995C80103966D
:1033D0006B2DF70109951F910F91FF90EF90DF90F2
:1033E000CF90BF900895DF92EF92FF920F931F93BB
:1033F000D72E7A018C01FA010995C80101966D2D2D
:10340000F70109951F910F91FF90EF90DF900895BC
:103410009C01F999FECF32BD21BDF89A80B508957F
:10342000089560914202709143028091440290910C
:1034300045026817790744F470934502609344028B
:1034400087EE93E00E94902B0895BC01893191058D
:103450001CF469E170E005C0893C910514F068EC4A
:1034600070E07093770D6093760D85E394E00E9491
:10347000902B0895EF92FF920F931F93CF93DF93BA
:10348000EC01893191051CF4C9E1D0E006C081E06E
:10349000C53FD80714F0C4EFD1E0BE01882777FDFF
:1034A0008095982F0E945CCB7B018C016091740DFC
:1034B0007091750D882777FD8095982F0E945CCBC1
:1034C0009B01AC01C801B7010E94C1CA9B01AC01BC
:1034D0006091700D7091710D8091720D9091730DCE
:1034E0000E946ACD6093700D7093710D8093720D80
:1034F0009093730DD093750DC093740D86E294E094
:10350000BE010E94902BDF91CF911F910F91FF90F0
:10351000EF9008950E94CB519C01809142029091BE
:1035200043022817390724F43093430220934202C0
:1035300008950E94684E08952F923F924F925F9295
:103540006F927F928F929F92AF92BF92CF92DF92B3
:10355000EF92FF920F931F93DF93CF93CDB7DEB718
:1035600028970FB6F894DEBF0FBECDBFA090F50C24
:10357000B090F60CC090F70CD090F80C2090F90C9D
:103580003090FA0C4090FB0C5090FC0C8091FD0C9C
:103590009091FE0CA091FF0CB091000D89839A834D
:1035A000AB83BC8320911D0D30911E0D40911F0DEA
:1035B0005091200D6090210D7090220D8090230D70
:1035C0009090240D8091250D9091260DA091270DAE
:1035D000B091280D8D839E83AF83B8878091B10C05
:1035E000882359F40F2EF0E0EF2EF0E0FF2EF0E8E4
:1035F0000F2FFFE31F2FF02D0AC00F2EF0E7EF2E45
:10360000F2E4FF2EF1E20F2FFDE31F2FF02DC60194
:10361000B5010E94F4C9A80197010E946ACDAB01CF
:10362000BC0181EF93E022E00E94CB2C8091B10C91
:10363000882359F40F2EF0E0EF2EF0E0FF2EF0E893
:103640000F2FFFE31F2FF02D0AC00F2EF0E7EF2EF4
:10365000F2E4FF2EF1E20F2FFDE31F2FF02DC20148
:10366000B101A40193010E94F4C9A80197010E942D
:103670006ACDAB01BC0188EF93E022E00E94CB2C25
:103680008091B10C882359F40F2EF0E0EF2EF0E07A
:10369000FF2EF0E80F2FFFE31F2FF02D0AC00F2E93
:1036A000F0E7EF2EF2E4FF2EF1E20F2FFDE31F2FE4
:1036B000F02D69817A818B819C812D813E814F81A2
:1036C00058850E94F4C9A80197010E946ACDAB01F8
:1036D000BC018CEF93E022E00E94CB2C2091F10CF6
:1036E0003091F20C4091F30C5091F40CA090BE0C70
:1036F000B090BF0CC090C00CD090C10C8091B10CA8
:10370000882359F40F2EF0E0EF2EF0E0FF2EF0E8C2
:103710000F2FFFE31F2FF02D0AC00F2EF0E7EF2E23
:10372000F2E4FF2EF1E20F2FFDE31F2FF02DCA016F
:10373000B9010E945CCBA60195010E946ACDA80147
:1037400097010E946ACDAB01BC0180E094E022E0C9
:103750000E94E02C28960FB6F894DEBF0FBECDBFB6
:10376000CF91DF911F910F91FF90EF90DF90CF905D
:10377000BF90AF909F908F907F906F905F904F9091
:103780003F902F9008950F931F930DE415E0C8010B
:103790006DE00E94E74FC8016AE00E94E74F1F9169
:1037A0000F9108956F927F928F929F92AF92BF92E6
:1037B000CF92DF92EF92FF920F931F93DF93CF93FD
:1037C00000D000D0CDB7DEB760918E0D70918F0D17
:1037D0008091900D9091910D2FE632E143E85AE3EC
:1037E0000E946ACD7B018C01CE01019661E870E0F8
:1037F00044E050E028E03AE10E945919C801B701BD
:1038000029813A814B815C810E94F4C9AB01BC01E2
:103810008DE494E022E00E94CB2C8EE694E00E949E
:103820006D2BE091F602F091F70263857485858532
:10383000968520E030E040E751E40E94C8CC18169D
:103840000CF47AC06624772443018DE790E068E0A9
:103850007AE10E9475197B018C01E60CF71C081DAA
:10386000191DC801B70120E831E541E050E00E9490
:10387000B5CE922E832E742E652E622F732F842F39
:10388000952F20E83EEA4EEF5FEF0E9440CE5B01AD
:103890006C01AE0CBF1CC01ED11E8FE594E0492DFB
:1038A000582D672D762D0E94B72BC601B50120E15A
:1038B0003EE040E050E00E94B5CE122F032FF42EE0
:1038C000E52E81E794E0422F502F6F2D7E2D0E9430
:1038D000B72B612F702F8F2D9E2D20EF31EF4FEFE3
:1038E0005FEF0E9440CEA60EB71EC81ED91EC601AD
:1038F000B5012CE330E040E050E00E94B5CE88E70F
:1039000094E0BA01A9010E94B72B80E894E00E94DC
:10391000F42B0F900F900F900F90CF91DF911F918C
:103920000F91FF90EF90DF90CF90BF90AF909F905E
:103930008F907F906F9008950E94D3C720918A0D39
:1039400030918B0D40918C0D50918D0D621B730B3E
:10395000840B950B28EE33E040E050E00E9493CEBC
:10396000C901DA013C014D0170CF1F93182FE0917E
:103970009F03F091A00344A555A566A577A584E013
:1039800094E022E00E94CB2CE0919F03F091A003F1
:1039900040A951A962A973A983E294E020E00E94A2
:1039A000CB2C0E944639AB01BC0187E094E022E0B9
:1039B0000E94CB2C4091C0025091C1026091C20282
:1039C0007091C30283E294E020E00E94CB2C11238B
:1039D00091F08AE194E061E070E00E94C82B6CEF06
:1039E0007FE08091B8029091B902681B790B8FE15A
:1039F00094E00E94C82BE091B502F0E0EE58FA4F37
:103A0000608185E194E070E00E94C82BE09148025B
:103A1000EF3F29F4E0919F03F091A003E081F0E0F3
:103A2000EE58FA4F60818BE094E070E00E94C82B62
:103A30000E94C31B1F91089580918E038823C1F0BB
:103A400010928E030E9456428091470281508093CB
:103A50004702882349F480914602833010F40E9483
:103A6000183C85E08093470288E990E10E94E9C410
:103A7000089508C00E944D4B0E941C1D88E990E1EA
:103A80000E942B9B8091AB0C8823A1F70895CF93C4
:103A9000DF9397FD10C0EC018F3F910521F01CF0E2
:103AA000CFEFD0E002C0009731F080912B0D8860FD
:103AB00080932B0D07C080912B0D877F80932B0D5A
:103AC000C0E0D0E0662311F00E94391D8091750599
:103AD00090E0C817D90729F083E494E0BE010E9462
:103AE000902BC0937505DF91CF9108952F923F924F
:103AF0004F925F926F927F928F929F92AF92BF92FE
:103B0000CF92DF92EF92FF920F931F93DF93CF93A9
:103B1000CDB7DEB7E0970FB6F894DEBF0FBECDBFCE
:103B20006C0180915103282F84FF19C0D6018C911C
:103B300082FD09C081FF13C016968D919C91179745
:103B40008F36910561F00E94D3C760936A05709328
:103B50006B0580936C0590936D050C946B2AF601B0
:103B60000081118102FF75C38085918584319105A3
:103B700009F42DC28531910558F48430910520F463
:103B8000029708F040C020C0049709F056C3E1C175
:103B90008A35910509F465C28B35910540F485316C
:103BA000910509F418C24C9709F047C317C28C3528
:103BB000910509F45DC28C35910508F455C28C3924
:103BC000910509F03AC30EC312FF12C0F601878DAA
:103BD00090A1A1A1B2A120912A0D0097A105B10544
:103BE00019F0822F806202C0822F8F7D80932A0D70
:103BF000C6010E94BE70882309F41FC381E061E002
:103C00000E941D671AC38091F50C9091F60CA0914B
:103C1000F70CB091F80C89879A87AB87BC878091A5
:103C2000F90C9091FA0CA091FB0CB091FC0C8D87D3
:103C30009E87AF87B88B8091FD0C9091FE0CA09170
:103C4000FF0CB091000D898B9A8BAB8BBC8BC6019E
:103C50000E94BE70882309F4F0C2FE01319688E00C
:103C6000DF011D928A95E9F7F601828180FD05C08A
:103C700020E030E040E050E007C0D60197962D915B
:103C80003D914D915C919A978091B10C882351F0B0
:103C9000CA01B90123E333E34BEC51E40E946ACD3E
:103CA0009B01AC0129833A834B835C83F6018281BB
:103CB00081FD05C020E030E040E050E007C0D601C3
:103CC0009B962D913D914D915C919E978091B10C69
:103CD000882351F0CA01B90123E333E34BEC51E4EB
:103CE0000E946ACD9B01AC012D833E834F83588790
:103CF000FE01759680E1DF011D928A95E9F78091BA
:103D0000F50C9091F60CA091F70CB091F80C8D8BFE
:103D10009E8BAF8BB88F8091F90C9091FA0CA0918B
:103D2000FB0CB091FC0C898F9A8FAB8FBC8F80916C
:103D3000FD0C9091FE0CA091FF0CB091000D8D8FA9
:103D40009E8FAF8FB8A36091190D70911A0D80915D
:103D50001B0D90911C0D0E945CCB2091BE0C3091EC
:103D6000BF0C4091C00C5091C10C0E946ACD69A358
:103D70007AA38BA39CA3F601828182FFC7C087A48C
:103D800090A8A1A8B2A88091B10C882351F0C501D8
:103D9000B40123E333E34BEC51E40E946ACD4B01C1
:103DA0005C016D897E898F89988D29853A854B853F
:103DB0005C850E94F3C96DA77EA78FA798AB698D1C
:103DC0007A8D8B8D9C8D2D853E854F8558890E94DF
:103DD000F3C92B013C01C501B40120E030E040E80B
:103DE00050E40E946ACDA50194010E946ACD7B0136
:103DF0008C016DA57EA58FA598A99B01AC010E94A1
:103E00006ACD9B01AC01C801B7010E94F3C97B01D7
:103E10008C01C301B201A30192010E946ACD9B01F2
:103E2000AC01C801B7010E94F3C90E94D7CD7B0144
:103E30008C016DA57EA58FA598A9A30192010E9472
:103E4000D5CC9B01AC0117FB109517F91095C80153
:103E5000B7010E94C1CA7B018C01A80197010E9491
:103E600024CE882329F085E894E00E94F92BE5C14F
:103E7000D60118968D919C911997039721F417FB01
:103E8000109517F91095C501B40120E030E040E02D
:103E900050E00E94BACA882344F417FB109517F922
:103EA0001095B7FAB094B7F8B094C301B201A80165
:103EB00097010E946ACD9B01AC016DA57EA58FA5DF
:103EC00098A90E94F3C920E030E040E05FE30E943F
:103ED0006ACD69837A838B839C836DA57EA58FA52C
:103EE00098A9A80197010E946ACD9B01AC01C3016A
:103EF000B2010E94F4C920E030E040E05FE30E949C
:103F00006ACD6D837E838F8398870CC069817A81A7
:103F10008B819C812D813E814F8158850E94D5CC1B
:103F20004B015C01E0E0D60118968D919C911997A8
:103F3000029709F4E1E0CE010996BE016B5E7F4F66
:103F4000AE014F5F5F4F95018401EE2E0E94C8576E
:103F500074C10E94391DF6018081918193FD04C0D6
:103F6000EE24FF24870107C0D6019396ED90FD90C3
:103F70000D911C91969792FF0DC0F601678D70A16F
:103F800081A192A128EE33E040E050E00E9440CEB3
:103F90007B018C010E94D3C75B016C01AE0CBF1C7E
:103FA000C01ED11E04C00E944D4B0E941C1D0E94C9
:103FB000D3C7A6019501261B370B480B590BDA0115
:103FC000C90180509449A543B74768F336C181E0E1
:103FD0008093B10C32C11092B10C2FC1C80188730B
:103FE0009070892B11F080E008C0C80156E09695CA
:103FF00087955A95E1F78095817006FF08C0109269
:10400000F10C1092F20C1092F30C1092F40C882325
:1040100021F041E051E061E01DC0D6012D913C91BD
:10402000C90188739070892BC1F0C90143E096954E
:1040300087954A95E1F7582F5170C90134E096955C
:1040400087953A95E1F7682F617025FD02C040E041
:1040500001C041E0852F0E94727580E00E941C6CB7
:10406000ECC01092E30CE9C081E08093E30CE5C062
:10407000A0901D0DB0901E0DE0901F0DF090200D32
:104080006090210D7090220D8090230D9090240D52
:104090002090250D3090260D4090270D5090280D32
:1040A00003FF21C0F6012285338544855585809123
:1040B000B10C882351F0CA01B90123E333E34BEC7F
:1040C00051E40E946ACD9B01AC01CA01B901209163
:1040D000F50C3091F60C4091F70C5091F80C0E94C1
:1040E000F3C95B017C0104FF23C0D6011E962D910C
:1040F0003D914D915C9151978091B10C882351F085
:10410000CA01B90123E333E34BEC51E40E946ACDC9
:104110009B01AC01CA01B9012091F90C3091FA0C54
:104120004091FB0C5091FC0C0E94F3C93B014C01E7
:1041300005FF21C0F6012289338944895589809180
:10414000B10C882351F0CA01B90123E333E34BECEE
:1041500051E40E946ACD9B01AC01CA01B9012091D2
:10416000FD0C3091FE0C4091FF0C5091000D0E940F
:10417000F3C91B012C01B501C7019301A401710111
:1041800082010E94FB6BD6018C9186FF56C0569629
:104190002D913D914D915C9159978091B10C88235F
:1041A00051F0CA01B90123E333E34BEC51E40E941F
:1041B0006ACD9B01AC01CA01B90120911103309174
:1041C000120340911303509114030E946ACD0E9480
:1041D00029CB6093F10C7093F20C8093F30C9093C5
:1041E000F40C2BC080E061E040E00E94727500D0CA
:1041F00000D02091600D3091610D4091620D509181
:10420000630D8091290390912A03A0912B03B09113
:104210002C03EDB7FEB781839283A383B48360E858
:104220007FE483EC97E47B018C015B016C010E94CD
:104230002B740F900F900F900F900E94D3C7609334
:104240006A0570936B0580936C0590936D050C94D3
:104250006B2A01FD02C00C94592AD60116968D9145
:104260009C9117978237910509F4D8C68337910539
:1042700008F081C08A32910509F48DC18B32910515
:10428000C8F58931910509F432C18A319105C8F424
:104290008631910509F40AC18731910548F48431CA
:1042A000910509F4F7C0459711F00C946B2AF8C0FA
:1042B0008731910509F400C1489711F00C946B2ADD
:1042C00010C18C31910509F43AC18D31910548F442
:1042D0008A31910509F412C14B9711F00C946B2AA5
:1042E00029C18E31910509F436C1809711F00C94E3
:1042F0006B2A40C18336910509F436C68436910590
:10430000D8F48435910509F4A9C58535910550F493
:104310008235910509F49BC58335910511F00C9404
:104320006B2A98C58535910509F4B4C58C3591057E
:1043300011F00C946B2ACFC58A36910509F46BC530
:104340008B36910550F48836910509F46CC1893695
:10435000910511F00C946B2A16C28D36910509F463
:104360001CC28F36910509F43FC68B36910511F0BA
:104370000C946B2A62C58F3C910509F47BC7803D84
:104380009105E0F58E3B910509F4F8C38F3B91054B
:10439000D8F48537910509F444C68637910550F461
:1043A0008337910509F433C68437910511F00C94D5
:1043B0006B2A8CC48737910509F444C68C38910563
:1043C00011F00C946B2AA5C18B3C910509F4F2C63F
:1043D0008C3C910550F4893C910509F45FC68A3CF8
:1043E000910511F00C946B2A9FC68D3C910509F440
:1043F0003AC78E3C910508F039C7EFC6B1E0813964
:104400009B0709F4ABC7E1E082399E07F8F4F1E0BD
:104410008F329F0709F4CBC421E08033920750F418
:104420008C3D910509F475C78D3D910511F00C94F3
:104430006B2A81C731E08E35930711F40C94FD2966
:104440008059914011F00C946B2A85C751E0843F4C
:10445000950709F4B9C7A1E0853F9A0758F4B1E080
:1044600082399B0709F47DC78C5B914011F00C9455
:104470006B2AC8C7F1E0863F9F0709F4BBC721E05C
:10448000863F920708F4A8C7875F914011F00C940B
:104490006B2AE9C68CEF9DE00E94557C0C946B2A38
:1044A0008CEF9DE00E94CC7F0C946B2A8CEF9DE0FA
:1044B0000E948B7A0C946B2A17FD02C00C946B2A15
:1044C0008CEF9DE060E00E94E78AD601D3966D9163
:1044D0007C91D4978CEF9DE040E00E94BE7B0C94D1
:1044E0006B2A8CEF9DE00E94A37A0C946B2A8CEFD0
:1044F0009DE060E00E94147F0C946B2A12FD02C0C4
:104500000C946B2AF601478D50A161A172A1809194
:10451000660E882311F40C946B2A40935D0E509321
:104520005E0E60935F0E7093600E8CE39EE00E94BF
:104530007888D1C78CEF9DE00E94997BCCC717FF8C
:10454000CAC7D601D3966D917C91D4978CEF9DE02C
:104550000E945A7BC0C717FFBEC78CEF9DE060E08A
:104560000E94E78AF60163A974A98CEF9DE00E947E
:104570000B7BB1C717FFAFC78CEF9DE060E00E94D7
:10458000E78AD601D3966D917C91D4978CEF9DE00C
:104590000E94CF7AA0C712FF9EC713FF9CC7F601E7
:1045A000878D90A1A1A1B2A1B7FD95C78F3F9105BD
:1045B000A105B10511F00CF08EC703A114A120E0F4
:1045C00030E0F901EE0FFF1FE155FE4FE4918E2F11
:1045D00090E08017910709F47EC72F5F3F4F283383
:1045E000310579F717FD77C7802F61E00E940AC96E
:1045F000802FD6015F966C910E9487C9F601678D66
:1046000070A1802F0E948CC880EB94E0B8010E94BA
:10461000C82BD6015F966D917C9190978CEB94E0BE
:104620000E94902B58C70E94CA3B882309F053C7A9
:104630000E94D3C760936A0570936B0580936C05E5
:1046400090936D058091510383FD45C7F6018081EC
:10465000918193FD0AC092FF0AC0878D90A1A1A10C
:10466000B2A10097A105B10511F40E94391DD60130
:104670008D919C91119792FF2EC75F968D909D9082
:10468000AD90BC9092979C012070317091FF1EC03C
:104690005E960C91232B11F410E00FC010E0F60190
:1046A000628D738D848D958D20E030E040E050E088
:1046B0000E94C8CC18160CF411E0C501B4010E9488
:1046C0005CCB402F212F0E94174005C7E0919F032C
:1046D000F091A0030081232B11F410E011C010E031
:1046E000D6015A966D917D918D919C915D9720E0B8
:1046F00030E040E050E00E94C8CC18160CF411E005
:10470000C501B4010E945CCB402F212F0E941740AD
:10471000E2C60E94CA3B882309F0DDC60E94D3C7C7
:1047200060936A0570936B0580936C0590936D059B
:104730008091510383FDCFC6F6018081918192FF64
:10474000CAC6E78CF0A001A112A190FD02C0BB2453
:1047500012C0BB24D6015A966D917D918D919C918A
:104760005D9720E030E040E050E00E94C8CC181691
:1047700014F4BB24B394C801B7010E945CCB4B2D49
:104780000E94533CA8C683E0169507958A95E1F7E9
:10479000802F81700E94B51C9EC60E94CA3B882350
:1047A00009F099C60E94D3C760936A0570936B05A0
:1047B00080936C0590936D058091510383FD8BC6AA
:1047C00088E990E165E072E040E00E94319A88E972
:1047D00090E10E94C5B70E94391D80909F03909080
:1047E000A003F6012081318131FF07C0868D882327
:1047F00021F419E4812E12E0912E32FF27C0D60158
:104800005F96ED90FD900D911C919297F401A08020
:1048100030FD02C0BB2412C0BB24D6015A966D9154
:104820007D918D919C915D9720E030E040E050E0DB
:104830000E94C8CC181614F4BB24B394C801B70165
:104840000E945CCB4A2D2B2D0E941740F40164A5D9
:1048500075A586A597A520A931A942A953A90E94AB
:10486000F3C97B018C0120E030E040E050E00E9481
:10487000C8CC18165CF4C801B70120E030E040E075
:1048800050E40E94BACA882364F425C6C801B7015F
:1048900020E030E040E050EC0E94C8CC18160CF448
:1048A0001AC63324D4019A962D913C919B979896E1
:1048B0008D919C9199978217930714F43324339424
:1048C0000E94D3C769A77AA78BA79CA74424552425
:1048D000320110E00E94D3C76DA37EA38FA398A7D7
:1048E000DC01CB0129A53AA54BA55CA5821B930B46
:1048F000A40BB50B895E9340A040B04058F080E017
:104900000E94B51C8DA19EA1AFA1B8A589A79AA7A9
:10491000ABA7BCA70E941C1D80919F039091A00390
:104920008816990609F067C0D4019396ED90FC9023
:1049300094971E141F040CF05EC0112309F05BC095
:10494000332009F458C091966D917C9192978827F5
:1049500077FD8095982F0E945CCB9B01AC01F40100
:1049600064A575A586A597A50E94C8CC18160CF05D
:1049700042C000D000D000D00DB71EB70F5F1F4F50
:10498000662777276E197F09882777FD8095982FEE
:104990000E945CCB209111033091120340911303CC
:1049A000509114030E946ACD0E9429CB5B016C01D7
:1049B000F40187859089A189B289F8018083918368
:1049C000A283B3831482158260E070E080E090E0FF
:1049D00020E030E040E050E0EE24FF2487010E9418
:1049E000F66A11E02DB73EB72A5F3F4F0FB6F89435
:1049F0003EBF0FBE2DBF411451046104710409F084
:104A000053C03320C9F0D401D0966D917D918D9122
:104A10009C91D39720E030E040E85FE30E94F3C927
:104A20009B01AC01F40164A575A586A597A50E941C
:104A3000C8CC87FF1AC04ECFD401D0966D917D911E
:104A40008D919C91D39720E030E040E85FE30E9495
:104A5000F4C99B01AC01F40164A575A586A597A5D1
:104A60000E94BACA18160CF435CFD4015F966D9126
:104A70007C919097882777FD8095982F28EE33E0DA
:104A800040E050E00E9440CE2B013C012DA13EA110
:104A90004FA158A5420E531E641E751E41145104A9
:104AA0006104710409F416CFD301C2012DA13EA106
:104AB0004FA158A5821B930BA40BB50B80509449B2
:104AC000A543B74708F406CF112309F44AC08091E3
:104AD0009F039091A0038816990609F042C000D068
:104AE00000D000D00DB71EB70F5F1F4FD4019396B3
:104AF0006D917C919497882777FD8095982F0E94DF
:104B00005CCB20911103309112034091130350911B
:104B100014030E946ACD0E9429CB5B016C01F40151
:104B200087859089A189B289F80180839183A283C6
:104B3000B3831482158260E070E080E090E020E0B2
:104B400030E040E050E0EE24FF2487010E94F66A46
:104B50002DB73EB72A5F3F4F0FB6F8943EBF0FBE4A
:104B60002DBF1092D8100E94D3C760936A0570932E
:104B70006B0580936C0590936D05ADC423FDABC4AC
:104B800088E990E169EF71E040E00E94319A88E99C
:104B900090E10E94C5B70E94391DD6018D919C916C
:104BA000119792FF21C05F96ED90FD900D911C91A1
:104BB000929790FD02C0BB2410C0BB24F601628D09
:104BC000738D848D958D20E030E040E050E00E94B0
:104BD000C8CC181614F4BB24B394C801B7010E94C2
:104BE0005CCB4B2D0E94533C6091BC027091BD0286
:104BF0008091BE029091BF022091C0023091C1020B
:104C00004091C2025091C3020E94F3C97B018C0102
:104C100020E030E040E050E00E94C8CC18165CF480
:104C2000C801B70120E030E040E450E40E94BACA75
:104C3000882364F450C4C801B70120E030E040E4A8
:104C400050EC0E94C8CC18160CF445C40E94D3C77F
:104C50007B018C0114C00E94D3C76E197F09800BA1
:104C6000910B695E73408040904038F080E00E9474
:104C7000B51C0E94D3C77B018C010E941C1D609152
:104C8000BC027091BD028091BE029091BF0220E0F3
:104C900030E040E05FE30E94F4C92091C00230910F
:104CA000C1024091C2025091C3020E94BACA87FD5C
:104CB000D2CF1092D8100E94D3C760936A05709328
:104CC0006B0580936C0590936D0505C423FD03C4AB
:104CD0000E94D3C74B015C010E94D3C768197909B0
:104CE0008A099B09695E73408040904038F080E0FB
:104CF0000E94B51C0E94D3C74B015C010E941C1D81
:104D0000C090F602D090F702D6011B96ED90FD9070
:104D10000D911C911E97C801B70120E030E040EFD3
:104D200051E40E94C8CC1816A4F4C801B701F601DA
:104D300027813085418552850E94F3C99F7720E005
:104D400030E040E85FE30E94C8CC181614F47724E2
:104D500002C077247394C090F802D090F902D60173
:104D60001B96ED90FD900D911C911E97C801B70107
:104D700020E030E040EF51E40E94C8CC18169CF4CB
:104D8000C801B701F60127813085418552850E940F
:104D9000F3C99F7720E030E040E85FE30E94C8CC91
:104DA00018160CF499CF772009F496CF94C312FD0E
:104DB00003C026E930E005C0D6015F962D913C91F5
:104DC000909713FD03C0CC24DD240AC0F601C3A0D4
:104DD000D4A0F2E0CF16D1041CF0B2E0CB2ED12C3F
:104DE000F601EE0FFF1FEA50FD4FE080F180B901A0
:104DF000882777FD8095982F0E945CCBAB01BC0182
:104E0000E3E016950795EA95E1F70170C7012C2DAF
:104E10000E94BA3C60C312FD03C08FEF90E005C052
:104E2000D6015F968D919C919097612F66956695BE
:104E3000669561700E94471D4EC3612F6695669509
:104E40006695617080E090E00E94471D44C3109217
:104E5000E40C41C381E08093E40C3DC312FF14C015
:104E6000F601678D70A181A192A128EE33E040E0A8
:104E700050E00E9440CE6093FB027093FC0280934E
:104E8000FD029093FE0227C30E94391D81E00E941B
:104E9000B57621C312FF16C0D6015F966D917D9144
:104EA0008D919C91929728EE33E040E050E00E9473
:104EB00040CE60936E0570936F058093700590935C
:104EC000710509C310926E0510926F05109270055E
:104ED0001092710500C303FF0DC0F6018285938512
:104EE000A485B5858093050390930603A0930703DB
:104EF000B0930803D6018C9184FF0EC01E968D914D
:104F00009D910D90BC91A02D8093090390930A036D
:104F1000A0930B03B0930C03F601808185FF0CC0B6
:104F200082899389A489B58980930D0390930E0398
:104F3000A0930F03B09310030E945F77D6018C916A
:104F400086FFC9C2E0919F03F091A00356962D9170
:104F50003D914D915C9159972187328743875487C2
:104F600080810E94DD40B7C212FD07C040E1842E5F
:104F700047E2942EA12CB12C0DC0F601678D70A1D3
:104F800081A192A128EE33E040E050E00E9440CEA3
:104F90004B015C0103FD5E9A04FD5E9A05FD159AC6
:104FA0000E94D3C77B018C01E80CF91C0A1D1B1D54
:104FB00002C00E9403770E94D3C7A8019701261B55
:104FC000370B480B590BDA01C901805A9648A140AA
:104FD000B04078F3D6013C9133FD5E9834FD5E9885
:104FE00035FF79C2159877C212FF04C0F601878D8C
:104FF000809351038091510383FF6DC260E070E0A4
:1050000080E090E040E020E00E94174064C286E12A
:1050100092E00E94F42B0E94D21B5DC20E949C1A57
:105020005AC217FF58C2D601D3966D917C91D4977E
:1050300088E990E140E00E945D9A88E990E10E9451
:10504000C5B749C20E94391D87EC94E00E946D2BC0
:10505000329B03C084EC94E002C081EC94E00E9497
:105060006D2B85ED94E00E946D2B339B03C084EC87
:1050700094E002C081EC94E00E946D2B83EE94E0FA
:105080000E946D2B349B03C084EC94E002C081EC41
:1050900094E00E946D2B0E94C31B1DC203FF0DC034
:1050A000F60182859385A485B5858093310390931D
:1050B0003203A0933303B0933403D6018C9184FF61
:1050C0000EC01E968D919D910D90BC91A02D809348
:1050D000350390933603A0933703B0933803F6015A
:1050E000808185FF0CC082899389A489B5898093CA
:1050F000390390933A03A0933B03B0933C03D6014A
:105100008C9186FF0EC056968D919D910D90BC910D
:10511000A02D80933D0390933E03A0933F03B09353
:1051200040030E945F77D7C103FF0DC0F60182855F
:105130009385A485B5858093410390934203A09302
:105140004303B0934403D6018C9184FF0EC01E9696
:105150008D919D910D90BC91A02D809345039093CE
:105160004603A0934703B0934803F601808185FF6F
:105170000CC082899389A489B5898093490390934F
:105180004A03A0934B03B0934C03D6018C9186FF46
:105190000EC056968D919D910D90BC91A02D80933F
:1051A0004D0390934E03A0934F03B09350030E947E
:1051B0005F7791C112FF8FC1F601278D30A141A108
:1051C00052A112161306140615061CF0209346026F
:1051D00082C181E0809346027EC180919F039091BD
:1051E000A00312FD03C0FC01B59610C0F601878D27
:1051F00090A1A1A1B2A1B7FD6EC10097A105B10513
:1052000019F4EEE6F2E002C0E5EBF2E003FF0BC0BA
:10521000D6011A962D913D914D915C911D97228F4B
:10522000338F448F558FD6018C9184FF0AC01E9610
:105230002D913D914D915C915197268F378F40A3D1
:1052400051A3D6018C9185FF0AC052962D913D91B4
:105250004D915C91559722A333A344A355A3CF014D
:105260000E94FA3838C10E94112E35C1C6010E9431
:105270007C3631C103FF0DC0F60182859385A4857C
:10528000B5858093780D9093790DA0937A0DB093A6
:105290007B0DD6018C9186FF11C0E0919F03F091A8
:1052A000A00356962D913D914D915C915997278B76
:1052B000308F418F528F80810E94DD40F6018081C6
:1052C00085FF0CC082899389A489B58980937C0D60
:1052D00090937D0DA0937E0DB0937F0D4091780D3E
:1052E0005091790D60917A0D70917B0D81EF94E072
:1052F00022E00E94CB2C40917C0D50917D0D60915D
:105300007E0D70917F0D87EF94E022E00E94E02CEB
:10531000E2C012FD05C024E630E040E050E007C0E6
:10532000D6015F962D913D914D915C919297C90167
:105330000E943A1AD0C012FD05C024E630E040E0D9
:1053400050E005C0F601278D30A141A152A1C9014D
:105350000E94251AC0C00E94391DBDC00E94EA6C7F
:10536000BAC010FF08C0D6015A96CD90DD90ED90DE
:10537000FC905D9708C0C090700DD090710DE090CA
:10538000720DF090730DB80134E0769567953A95FB
:10539000E1F76170A80125E0569547952A95E1F758
:1053A0004170980196E0369527959A95E1F721701E
:1053B00083E0169507958A95E1F7802F8170870124
:1053C00076010E94067687C080E00E948B3080EDD7
:1053D00097E00E94132C7FC00E947233E0919F03DC
:1053E000F091A00380810E94DD4080EF97E00E9451
:1053F000132C71C00E94F7366EC087EE91E00E94B8
:10540000F42B69C015E1EE24FF2432990CC088E921
:1054100090E160E071E040E00E945D9A88E990E1EF
:105420000E94C5B71E7F33990CC088E990E163E103
:1054300071E040E00E945D9A88E990E10E94C5B762
:105440001B7F34990CC088E990E166E271E040E08E
:105450000E945D9A88E990E10E94C5B71F7E64E1D1
:1054600070E080E090E00E94E1C7112339F460ED24
:1054700077E080E090E00E94E1C72DC00894E11C35
:10548000F11CB8EEEB16B3E0FB0609F0BECF60ED01
:1054900077E080E090E00E94E1C788E990E169E36D
:1054A00071E040E00E945D9A88E990E10E94C5B7F2
:1054B00012C011FF07C00E94391DF601868D0E949F
:1054C000DD4009C022FF07C086ED93E00E946D2BEE
:1054D000C6010E948545E0960FB6F894DEBF0FBE68
:1054E000CDBFCF91DF911F910F91FF90EF90DF9093
:1054F000CF90BF90AF909F908F907F906F905F9074
:105500004F903F902F900895CF93DF930E944D4B83
:105510000E947445EC0188E990E10E942B9B209742
:10552000D1F08091670E882381F0888181FF04C0CB
:105530008E819F814D9791F08CEF9DE0BE010E947E
:10554000FB7CCE010E94434A03C0CE010E94761D1F
:10555000CE010E94544A0E940377D8CF8CEF9DE081
:105560000E943A7BEECFCF93DF9320C08091670EED
:10557000882381F0888181FF04C08E819F814D97AF
:1055800039F18CEF9DE0BE010E94FB7CCE010E94B0
:10559000434A03C0CE010E94761DCE010E94544AA8
:1055A0000E941C1D88E990E10E942B9B8091AB0C0E
:1055B000882329F40E947445EC01009771F00E9441
:1055C0004D4B88E990E10E942B9B209779F6E8CF1C
:1055D0008CEF9DE00E943A7BD9CFDF91CF91089567
:1055E000CF93DF93EC0105C021968DE495E00E94F6
:1055F000E74F68816623C1F7DF91CF910895AF929D
:10560000BF92CF92DF92EF92FF920F931F93DF939F
:10561000CF93CDB7DEB72B970FB6F894DEBF0FBE92
:10562000CDBFC62ED92E1B869BE0A92EB12CAC0E69
:10563000BD1E6C2D9D2D2AE030E040E050E00E9420
:1056400093CED52E7901042F152F80E3C80EC80103
:10565000B7012AE030E040E050E00E9440CEC61A98
:10566000F501C2925F01CE2C7F2D802FE114F10451
:1056700001051105F1F6CF010E94F02A2B960FB615
:10568000F894DEBF0FBECDBFCF91DF911F910F9178
:10569000FF90EF90DF90CF90BF90AF900895EF9282
:1056A000FF920F931F937B018C0197FF0DC08DE438
:1056B00095E06DE20E94E74F10950095F094E0941C
:1056C000E11CF11C011D111DC801B7010E94FF2A38
:1056D0001F910F91FF90EF900895CF93DF93EC010E
:1056E00004C08DE495E00E94E74FFE01649121968D
:1056F0006623B9F7DF91CF910895EF92FF920F9350
:105700001F937A018B010E946D2BC801B7010E9483
:10571000FF2A0E94C31B1F910F91FF90EF900895E5
:10572000EF92FF920F931F937B010E946D2B002736
:10573000F7FC0095102FC801B7010E944F2B0E9463
:10574000C31B1F910F91FF90EF900895EF92FF926E
:105750000F931F937A018B010E946D2BC801B70133
:105760000E94FF2A1F910F91FF90EF900895EF92F2
:10577000FF920F931F937A018B010E946D2BC8013A
:10578000B7010E944F2B1F910F91FF90EF9008954A
:10579000EF92FF920F931F937B010E946D2B0027C6
:1057A000F7FC0095102FC801B7010E944F2B1F91E5
:1057B0000F91FF90EF9008950F931F938B010E941C
:1057C0006D2BC8010E94F02A1F910F9108950F932D
:1057D0001F938B010E946D2BC8010E94F02A0E942A
:1057E000C31B1F910F9108950E946D2B0E94C31B34
:1057F00008950F931F938C0181ED92E00E946D2B11
:10580000C8010E94F42B1F910F9108950F931F93CD
:105810008C0188ED92E00E946D2BC8010E94F42B50
:105820001F910F9108950F931F938C0188ED92E0C3
:105830000E946D2BC8010E946D2B1F910F9108953E
:105840009F92AF92BF92CF92DF92EF92FF920F930F
:105850001F93CF93DF937B018C01942EA8019701B6
:105860000E9424CE882319F089EC92E020C0C0E089
:10587000D0E057016801E894D7F8C601B5012FEFD1
:105880003FEF4FE75FE70E9424CE882351F4C60123
:10589000B5012FEF3FEF4FE75FE70E94BACA181636
:1058A00014F0C1E0D0E0219729F08DEC92E00E9445
:1058B0006D2B65C0C801B70120E030E040E050E04A
:1058C0000E94BACA88234CF48DE495E06DE20E94F0
:1058D000E74F17FB109517F9109520E030E040E0F6
:1058E0005FE3DD240BC0CA01B90120E030E040E2F3
:1058F00051E40E94C1CA9B01AC01D394D91498F31E
:10590000C801B7010E94F4C95B016C010E942ECB53
:105910007B018C010E94FF2A992029F08DE495E0FB
:105920006EE20E94E74FC801B7010E945ACB9B016B
:10593000AC01C601B5010E94F3C91FC020E030E0F0
:1059400040E251E40E946ACD7B018C010E9429CB88
:105950005B016C01CC24B7FCC094DC2CC601B50102
:105960000E944F2BC601B5010E945CCB9B01AC018C
:10597000C801B7010E94F3C99A949920F9F6DF9102
:10598000CF911F910F91FF90EF90DF90CF90BF903C
:10599000AF909F900895DF92EF92FF920F931F9325
:1059A0007A018B01D22E0E946D2BC801B7014D2DBB
:1059B0000E94202C1F910F91FF90EF90DF9008958F
:1059C000DF92EF92FF920F931F937A018B01D22EF9
:1059D0000E946D2BC801B7014D2D0E94202C0E9402
:1059E000C31B1F910F91FF90EF90DF9008959C01D2
:1059F000F999FECF32BD21BDF89A80B508959C017A
:105A0000F999FECF1FBA32BD21BD60BD0FB6F89423
:105A1000FA9AF99A0FBE0895885C904022E0883582
:105A2000920778F464E670E00E946CCE6F5F7F4F5F
:105A300087E598E00E94C82B8DE495E060E20E9423
:105A4000E74F08950F931F93CF93DF93EC018B01E2
:105A50008DE598E0BE010E94C82B8DE495E060E2E0
:105A60000E94E74FF999FECFD2BDC1BDF89A60B54B
:105A700070E0882777FD8095982F0E944F2B8DE44A
:105A800095E060E20E94E74FCE010E940C2DC80114
:105A90000E94F42BDF91CF911F910F910895CF9227
:105AA000DF92EF92FF920F931F938C016B0184E6BC
:105AB00098E0B8010E94C82B8DE4E82E85E0F82E0E
:105AC000C70160E20E94E74FC80167EF7CE20E94D5
:105AD0009B19AA2797FDA095BA2FBC01CD010E9462
