:200000000C94D2140C94FD140C94FD140C94FD140C94FD140C94FD140C94FD140C94FD1483
:200020000C94FD140C94FD140C94FD140C94FD140C94FD140C94414F0C94FD140C94FD14B9
:200040000C94FD140C947A4E0C940CC40C94FD140C94CB4C0C94F54C0C94FD140C94FD146C
:200060000C94FD140C94FD140C94FD140C94FD140C94FD140C94FD140C94FD140C94FD14F8
:200080000C94FD140C94FD140C94FD14DE9A0C9B3A9B2C9C05AB05AB05AB05AB05AB05AB71
:2000A00005AB05AB05AB699BA89BE99B05AB05AB05AB05AB05AB05AB05AB05AB05AB05AB85
:2000C00005ABB39E149F759FD69F37A098A0F9A07DA106A601A279A2F1A266A3DAA34EA4A8
:2000E000C2A42EA59AA505AB05AB05AB05AB05AB819DE99D05AB5DA6D1A640A7B6A7DEA781
:2001000034A871A8AEA80DA96EA9CDA92CAA58AA06A805AB05AB05AB05AB05AB05AB05ABFB
:2001200005AB05AB05AB05AB05AB159D4A9D05AB05AB05AB05AB05AB05AB05AB05AB05AB86
:2001400005ABA89D05AB05AB05AB91AACEAA05AB05AB05AB05ABD09A05AB05AB6F9CA89C0E
:20016000F59C4E9E084AD73B3BCE016E84BCBFFDC12F3D6C74319ABD56833DDA3D00C77F22
:2001800011BED9E4BB4C3E916BAAAABE000000803F05A84CCDB2D44EB93836A9020C50B940
:2001A000918688083CA6AAAA2ABE000000803F000001000F0015000E001200FFFF1600174B
:2001C000000E001300FFFF030002001A001400FFFF1B00FFFF0D000C000400010000000E8A
:2001E00000070006001F00536574204D6963726F7374657070696E670048656174696E6763
:20020000204265640048656174696E67204578747275646572004649524D574152455F4E76
:20022000414D453A52657065746965725F302E3931204649524D574152455F55524C3A68D9
:20024000747470733A2F2F6769746875622E636F6D2F72657065746965722F52657065748D
:200260006965722D4669726D776172652F2050524F544F434F4C5F56455253494F4E3A3123
:200280002E30204D414348494E455F545950453A4D656E64656C2045585452554445525FC9
:2002A000434F554E543A312052455045544945525F50524F544F434F4C3A3200446562750D
:2002C000673A006F6B000D0A004E414E00494E46004572726F723A00496E666F3A00576110
:2002E000726E696E673A00526573656E643A004563686F3A006F6B200057726F6E672063C8
:200300006865636B73756D004D697373696E6720636865636B73756D00466F726D61742017
:200320006572726F7200446F6E65207072696E74696E672066696C650020580020590020B1
:200340005A00204500204600205300205000204900204A0020520053442072656164206578
:2003600072726F72004572726F723A6578706563746564206C696E65200020676F742000B0
:20038000736B69702000424C4B2000737461727400506F77657255700045787465726E61B6
:2003A0006C2052657365740042726F776E206F7574205265736574005761746368646F67DA
:2003C00020526573657400536F66747761726520526573657400556E6B6E6F776E20636FAA
:2003E0006D6D616E643A00467265652052414D3A00583A0020583A0020593A00205A3A004F
:2004000020453A00543A0020423A0020403A002054002040002042403A0020524157003A85
:20042000002F00202F0053706565644D756C7469706C793A00466C6F774D756C7469706C34
:20044000793A0046616E73706565643A005072696E7465642066696C616D656E743A0050B9
:2004600072696E74696E672074696D653A006D20002064617973200020686F757273200089
:20048000206D696E00496E76616C696420617263002C002000593A005A3A0045303A004574
:2004A000313A004D53312C4D53322050696E7300536574206F7574707574200020746F2008
:2004C000004820004C2000785F6D696E3A00785F6D61783A00795F6D696E3A00795F6D61A0
:2004E000783A007A5F6D696E3A007A5F6D61783A004A65726B3A00205A4A65726B3A002074
:200500006C696E6561722073746570733A00207175616472617469632073746570733A0070
:200520002C2073706565643D00454550524F4D2075706461746564006C696E656172204C6B
:200540003A0020717561647261746963204B3A0054617267657445787472005461726765E1
:20056000744265643A00504944204175746F74756E652073746172740020626961733A2009
:200580000020643A2000206D696E3A2000206D61783A2000204B753A20002054753A200082
:2005A00020436C61737369632050494400204B703A2000204B693A2000204B643A20005080
:2005C0004944204175746F74756E65206661696C6564212054656D706572617475726520A5
:2005E000746F206869676800504944204175746F74756E65206661696C6564212074696DF6
:20060000656F757400504944204175746F74756E652066696E6973686564202120506C61E3
:20062000636520746865204B702C204B6920616E64204B6420636F6E7374616E747320690E
:200640006E2074686520436F6E66696775726174696F6E2E68206F7220454550524F4D00D4
:200660004D54454D503A006865617465642062656400657874727564657220003A20746541
:200680006D702073656E736F7220646566656374003A20776F726B696E67005072696E74D0
:2006A00065722073657420696E746F206472792072756E206D6F646520756E74696C207296
:2006C00065737461727421004175746F6C6576656C696E6720656E61626C65640041757462
:2006E0006F6C6576656C696E672064697361626C6564005A2D70726F6265206661696C651D
:2007000064005A2D70726F6265206D61783A005072696E746572206865696768743A007708
:20072000616974004731205A3320463630300A473120583130205931302046363030300AEF
:200740004731205A302E3220463630300A004731205A3320463630300A473120583139305C
:20076000205931302046363030300A4731205A302E3220463630300A004731205A33204656
:200780003630300A4731205831393020593139302046363030300A4731205A302E322046FE
:2007A0003630300A004731205A3320463630300A473120583130205931393020463630300E
:2007C000300A4731205A302E3220463630300A00436F6E66696775726174696F6E207374F8
:2007E0006F72656420746F20454550524F4D2E00436F6E66696775726174696F6E206C6FE3
:20080000616465642066726F6D20454550524F4D2E00436F6E66696775726174696F6E20E8
:20082000726573657420746F2064656661756C74732E0050726F746F636F6C2076657273BA
:20084000696F6E206368616E6765642C20757067726164696E6700457874722E00455052A3
:200860003A3020004550523A3120004550523A3220004550523A33200042617564726174D2
:20088000650046696C616D656E74207072696E746564205B6D5D005072696E746572206103
:2008A0006374697665205B735D004D61782E20696E6163746976652074696D65205B6D73E1
:2008C0002C303D6F66665D0053746F70207374657070657220616674657220696E616374BD
:2008E0006976697479205B6D732C303D6F66665D005820686F6D6520706F73205B6D6D5DF2
:20090000005920686F6D6520706F73205B6D6D5D005A20686F6D6520706F73205B6D6D5D4A
:200920000058206D6178206C656E677468205B6D6D5D0059206D6178206C656E6774682024
:200940005B6D6D5D005A206D6178206C656E677468205B6D6D5D0058206261636B6C6173A8
:2009600068205B6D6D5D0059206261636B6C617368205B6D6D5D005A206261636B6C6173AE
:2009800068205B6D6D5D004D61782E206A65726B205B6D6D2F735D004D61782E205A2D6A64
:2009A00065726B205B6D6D2F735D00582D6178697320737465707320706572206D6D00595E
:2009C0002D6178697320737465707320706572206D6D005A2D6178697320737465707320DA
:2009E000706572206D6D00582D61786973206D61782E206665656472617465205B6D6D2F04
:200A0000735D00592D61786973206D61782E206665656472617465205B6D6D2F735D005A29
:200A20002D61786973206D61782E206665656472617465205B6D6D2F735D00582D617869C5
:200A40007320686F6D696E67206665656472617465205B6D6D2F735D00592D617869732072
:200A6000686F6D696E67206665656472617465205B6D6D2F735D005A2D6178697320686F0D
:200A80006D696E67206665656472617465205B6D6D2F735D00582D61786973206163636511
:200AA0006C65726174696F6E205B6D6D2F735E325D00592D6178697320616363656C6572CA
:200AC0006174696F6E205B6D6D2F735E325D005A2D6178697320616363656C6572617469AE
:200AE0006F6E205B6D6D2F735E325D00582D617869732074726176656C20616363656C65D0
:200B0000726174696F6E205B6D6D2F735E325D00592D617869732074726176656C20616397
:200B200063656C65726174696F6E205B6D6D2F735E325D005A2D617869732074726176652D
:200B40006C20616363656C65726174696F6E205B6D6D2F735E325D004F5053206F70657273
:200B60006174696F6E206D6F6465205B303D4F66662C313D436C61737369632C323D4661F4
:200B800073745D004F5053206D6F76652061667465722078252072657472616374205B25A4
:200BA0005D004F5053206D696E2E2064697374616E636520666F722066696C2E207265748E
:200BC00072616374696F6E205B6D6D5D004F50532072657472616374696F6E206C656E6760
:200BE0007468205B6D6D5D004F50532072657472616374696F6E206261636B6C61736820A1
:200C00005B6D6D5D004265642048656174204D616E61676572205B302D335D004265642027
:200C2000504944206472697665206D61780042656420504944206472697665206D696E0091
:200C40004265642050494420502D6761696E004265642050494420492D6761696E0042656C
:200C6000642050494420442D6761696E0042656420504944206D61782076616C7565205BBD
:200C8000302D3235355D00737465707320706572206D6D006D61782E2066656564726174FF
:200CA00065205B6D6D2F735D007374617274206665656472617465205B6D6D2F735D006138
:200CC0006363656C65726174696F6E205B6D6D2F735E325D0068656174206D616E6167657C
:200CE00072205B302D335D00504944206472697665206D6178005049442064726976652066
:200D00006D696E0050494420502D6761696E2F646561642D74696D650050494420492D6703
:200D200061696E0050494420442D6761696E00504944206D61782076616C7565205B302D16
:200D40003235355D00582D6F6666736574205B73746570735D00592D6F6666736574205BFF
:200D600073746570735D0074656D702E2073746162696C697A652074696D65205B735D0002
:200D800074656D702E20666F722072657472616374696F6E207768656E2068656174696E42
:200DA00067205B435D0064697374616E636520746F2072657472616374207768656E2068F4
:200DC000656174696E67205B6D6D5D00657874727564657220636F6F6C6572207370656505
:200DE00064205B302D3235355D00616476616E6365204B205B303D6F66665D006164766165
:200E00006E6365204C205B303D6F66665D00534420436172642072656D6F766564005344D6
:200E2000204361726420696E73657274656400534420696E6974206661696C006572726FBB
:200E4000722077726974696E6720746F2066696C6500426567696E2066696C65206C69732C
:200E60007400456E642066696C65206C6973740046696C65206F70656E65643A002053691A
:200E80007A653A0046696C652073656C65637465640066696C652E6F70656E206661696C14
:200EA0006564005344207072696E74696E67206279746520004E6F74205344207072696E92
:200EC00074696E67006F70656E206661696C65642C2046696C653A200057726974696E671F
:200EE00020746F2066696C653A2000446F6E6520736176696E672066696C652E0046696C9E
:200F0000652064656C657465640044656C6574696F6E206661696C65640044697265637461
:200F20006F72792063726561746564004372656174696F6E206661696C6564005344206589
:200F400072726F72436F64653A000701061C151C143A21002243141F1F730FE30F3710A734
:200F600010F710DF1100006312EB12F7134714C31400000000A00F5C00600969001009794D
:200F800000C0088C007008A2002008BD00D007DE008007050130073401E0066D019006B2B4
:200FA0000140060702F0056D02A005E80250057B0300052B04B004F8046004EB06C00335EA
:200FC0000920037F0B8002650DE001B00E40011D0FF000480FC8006C0FA000ED0F60FFFED8
:200FE0000F48FE0400801AD8009808AC012007800250065403C80528045805FC040005D058
:2010000005B004A4066804780728044C08E8032009B003F4097003C80A38039C0BF80270AD
:201020000CB002440D6802180E0802EC0E8801C00F8800F00F00000400001B5400600964EE
:201040000010097400C008840070089C002008B800D007D8008007000130072C01E00668DA
:20106000019006AC0140060002F0056802A005E0025005740300052404B004F0046004DC1D
:20108000051004E406C0030408700330092003780B8002600DE001A80E4001680FA000C08E
:2010A0000F0000E80F60FF0400700DD8004804AC0158038002D8025403800228043802FC87
:2010C000040002D005C801A4069801780770014C08480120091801F409F000C80AC8009C37
:2010E0000BA000700C7000440D3800180E0000EC0EA8FFC00FE8FE380060093B00380940F7
:201100000010094600E8084C00C0085200980859007008620048086C0020087600F807806E
:2011200000D0079100A8079C008007A8005807BB003007D0000807E300E006F800B806100E
:201140000190062D01680650014006720118069001F005C201C805EC01A00528027805677E
:20116000025005B2022805EE0200053E03D8049803B004F20388045E046004BF043804325E
:20118000051004B405E8033A06C003D80698036C077003F8074803980820032E09F802D41E
:2011A00009D0026F0AA8020F0B80029F0B58022B0C3002B30C08022F0DE001980DB801FCE8
:2011C0000D90014C0E68019C0E40011D0FF000480FC8006C0FA000ED0F60FFFE0F48FE3887
:2011E000006009BB00D0076702F005B202C805EE02A0053E03780598035005F20328055E52
:20120000040005BF04D80432058804B40560043A063804D80610046C07E803F807C0039820
:201220000898032E097003D40948036F0A10030F0BE0029F0BA8022B0C6002B30C4002982B
:201240000DF001FC0DA0014C0E70019C0E40011D0FF000480FC8006C0FA000ED0F60FFFE81
:201260000F48FE0000401F450060094F0010095C00C0086B0070087D0020089200D007ACE3
:20128000008007CC003007DE00E006230190065E014006A601F005FF01A0056D025005F3A9
:2012A0000200059603B0045A046004400510044806C0036E077003A8082003EB09D002230A
:2012C0000B8002410C3002390DE001040E9001A20E4001170FF000690FA000A20F5000C652
:2012E0000F0000DD0FB0FFEB0F60FF0400681D4C00500B94005809DC0050082401A8076C52
:20130000012807B401C006FC017006440228068C02F005D402B8051C03880564035805AC09
:20132000033005F40310053C04E8048404C804CC04A804140590045C057004A4055804ECFA
:20134000053804340620047C060804C406F0030C07D8035407C8039C07B003E40798032C87
:2013600008800374087003BC085803040948034C09300394091803DC090803240AF0026CC0
:201380000AE002B40AC802FC0AB002440BA0028C0B8802D40B70021C0C5802640C4002ACDE
:2013A0000C2802F40C10023C0DF001840DD801CC0DB801140E98015C0E7001A40E4801EC32
:2013C0000E1801340FD8007C0F8800C40F0800FC0F000000000000000000000000000000D2
:2013E000000000000000000000000000000000000000000000000004000016D800C006AC89
:201400000178058002C004540348042804E803FC049803D0055003A40618037807D8024C21
:2014200008A80220097002F4093802C80A08029C0BD001700C9001440D5001180EF800EC1B
:201440000E8800C00F00000400401D900060091C01B007A801D00634023806C002C8054C2B
:20146000036805D80318056404D804F00498047C05600408063004940600042007D003ACC5
:2014800007A80338088003C408580350093003DC090803680AE002F40AB802800B88020C07
:2014A0000C6002980C3002240DF801B00DC0013C0E8001C80E3001540FB800B40F2800E088
:2014C0000F00000400081D900058091C01B007A801C80634023006C002C0054C036805D811
:2014E0000318056404D004F00498047C05600408063004940600042007D003AC07A80338AB
:20150000088003C408580350093003DC090803680AD802F40AB002800B88020C0C6002987A
:201520000C3002240DF801B00DC0013C0E8001C80E3001540FB800B40F2800E00F000053AB
:2015400044206572726F72206669786564005344206572726F7220646964206E6F74207298
:2015600065636F766572210053442052656164204572726F720042696E6172793A00436F18
:201580006D6D616E64427566666572000000000000000000000000000000000024F403D9F0
:2015A00050C38EB1C2A23D96828B3582127AE372816CCB66A861015DC758EB546151204EFA
:2015C0001E4B5648C14559431A41013F093D2F3B7139CD374036C93465331432D430A32F42
:2015E000802E6B2D632C672B752A8E29B028DC2710274B268F25D9242B248223E02243229F
:20160000AC211A218D200420801F001F841E0C1E971D261DB81C4E1CE61B821B201BC11A7E
:20162000641A0A1AB2195D190A19B9186A181C18D11788174017FA16B51673163116F1158E
:20164000B31576153A150015C7148F1458142214EE13BA13881356132513F612C71299121D
:201660006C1240121512EB11C1119811701148112111FB10D610B1108D106910461024109E
:201680000210E10FC00FA00F800F610F420F230F060FE80ECB0EAF0E930E770E5C0E410EC8
:2016A000270E0D0EF30DDA0DC10DA80D900D780D600D490D320D1B0D050DEF0CD90CC30C63
:2016C000AE0C990C850C700C5C0C480C350C210C0E0CFB0BE80BD60BC40BB20BA00B8E0BB0
:2016E0007D0B6B0B5A0B4A0B390B290B180B080BF80AE90AD90ACA0ABB0AAC0A9D0A8E0A1E
:20170000800A710A630A550A470A390A2C0A1E0A110A040AF709EA09DD09D009C409B7099E
:20172000AB099F09920987097B096F09630958094C09410936092B09200915090A090009E4
:20174000F508EB08E008D608CC08C208B808AE08A4089A08900887087D0874086B0861086D
:2017600058084F0846083D0834082C0823081A08120809080108F807F007E807E007D80783
:20178000D007C807C007B807B007A807A1070000420FA1071605D0030D038B022E02E80172
:2017A000B2018601630145012C0117010401F40049646C6500486F6D65205A00486F6D65FD
:2017C000205900486F6D65205800537465707065722044697361626C6564004B696C6C6583
:2017E000640055706C6F6164696E672E2E2E005344207072696E742073746F707065642035
:20180000627920757365722E0000002110422063308440A550C660E770088129914AA16BEB
:20182000B18CC1ADD1CEE1EFF13112100273325222B5529442F772D662399318837BB35AC2
:20184000A3BDD39CC3FFF3DEE36224433420040114E664C774A44485546AA54BB528850902
:2018600095EEE5CFF5ACC58DD55336722611163006D776F6669556B4465BB77AA719973842
:2018800087DFF7FEE79DD7BCC7C448E5588668A7784008611802282338CCC9EDD98EE9AFF2
:2018A000F9488969990AA92BB9F55AD44AB77A966A711A500A333A122AFDDBDCCBBFFB9EC2
:2018C000EB799B588B3BBB1AABA66C877CE44CC55C222C033C600C411CAEED8FFDECCDCD02
:2018E000DD2AAD0BBD688D499D977EB66ED55EF44E133E322E511E700E9FFFBEEFDDDFFC42
:20190000CF1BBF3AAF599F788F8891A981CAB1EBA10CD12DC14EF16FE18010A100C230E38C
:20192000200450254046706760B9839893FBA3DAB33DC31CD37FE35EF3B1029012F322D2E1
:20194000323542145277625672EAB5CBA5A89589856EF54FE52CD50DC5E234C324A01481E1
:20196000046674476424540544DBA7FAB79987B8975FE77EF71DC73CD7D326F2369106B061
:201980001657667676154634564CD96DC90EF92FE9C899E9898AB9ABA944586548067827D1
:2019A00068C018E1088238A3287DCB5CDB3FEB1EFBF98BD89BBBAB9ABB754A545A376A16E1
:2019C0007AF10AD01AB32A923A2EFD0FED6CDD4DCDAABD8BADE89DC98D267C076C645C45E1
:2019E0004CA23C832CE01CC10C1FEF3EFF5DCF7CDF9BAFBABFD98FF89F176E367E554E7461
:201A00005E932EB23ED10EF01E7C3C3E5E2B3D3F2F5B5D3B2C2A225C004E6F206572726F44
:201A20007220666F756E642E0043616E2774206F70656E20726F6F74206469726563746F5D
:201A400072792E00496E76616C696420666F726D61742C207265666F726D61742053442E6C
:201A6000004E6F20636172642C2077726F6E6720636869702073656C6563742070696E2C7F
:201A8000206F72205350492070726F626C656D3F0043616E277420616363657373205344F3
:201AA00020636172642E20446F206E6F74207265666F726D61742E000001FF00FF0000014C
:201AC000010000FF00FF0100416374696F6E3A256C61000310270200D11C0310270200D542
:201AE0001C0100000100D91C0200000800DB1C03ED030400EB1C03EE030400F31C03EF03D8
:201B00000400FB1C03FA030400031D03FB0304000B1D03FC030400131D0200000B001B1DDE
:201B20000200000600311D0200000C003D1D5265717565737450617573653A004E6F205396
:201B400044204361726400436F6F6C646F776E00556E6C6F61642046696C616D656E7400AF
:201B60004C6F61642046696C616D656E740050726568656174204142530050726568656181
:201B80007420504C41008025000040380000004B00008070000000960000C0DA000000E16B
:201BA0000000002C010008B2010000C2010000F401000084030090D0030000E803000008A8
:201BC000070020A1070000100E0040420F0060E31600000000000200000900551D671D6EBF
:201BE0001D751D7C1D4F6E004F666600596573004E6F00030004004E2F4100003A00206454
:201C00006179732000503830324D5F380042616E6742616E6700536C6F7742616E67004438
:201C20006561642054696D6500504944005072696E74696E672E2E2E0020646566200000AA
:201C400000003FCDCC4C3D0AD7A33B6F12033A52657065746965722D302E3931005A6F6E3A
:201C60006573746172203344205072696E74657200503830324D5F3800503830324D5F380E
:201C80005F56312E36005072696E7465722072656164792E0000401454040E15041C0000C4
:201CA00000040A040000000000001F1F1F1F1F0000001F1111111F0000040A0A0A0E1F1F98
:201CC0000E001C1F11111F0000001F1511151F1F00831D8A1D911D981D9F1D9F1DA61DAD50
:201CE0001DB41DBB1DC21DC91DD01DD71DDE1DE51DEC1DF31DFA1D011E081E0F1E161E1D88
:201D00001E241E2B1E321E391E401E471E4E1E551E5C1E631E6A1E711E781E9F1D7F1E864A
:201D20001E8D1E941E9B1EA21EA91EB01EB71EBE1E9F1DC51ECC1ED31EDA1EE11E9F1D7FBD
:201D40001EE81EEF1EF61EFD1E041F0B1F121F191F201FDA1E9F1D271FA61D2E1F351F3C94
:201D60001F431F4A1F511F0000000400581F0000000400601F0000000400681F000000047C
:201D800000701F781F0000000000861F0000000000971F0000000000A51F0000000000B648
:201DA0001F03E8030000BD1F03F5030102C81F03F6030204D41F0354040200DF1F03F70308
:201DC0000400EE1F03F8030100FB1F03F9030001062003F4030102122000000000001B2049
:201DE00000000000002B2000000000003B2000000000003C2000000000004520000000007C
:201E0000005520000000000065200000000000662000000000006F2000000000007F200014
:201E2000000000008F2000000000009020000000000099200000000000A9200000000000C1
:201E4000B9200000000000BA200000000000C3200000000000D3200000000000E3200000F6
:201E6000000000E4200000000000ED200000000000FD2000000000000D2100000000000EF8
:201E80002103FD0300201721041F040000292104480400003B2103370400004721034704B5
:201EA0000000532103C00F0000612103C10F0000712103380400007A21033104001088212A
:201EC00003420400209821043C040000A821043D040000B821033A040000C72102D6210093
:201EE00000DD210343040000E82103FE030020EF2103FF030020F6210300040020FD2102DA
:201F0000041B0000092202EF1A00001422020B1B0000202202F61A00002B2202121B00003E
:201F2000372202FD1A0000422202191B0000512202271B00005A2202201B00006322026D31
:201F4000220000742202E81A00007C2202862200008D22029B220000A222A922B022B722D5
:201F6000BE22C522CC22D322DA22E122E822EF22F622FD2204230B23436F6E6669677572D4
:201F80006174696F6E0073746F72656420696E20454550524F4D00436F6E66696775726118
:201FA00074696F6E006C6F6164656420662E20454550524F4D004261636B200100507269A5
:201FC0006E742066696C65005061757365205072696E740053746F70205072696E7400431E
:201FE0006F6E74696E7565205072696E7400556E6D6F756E742043617264004D6F756E740F
:2020000020436172640044656C6574652066696C6500583A257830206D6D004D696E206511
:202020006E6473746F703A257378004D617820656E6473746F703A2573580000593A257821
:2020400031206D6D004D696E20656E6473746F703A257379004D617820656E6473746F7086
:202060003A25735900005A3A257832206D6D004D696E20656E6473746F703A25737A004DFE
:20208000617820656E6473746F703A25735A0000583A257830206D6D004D696E20656E644A
:2020A00073746F703A257378004D617820656E6473746F703A2573580000593A2578312022
:2020C0006D6D004D696E20656E6473746F703A257379004D617820656E6473746F703A25F8
:2020E000735900005A3A257832206D6D004D696E20656E6473746F703A25737A004D617804
:2021000020656E6473746F703A25735A0000486F6D6520416C6C005370656564204D756C75
:202120002E3A256F6D25252500466C6F77204D756C2E203A256F66252525005072656865FC
:20214000617420504C41005072656865617420414253004C6F61642046696C616D656E741E
:2021600000556E6C6F61642046696C616D656E7400436F6F6C646F776E0053657420746F38
:20218000204F726967696E0044697361626C652073746570706572004265642054656D701F
:2021A0003A2025456202430054656D702E20313A20202545300243004578747275646572F3
:2021C0002031204F666600457874722E20706F736974696F6E0003F00302001223536574B4
:2021E000204F726967696E00486F6D65205800486F6D65205900486F6D65205A0058205089
:202200006F732E2046617374005820506F736974696F6E005920506F732E204661737400AC
:202220005920506F736974696F6E005A20506F732E2046617374005A20506F736974696FE7
:202240006E00517569636B2053657474696E677300506F736974696F6E00457874727564D1
:2022600065720046616E20737065656400020000070016235344204361726400446562754E
:202280006767696E670002000005002423436F6E66696775726174696F6E00020000080082
:2022A0002E233E230000000000512300000000006023000000000075230000000000792341
:2022C0000000000000822300000000008B2300000000009423000000000098230000000039
:2022E00000A9230000000000BA230000000000BB230000000000BF230000000000CD230085
:2023000000000000D1230000000000E2230000000000E823EF239F1DF623FD2304240B245B
:20232000122419249F1D202427242E2435249F1D3C2443244A24512458245F24662405251B
:2023400065632F25456302072565422F25456202005A3A25783220204275663A256F420017
:202360004D756C3A20256F6D202020466C6F773A20256F6600256F7300583A257830206D95
:202380006D00593A257831206D6D005A3A257832206D6D00256F730045313A2565302F2553
:2023A000453002437E256F300020423A2565622F25456202437E256F620000256F7300508E
:2023C00072696E74696E672074696D65002555740046696C616D656E74207072696E746563
:2023E0006400255566206D006D240000000000762400000000008524045204000096240321
:202400001A040800A324031B040000B124031C040000BF24031D040000CD24031E04000098
:20242000DA240332040000E6240333040000F2240334040000FE2403350400000A2502122F
:20244000250000192502262500002D2502362500003D2502462500004D2503060400005D72
:202460002503070400006C25027F250000453A257833206D6D003120636C69636B203D20D5
:2024800031206D6D0046616E2073706565643A254673252525005475726E2046616E204FF7
:2024A0006666005365742046616E203235252525005365742046616E203530252525005351
:2024C00065742046616E203735252525005365742046616E2046756C6C004563686F202020
:2024E000203A25646F00496E666F2020203A256469004572726F7273203A256465004472F7
:20250000792072756E3A2564640047656E6572616C0002000004008625416363656C657288
:202520006174696F6E0002000009008E254665656472617465000200000700A025457874A3
:202540007275646572000200000F00AE2553746F726520746F20454550524F4D004C6F6161
:202560006420662E20454550524F4D004C6576656C696E6720617578696C6961727900022B
:2025800000000700CC259F1DDA25E125E8259F1DEF25F625FD2504260B2612261926202650
:2025A0009F1D27262E2635263C2643264A269F1D512658265F2666266D2674267B268226F0
:2025C0008926902697269E26A526AC269F1D7F1EB326BA26C126C826201FCF260410040045
:2025E00000DC2602ED260000F42602022700000927040804000015270409040000212704A6
:202600000A0400002D27040B0400003927040C0400004527040D0400005127040E040000C2
:202620005D27040F04000069270414040000732704150400007D2704160400008727041117
:20264000040000922704120400009D270413040000A8270429040000B527042C040000C2F2
:2026600027042B040000CD27042A040000D727042E040000E527044D040000F827044C04D2
:2026800000000928042D04000015280422040000222804230400002C28042404000036281A
:2026A0000425040000442804260400005228042F0400005E2803B10F00006A2803B20F0003
:2026C00000762803B30F0000822803B40F000042617564726174653A256F63005374657032
:2026E00070657220496E6163746976650003200402008E284D61782E20496E61637469761F
:202700006500035804020092285072696E7420583A256178005072696E7420593A256179BD
:20272000005072696E74205A3A25617A004D6F76652058203A256158004D6F766520592061
:202740003A256159004D6F7665205A203A25615A004A65726B2020203A25616A005A2D4A2E
:2027600065726B203A25614A004D617820583A256678004D617820593A256679004D61780F
:20278000205A3A25667A00486F6D6520583A25665800486F6D6520593A25665900486F6D1E
:2027A00065205A3A25665A0053746570732F4D4D3A2553650053746172742046523A2558AF
:2027C00066004D61782046523A25584600416363656C3A25584100537461622E54696D65A1
:2027E0003A255877005761697420556E6974733A20255855206D6D00576169742054656DE2
:20280000702E20255854024300436F6E74726F6C3A2558680044542F50494420503A255819
:20282000700050494420493A2558690050494420443A255864004472697665204D696E3AEE
:2028400025586D004472697665204D61783A25584D00504944204D61783A25584400476F76
:20286000746F20506F73692E3100476F746F20506F73692E3200476F746F20506F73692E25
:202880003300476F746F20506F73692E340096289D28A428AB28B2280000000000C128006A
:2028A00000000000CB280000000000DA2800000000004469732E2041667465723A25697388
:2028C000005B735D20303D4F6666004469732E2041667465723A256970005B735D20303DD5
:2028E0004F66660000002100240027002A0000002200250028002B00000020002300260024
:20290000290002020202020202020404040404040404030303030303030301010101010140
:2029200001010102040810204080010204081020408001020408102040808040201008049C
:2029400002010000000102000000000000000403070600000000000000000000000000005D
:202960000000494E46494E4954594E414ECDCCCC3D0AD7233C17B7D13877CC2B329595E6A7
:20298000241FB14F0A000020410000C84200401C4620BCBE4CCA1B0E5AAEC59D7400364EA2
:2029A000EC784A9911241FBECFEFD0E4DEBFCDBF12E0A0E0B1E0EEE5F7E901E00BBF02C000
:2029C00007900D92A236B107D9F71BBE10E1A2E6B2E001C01D92AD39B107E1F719E2C4EAEE
:2029E000D9E204C02297FE010E945FCBCE39D107C9F70E943BC60C94ADCB0C940000A0E05A
:202A0000B0E0E5E0F5E10C947CCBEC015B016115710519F0FB0191838083F9908F2D90E09E
:202A20000E9463CB892BC9F7FDE2FF1621F4F990EE24E39405C02BE2F21609F4F990EE24C5
:202A40008E0101501040C80162E679E243E050E00E948E17892B01F58E010E5F1F4FC80163
:202A600065E679E245E050E00E948E17892B19F48E01095F1F4FA114B10419F0F5011183F1
:202A80000083E0FC04C070E090E080E814C070E090E080E86FEF08C1C8016AE679E243E031
:202AA00050E00E948E17892B69F4A114B10429F470E090E080EC6FE7F7C02296F501D183CC
:202AC000C083F6CF8824992440E050E060E070E0EF2DE053EA30A0F5F2E0EF2A8E2D90E091
:202AE0009C0128703070E2FE06C0232B79F50894811C911C2BC0232B19F0089481089108B9
:202B0000DB01CA0112E0880F991FAA1FBB1F1A95D1F7480F591F6A1F7B1F440F551F661F75
:202B2000771F4E0F511D611D711D483929E9520729E9620729E1720748F084E0E82A06C0CA
:202B4000EE3F31F4E3FC39C098E0E92AF990C0CFE53311F0E53189F529912D3219F4E0E114
:202B6000EE2A05C02B3219F081E090E003C0299182E090E0E22FE053EA3018F0C81BD90BC5
:202B80001CC020E030E0FCE020383F075CF4C901880F991F880F991F280F391F220F331F05
:202BA0002E0F311DE991E053EA3068F3E4FE03C0309521953F4F820E931ECE2CDD24E1FE9F
:202BC00007C0A114B10421F02197F501D183C083CB01BA010E94DBC77B018C01F3E0CF22D6
:202BE000DD2423E0C216D10421F417FB109517F9109557016801C801B70120E030E040E031
:202C000050E00E943BC7882309F44AC097FE0DC021E8E22E29E2F22E90948194910893948F
:202C2000C0E2D0E000E010E012C099E9E92E99E2F92EF6CFF7012591359145915491C601AA
:202C4000B5010E94EBC95B016C018C1A9D0A8C169D0684F7D595C7950F5F1F4F06301105A4
:202C600029F08CEF9FEFE80EF91EF1CFC501D6017C018D018C2D880F8D2D881F8F3F51F0FD
:202C8000C601B50120E030E040E050E00E943BC7882331F482E290E090939C1080939B1082
:202CA0007E2D9F2D802F612F272F392F482F562FB901CA01CDB7DEB7ECE00C9498CB2F9276
:202CC0003F925F926F927F928F929F92AF92BF92CF92DF92EF92FF920F931F93CF93DF9330
:202CE0008C011B01EA016115710519F0FB0191838083209749F0CE010297839728F020E0AE
:202D000030E040E050E0F6C0F801A1908F018A2D90E00E9463CB892BB9F7FDE2AF1631F4BF
:202D2000F801A1908F015524539407C0FBE2AF1619F4F801A1908F015524209719F0C0311F
:202D4000D105C1F4F0E3AF1679F4F8018081883711F0883549F4F801A1800E5F1F4FF2E068
:202D60005F2AC0E1D0E006C0209721F480E3A816E9F427C0C830D10531F1C930D10524F42B
:202D8000C230D10531F50CC0CA30D10589F0C031D105F9F4C12CD12CE12CB8E0FB2E28C0DC
:202DA000C12CD12CE12CA0E4FA2E22C0CAE0D0E0FCECCF2EFCECDF2EFCECEF2EFCE0FF2E4C
:202DC00017C0C8E0D0E0C12CD12CE12CE0E1FE2E0FC09E01442737FD4095542F60E070E0EB
:202DE00080E090E80E9414CBC901DA016C017D0120E030E040E050E060E03E01882477FCEC
:202E00008094982C70EDB72EBA0CE9E0EB1570F48A2D81548A3118F499ECB92E06C08A2D69
:202E200081568A3150F589EAB82EBA0C8B2D90E08C179D0714F56F3FE1F0C216D306E4060A
:202E4000F506B0F0CA01B901A40193010E94C1CA9B01AC012B0D311D411D511D2130F0E030
:202E60003F07F0E04F07F0E85F0710F461E001C06FEFF801A1908F01C5CF2114310481F01B
:202E8000662331F001501040F1011183008308C051FE1AC002501040F1011183008314C06E
:202EA00067FF12C050FC05C02FEF3FEF4FEF5FE704C020E030E040E050E882E290E09093D6
:202EC0009C1080939B1016C050FE08C050954095309521953F4F4F4F5F4F0CC057FF0AC0A1
:202EE00082E290E090939C1080939B102FEF3FEF4FEF5FE7B901CA01DF91CF911F910F91FC
:202F0000FF90EF90DF90CF90BF90AF909F908F907F906F905F903F902F900895FB01DC01F8
:202F20004150504088F08D9181341CF08B350CF4805E659161341CF06B350CF4605E861BE5
:202F4000611171F3990B0895881BFCCFFB01DC0102C001900D9241505040D8F70895FB0198
:202F6000DC010D900020E9F7119701900D920020E1F70895FC018191861721F08823D9F732
:202F8000992708953197CF010895FB01DC018D91019080190110D9F3990B0895FB01DC0187
:202FA00001900D920020E1F70895FB01DC014150504048F001900D920020C9F701C01D929A
:202FC00041505040E0F70895FC0181E090E00190061609F4CF010020D1F701970895A0E077
:202FE000B0E0E5EFF7E10C9480CB7C01EB018A01690109C0CE012196F6010995F70181935C
:203000007F010150104001151105A1F7CDB7DEB7E8E00C949CCBBF92CF92DF92EF92FF92AE
:203020000F931F937B018C01FB010995B82EC8010196F7010995C82EC8010296F7010995D0
:20304000D82EC8010396F7010995982F6B2D7C2D8D2D1F910F91FF90EF90DF90CF90BF9035
:203060000895DF92EF92FF920F931F937B018C01FB010995D82EC8010196F7010995982F76
:203080008D2D1F910F91FF90EF90DF900895A0E0B0E0EDE4F8E10C9480CBEC017B018A0173
:2030A000690109C0CE012196F70161917F01F60109950150104001151105A1F7CDB7DEB7DA
:2030C000E8E00C949CCBBF92CF92DF92EF92FF920F931F93D52EC62EB72E79018C01642F22
:2030E000F9010995C80101966D2DF7010995C80102966C2DF7010995C80103966B2DF70126
:2031000009951F910F91FF90EF90DF90CF90BF900895DF92EF92FF920F931F93D72E7A01A2
:203120008C01FA010995C80101966D2DF70109951F910F91FF90EF90DF9008959C01F99940
:20314000FECF32BD21BDF89A80B508950895609112017091130180911401909115016817DF
:20316000790744F4709315016093140187EE93E00E94C0290895BC01893191051CF469E1FF
:2031800070E005C0893C910514F068EC70E070934D0C60934C0C85E394E00E94C02908956C
:2031A000EF92FF920F931F93CF93DF93EC01893191051CF4C9E1D0E006C081E0C53FD80724
:2031C00014F0C4EFD1E0BE01882777FD8095982F0E94DDC77B018C0160914A0C70914B0CDB
:2031E000882777FD8095982F0E94DDC79B01AC01C801B7010E9442C79B01AC016091460C89
:203200007091470C8091480C9091490C0E94EBC96093460C7093470C8093480C9093490CAF
:20322000D0934B0CC0934A0C86E294E0BE010E94C029DF91CF911F910F91FF90EF9008953A
:203240000E94E94F9C0180911201909113012817390724F4309313012093120108950E942B
:20326000864C08952F923F924F925F926F927F928F929F92AF92BF92CF92DF92EF92FF92A1
:203280000F931F93DF93CF93CDB7DEB728970FB6F894DEBF0FBECDBFA090CB0BB090CC0BCA
:2032A000C090CD0BD090CE0B2090CF0B3090D00B4090D10B5090D20B8091D30B9091D40B30
:2032C000A091D50BB091D60B89839A83AB83BC832091F30B3091F40B4091F50B5091F60B03
:2032E0006090F70B7090F80B8090F90B9090FA0B8091FB0B9091FC0BA091FD0BB091FE0BDE
:203300008D839E83AF83B8878091870B882359F40F2EF0E0EF2EF0E0FF2EF0E80F2FFFE351
:203320001F2FF02D0AC00F2EF0E7EF2EF2E4FF2EF1E20F2FFDE31F2FF02DC601B5010E94A9
:2033400075C6A80197010E94EBC9AB01BC0181EF93E022E00E94FB2A8091870B882359F4EB
:203360000F2EF0E0EF2EF0E0FF2EF0E80F2FFFE31F2FF02D0AC00F2EF0E7EF2EF2E4FF2EC5
:20338000F1E20F2FFDE31F2FF02DC201B101A40193010E9475C6A80197010E94EBC9AB0103
:2033A000BC0188EF93E022E00E94FB2A8091870B882359F40F2EF0E0EF2EF0E0FF2EF0E803
:2033C0000F2FFFE31F2FF02D0AC00F2EF0E7EF2EF2E4FF2EF1E20F2FFDE31F2FF02D69811E
:2033E0007A818B819C812D813E814F8158850E9475C6A80197010E94EBC9AB01BC018CEF37
:2034000093E022E00E94FB2A2091C70B3091C80B4091C90B5091CA0BA090940BB090950B4F
:20342000C090960BD090970B8091870B882359F40F2EF0E0EF2EF0E0FF2EF0E80F2FFFE3DF
:203440001F2FF02D0AC00F2EF0E7EF2EF2E4FF2EF1E20F2FFDE31F2FF02DCA01B9010E9480
:20346000DDC7A60195010E94EBC9A80197010E94EBC9AB01BC0180E094E022E00E94102B62
:2034800028960FB6F894DEBF0FBECDBFCF91DF911F910F91FF90EF90DF90CF90BF90AF909D
:2034A0009F908F907F906F905F904F903F902F9008950F931F9303E214E0C8016DE00E94D2
:2034C000054EC8016AE00E94054E1F910F9108956F927F928F929F92AF92BF92CF92DF92DC
:2034E000EF92FF920F931F93DF93CF9300D000D0CDB7DEB76091640C7091650C8091660C83
:203500009091670C2FE632E143E85AE30E94EBC97B018C01CE01019661E870E044E050E0D5
:203520002EE938E10E94EF17C801B70129813A814B815C810E9475C6AB01BC018DE494E0F9
:2035400022E00E94FB2A8EE694E00E949D29E091C601F091C701638574858585968520E0CB
:2035600030E040E751E40E9449C918160CF47AC06624772443018DE790E06EE978E10E9424
:203580000B187B018C01E60CF71C081D191DC801B70120E831E541E050E00E9436CB922E4C
:2035A000832E742E652E622F732F842F952F20E83EEA4EEF5FEF0E94C1CA5B016C01AE0C10
:2035C000BF1CC01ED11E8FE594E0492D582D672D762D0E94E729C601B50120E13EE040E0BB
:2035E00050E00E9436CB122F032FF42EE52E81E794E0422F502F6F2D7E2D0E94E729612FFB
:20360000702F8F2D9E2D20EF31EF4FEF5FEF0E94C1CAA60EB71EC81ED91EC601B5012CE3AA
:2036200030E040E050E00E9436CB88E794E0BA01A9010E94E72980E894E00E94242A0F9022
:203640000F900F900F90CF91DF911F910F91FF90EF90DF90CF90BF90AF909F908F907F90A6
:203660006F9008950E9454C42091600C3091610C4091620C5091630C621B730B840B950BF0
:2036800028EE33E040E050E00E9414CBC901DA013C014D0170CF1F93182FE0917502F0915F
:2036A000760244A555A566A577A584E094E022E00E94FB2AE0917502F091760240A951A923
:2036C00062A973A983E294E020E00E94FB2A0E946437AB01BC0187E094E022E00E94FB2AD9
:2036E0004091900150919101609192017091930183E294E020E00E94FB2A112391F08AE11C
:2037000094E061E070E00E94F8296CEF7FE08091880190918901681B790B8FE194E00E9455
:20372000F829E0918501F0E0E85BFB4F608185E194E070E00E94F829E0911801EF3F29F471
:20374000E0917502F0917602E081F0E0E85BFB4F60818BE094E070E00E94F8290E94591AE2
:203760001F910895809164028823C1F0109264020E947440809117018150809317018823FB
:2037800049F480911601833010F40E94363A85E0809317018EE69FE00E9435C0089508C07C
:2037A0000E946B490E94B21B8EE69FE00E9449998091810B8823A1F70895CF93DF9397FDE8
:2037C00010C0EC018F3F910521F01CF0CFEFD0E002C0009731F08091010C88608093010C9D
:2037E00007C08091010C877F8093010CC0E0D0E0662311F00E94CF1B80914B0490E0C817A9
:20380000D90729F083E494E0BE010E94C029C0934B04DF91CF9108952F923F924F925F9217
:203820006F927F928F929F92AF92BF92CF92DF92EF92FF920F931F93DF93CF93CDB7DEB76D
:20384000E0970FB6F894DEBF0FBECDBF6C0180912102282F84FF19C0D6018C9182FD09C01A
:2038600081FF13C016968D919C9117978F36910561F00E9454C46093400470934104809358
:203880004204909343040C949B28F6010081118102FF75C3808591858431910509F42DC280
:2038A0008531910558F48430910520F4029708F040C020C0049709F056C3E1C18A359105FD
:2038C00009F465C28B35910540F48531910509F418C24C9709F047C317C28C35910509F404
:2038E0005DC28C35910508F455C28C39910509F03AC30EC312FF12C0F601878D90A1A1A1BC
:20390000B2A12091000C0097A105B10519F0822F806202C0822F8F7D8093000CC6010E9401
:20392000DC6E882309F41FC381E061E00E943B651AC38091CB0B9091CC0BA091CD0BB091C9
:20394000CE0B89879A87AB87BC878091CF0B9091D00BA091D10BB091D20B8D879E87AF8767
:20396000B88B8091D30B9091D40BA091D50BB091D60B898B9A8BAB8BBC8BC6010E94DC6E79
:20398000882309F4F0C2FE01319688E0DF011D928A95E9F7F601828180FD05C020E030E0C5
:2039A00040E050E007C0D60197962D913D914D915C919A978091870B882351F0CA01B90150
:2039C00023E333E34BEC51E40E94EBC99B01AC0129833A834B835C83F601828181FD05C06D
:2039E00020E030E040E050E007C0D6019B962D913D914D915C919E978091870B882351F07D
:203A0000CA01B90123E333E34BEC51E40E94EBC99B01AC012D833E834F835887FE017596CE
:203A200080E1DF011D928A95E9F78091CB0B9091CC0BA091CD0BB091CE0B8D8B9E8BAF8B1A
:203A4000B88F8091CF0B9091D00BA091D10BB091D20B898F9A8FAB8FBC8F8091D30B909137
:203A6000D40BA091D50BB091D60B8D8F9E8FAF8FB8A36091EF0B7091F00B8091F10B90913D
:203A8000F20B0E94DDC72091940B3091950B4091960B5091970B0E94EBC969A37AA38BA390
:203AA0009CA3F601828182FFC7C087A490A8A1A8B2A88091870B882351F0C501B40123E3AF
:203AC00033E34BEC51E40E94EBC94B015C016D897E898F89988D29853A854B855C850E946B
:203AE00074C66DA77EA78FA798AB698D7A8D8B8D9C8D2D853E854F8558890E9474C62B016A
:203B00003C01C501B40120E030E040E850E40E94EBC9A50194010E94EBC97B018C016DA57F
:203B20007EA58FA598A99B01AC010E94EBC99B01AC01C801B7010E9474C67B018C01C301DB
:203B4000B201A30192010E94EBC99B01AC01C801B7010E9474C60E9458CA7B018C016DA5A0
:203B60007EA58FA598A9A30192010E9456C99B01AC0117FB109517F91095C801B7010E94DD
:203B800042C77B018C01A80197010E94A5CA882329F085E894E00E94292AE5C1D6011896FC
:203BA0008D919C911997039721F417FB109517F91095C501B40120E030E040E050E00E9472
:203BC0003BC7882344F417FB109517F91095B7FAB094B7F8B094C301B201A80197010E9452
:203BE000EBC99B01AC016DA57EA58FA598A90E9474C620E030E040E05FE30E94EBC969838E
:203C00007A838B839C836DA57EA58FA598A9A80197010E94EBC99B01AC01C301B2010E94D7
:203C200075C620E030E040E05FE30E94EBC96D837E838F8398870CC069817A818B819C8185
:203C40002D813E814F8158850E9456C94B015C01E0E0D60118968D919C911997029709F40A
:203C6000E1E0CE010996BE016B5E7F4FAE014F5F5F4F95018401EE2E0E94E65574C10E94C9
:203C8000CF1BF6018081918193FD04C0EE24FF24870107C0D6019396ED90FD900D911C9103
:203CA000969792FF0DC0F601678D70A181A192A128EE33E040E050E00E94C1CA7B018C0179
:203CC0000E9454C45B016C01AE0CBF1CC01ED11E04C00E946B490E94B21B0E9454C4A60115
:203CE0009501261B370B480B590BDA01C90180509449A543B74768F336C181E08093870B64
:203D000032C11092870B2FC1C80188739070892B11F080E008C0C80156E0969587955A95B6
:203D2000E1F78095817006FF08C01092C70B1092C80B1092C90B1092CA0B882321F041E025
:203D400051E061E01DC0D6012D913C91C90188739070892BC1F0C90143E0969587954A9575
:203D6000E1F7582F5170C90134E0969587953A95E1F7682F617025FD02C040E001C041E009
:203D8000852F0E94907380E00E943A6AECC01092B90BE9C081E08093B90BE5C0A090F30B5E
:203DA000B090F40BE090F50BF090F60B6090F70B7090F80B8090F90B9090FA0B2090FB0BEF
:203DC0003090FC0B4090FD0B5090FE0B03FF21C0F60122853385448555858091870B882331
:203DE00051F0CA01B90123E333E34BEC51E40E94EBC99B01AC01CA01B9012091CB0B309109
:203E0000CC0B4091CD0B5091CE0B0E9474C65B017C0104FF23C0D6011E962D913D914D91D8
:203E20005C9151978091870B882351F0CA01B90123E333E34BEC51E40E94EBC99B01AC0172
:203E4000CA01B9012091CF0B3091D00B4091D10B5091D20B0E9474C63B014C0105FF21C001
:203E6000F60122893389448955898091870B882351F0CA01B90123E333E34BEC51E40E94FB
:203E8000EBC99B01AC01CA01B9012091D30B3091D40B4091D50B5091D60B0E9474C61B0106
:203EA0002C01B501C7019301A401710182010E94196AD6018C9186FF56C056962D913D91FD
:203EC0004D915C9159978091870B882351F0CA01B90123E333E34BEC51E40E94EBC99B0199
:203EE000AC01CA01B9012091E1013091E2014091E3015091E4010E94EBC90E94AAC7609382
:203F0000C70B7093C80B8093C90B9093CA0B2BC080E061E040E00E94907300D000D0209178
:203F2000360C3091370C4091380C5091390C8091F9019091FA01A091FB01B091FC01EDB7CA
:203F4000FEB781839283A383B48360E87FE483EC97E47B018C015B016C010E9449720F90D3
:203F60000F900F900F900E9454C4609340047093410480934204909343040C949B2801FD07
:203F800002C00C948928D60116968D919C9117978237910509F4C9C68337910508F081C02E
:203FA0008A32910509F47EC18B329105C8F58931910509F427C18A319105C8F486319105D4
:203FC00009F404C18731910548F48431910509F4F3C0459711F00C949B28F3C08731910559
:203FE00009F4F9C0489711F00C949B2806C18C31910509F42BC18D31910548F48A319105E4
:2040000009F406C14B9711F00C949B281AC18E31910509F427C1809711F00C949B2831C114
:204020008336910509F427C684369105D8F48435910509F49AC58535910550F4823591059F
:2040400009F48CC58335910511F00C949B2889C58535910509F4A5C58C35910511F00C9463
:204060009B28C0C58A36910509F45CC58B36910550F48836910509F45DC18936910511F024
:204080000C949B2807C28D36910509F40DC28F36910509F430C68B36910511F00C949B28C6
:2040A00053C58E3C910509F468C78F3C9105E8F58E3B910509F4E9C38F3B9105D8F485372E
:2040C000910509F435C68637910550F48337910509F424C68437910511F00C949B287DC48E
:2040E0008737910509F435C68C38910511F00C949B2896C18B3C910509F4E3C68C3C9105FE
:2041000050F4893C910509F450C68A3C910511F00C949B2890C68C3C910509F4E5C68D3C08
:20412000910511F00C949B2825C7B1E080399B0709F498C7E1E081399E07E0F48D3D9105FD
:2041400009F480C78E3D910550F48F3C910509F418C78C3D910511F00C949B2861C7F1E07D
:204160008F329F0709F4AAC48E55914011F00C949B28CAC731E0843F930709F4ACC741E0C5
:20418000853F940750F451E08139950709F46DC78259914009F0CFC76BC7B1E0863F9B075F
:2041A00009F4AFC7E1E0863F9E0708F49CC7875F914009F0C0C7DEC682ED9CE00E94777AA9
:2041C000BAC782ED9CE00E94EA7DB5C782ED9CE00E94AD78B0C717FFAEC782ED9CE060E00F
:2041E0000E940589D601D3966D917C91D49782ED9CE040E00E94E0799EC782ED9CE00E94E1
:20420000C57899C782ED9CE060E00E94367D93C712FF91C7F601478D50A161A172A18091DC
:204220003C0D882309F487C74093330D5093340D6093350D7093360D82E19DE00E949686EF
:204240007AC782ED9CE00E94BB7975C717FF73C7D601D3966D917C91D49782ED9CE00E948D
:204260007C7969C717FF67C782ED9CE060E00E940589F60163A974A982ED9CE00E942D7927
:204280005AC717FF58C782ED9CE060E00E940589D601D3966D917C91D49782ED9CE00E942A
:2042A000F17849C712FF47C713FF45C7F601878D90A1A1A1B2A1B7FD3EC78F3F9105A105B4
:2042C000B10511F00CF037C703A114A120E030E0F901EE0FFF1FE155FE4FE4918E2F90E08A
:2042E0008017910709F427C72F5F3F4F2833310579F717FD20C7802F61E00E948BC5802FFB
:20430000D6015F966C910E9408C6F601678D70A1802F0E940DC580EB94E0B8010E94F829EA
:20432000D6015F966D917C9190978CEB94E00E94C02901C70E94E839882309F0FCC60E9476
:2043400054C4609340047093410480934204909343048091210283FDEEC6F6018081918191
:2043600093FD0AC092FF0AC0878D90A1A1A1B2A10097A105B10511F40E94CF1BD6018D9135
:204380009C91119792FFD7C65F968D909D90AD90BC9092979C012070317091FF1EC05E96F9
:2043A0000C91232B11F410E00FC010E0F601628D738D848D958D20E030E040E050E00E9443
:2043C00049C918160CF411E0C501B4010E94DDC7402F212F0E94353EAEC6E0917502F0913A
:2043E00076020081232B11F410E011C010E0D6015A966D917D918D919C915D9720E030E09E
:2044000040E050E00E9449C918160CF411E0C501B4010E94DDC7402F212F0E94353E8BC693
:204420000E94E839882309F086C60E9454C4609340047093410480934204909343048091BC
:20444000210283FD78C6F6018081918192FF73C6E78CF0A001A112A190FD02C0BB2412C04F
:20446000BB24D6015A966D917D918D919C915D9720E030E040E050E00E9449C9181614F401
:20448000BB24B394C801B7010E94DDC74B2D0E94713A51C683E0169507958A95E1F7802F03
:2044A00081700E944B1B47C60E94E839882309F042C60E9454C4609340047093410480933B
:2044C0004204909343048091210283FD34C68EE69FE065E072E040E00E944F988EE69FE058
:2044E0000E94E3B50E94CF1B8090750290907602F6012081318131FF07C0868D882321F4C3
:2045000019E1812E11E0912E32FF27C0D6015F96ED90FD900D911C919297F401A08030FD9E
:2045200002C0BB2412C0BB24D6015A966D917D918D919C915D9720E030E040E050E00E9415
:2045400049C9181614F4BB24B394C801B7010E94DDC74A2D2B2D0E94353EF40164A575A52A
:2045600086A597A520A931A942A953A90E9474C67B018C0120E030E040E050E00E9449C951
:2045800018165CF4C801B70120E030E040E050E40E943BC7882364F4CEC5C801B70120E0FD
:2045A00030E040E050EC0E9449C918160CF4C3C53324D4019A962D913C919B9798968D91C0
:2045C0009C9199978217930714F4332433940E9454C469A77AA78BA79CA7442455243201B1
:2045E00010E00E9454C46DA37EA38FA398A7DC01CB0129A53AA54BA55CA5821B930BA40B3E
:20460000B50B895E9340A040B04058F080E00E944B1B8DA19EA1AFA1B8A589A79AA7ABA7C3
:20462000BCA70E94B21B80917502909176028816990609F067C0D4019396ED90FC909497F8
:204640001E141F040CF05EC0112309F05BC0332009F458C091966D917C919297882777FDBD
:204660008095982F0E94DDC79B01AC01F40164A575A586A597A50E9449C918160CF042C070
:2046800000D000D000D00DB71EB70F5F1F4F662777276E197F09882777FD8095982F0E945A
:2046A000DDC72091E1013091E2014091E3015091E4010E94EBC90E94AAC75B016C01F4017D
:2046C00087859089A189B289F80180839183A283B3831482158260E070E080E090E020E058
:2046E00030E040E050E0EE24FF2487010E94146911E02DB73EB72A5F3F4F0FB6F8943EBF4F
:204700000FBE2DBF411451046104710409F053C03320C9F0D401D0966D917D918D919C91B2
:20472000D39720E030E040E85FE30E9474C69B01AC01F40164A575A586A597A50E9449C93D
:2047400087FF1AC04ECFD401D0966D917D918D919C91D39720E030E040E85FE30E9475C689
:204760009B01AC01F40164A575A586A597A50E943BC718160CF435CFD4015F966D917C91C6
:204780009097882777FD8095982F28EE33E040E050E00E94C1CA2B013C012DA13EA14FA147
:2047A00058A5420E531E641E751E411451046104710409F416CFD301C2012DA13EA14FA18C
:2047C00058A5821B930BA40BB50B80509449A543B74708F406CF112309F44AC0809175020B
:2047E000909176028816990609F042C000D000D000D00DB71EB70F5F1F4FD40193966D9107
:204800007C919497882777FD8095982F0E94DDC72091E1013091E2014091E3015091E40169
:204820000E94EBC90E94AAC75B016C01F40187859089A189B289F80180839183A283B3835C
:204840001482158260E070E080E090E020E030E040E050E0EE24FF2487010E9414692DB7AB
:204860003EB72A5F3F4F0FB6F8943EBF0FBE2DBF1092AE0F0E9454C460934004709341048D
:20488000809342049093430456C423FD54C48EE69FE069EF71E040E00E944F988EE69FE0CB
:2048A0000E94E3B50E94CF1BD6018D919C91119792FF21C05F96ED90FD900D911C91929783
:2048C00090FD02C0BB2410C0BB24F601628D738D848D958D20E030E040E050E00E9449C9CE
:2048E000181614F4BB24B394C801B7010E94DDC74B2D0E94713A60918C0170918D018091B2
:204900008E0190918F01209190013091910140919201509193010E9474C67B018C0120E004
:2049200030E040E050E00E9449C918165CF4C801B70120E030E040E450E40E943BC78823AD
:2049400064F4F9C3C801B70120E030E040E450EC0E9449C918160CF4EEC30E9454C47B0189
:204960008C0114C00E9454C46E197F09800B910B695E73408040904038F080E00E944B1B4C
:204980000E9454C47B018C010E94B21B60918C0170918D0180918E0190918F0120E030E077
:2049A00040E05FE30E9475C6209190013091910140919201509193010E943BC787FDD2CF81
:2049C0001092AE0F0E9454C460934004709341048093420490934304AEC323FDACC30E94DA
:2049E00054C44B015C010E9454C4681979098A099B09695E73408040904038F080E00E94CE
:204A00004B1B0E9454C44B015C010E94B21BC090C601D090C701D6011B96ED90FD900D91EF
:204A20001C911E97C801B70120E030E040EF51E40E9449C91816A4F4C801B701F601278185
:204A40003085418552850E9474C69F7720E030E040E85FE30E9449C9181614F4772402C051
:204A600077247394C090C801D090C901D6011B96ED90FD900D911C911E97C801B70120E03E
:204A800030E040EF51E40E9449C918169CF4C801B701F60127813085418552850E9474C6E2
:204AA0009F7720E030E040E85FE30E9449C918160CF499CF772009F496CF3DC312FD03C051
:204AC00026E930E005C0D6015F962D913C91909713FD03C0CC24DD240AC0F601C3A0D4A018
:204AE000F2E0CF16D1041CF0B2E0CB2ED12CF601EE0FFF1FEA53FE4FE080F180B9018827C0
:204B000077FD8095982F0E94DDC7AB01BC01E3E016950795EA95E1F70170C7012C2D0E9401
:204B2000D83A09C312FD03C08FEF90E005C0D6015F968D919C919097612F66956695669553
:204B400061700E94DD1BF7C2612F669566956695617080E090E00E94DD1BEDC21092BA0B5F
:204B6000EAC281E08093BA0BE6C212FF14C0F601678D70A181A192A128EE33E040E050E0F9
:204B80000E94C1CA6093CB017093CC018093CD019093CE01D0C20E94CF1B81E00E94D3741E
:204BA000CAC212FF16C0D6015F966D917D918D919C91929728EE33E040E050E00E94C1CA90
:204BC00060934404709345048093460490934704B2C21092440410924504109246041092AC
:204BE0004704A9C203FF0DC0F60182859385A485B5858093D5019093D601A093D701B09386
:204C0000D801D6018C9184FF0EC01E968D919D910D90BC91A02D8093D9019093DA01A093A1
:204C2000DB01B093DC01F601808185FF0CC082899389A489B5898093DD019093DE01A09378
:204C4000DF01B093E0010E947D75D6018C9186FF72C2E0917502F091760256962D913D91B6
:204C60004D915C915997218732874387548780810E94FB3E60C212FD07C040E1842E47E2A3
:204C8000942EA12CB12C0DC0F601678D70A181A192A128EE33E040E050E00E94C1CA4B0198
:204CA0005C0103FD5E9A04FD5E9A05FD159A0E9454C47B018C01E80CF91C0A1D1B1D02C008
:204CC0000E9421750E9454C4A8019701261B370B480B590BDA01C901805A9648A140B04039
:204CE00078F3D6013C9133FD5E9834FD5E9835FF22C2159820C212FF04C0F601878D8093BE
:204D000021028091210283FF16C260E070E080E090E040E020E00E94353E0DC286E192E0A5
:204D20000E94242A0E94681A06C20E94321903C217FF01C2D601D3966D917C91D4978EE6E2
:204D40009FE040E00E947B988EE69FE00E94E3B5F2C10E94CF1B87EC94E00E949D29329B77
:204D600003C084EC94E002C081EC94E00E949D2985ED94E00E949D29339B03C084EC94E0BE
:204D800002C081EC94E00E949D2983EE94E00E949D29349B03C084EC94E002C081EC94E0A2
:204DA0000E949D290E94591AC6C103FF0DC0F60182859385A485B58580930102909302026A
:204DC000A0930302B0930402D6018C9184FF0EC01E968D919D910D90BC91A02D809305023C
:204DE00090930602A0930702B0930802F601808185FF0CC082899389A489B5898093090207
:204E000090930A02A0930B02B0930C02D6018C9186FF0EC056968D919D910D90BC91A02D9C
:204E200080930D0290930E02A0930F02B09310020E947D7580C103FF0DC0F60182859385CA
:204E4000A485B5858093110290931202A0931302B0931402D6018C9184FF0EC01E968D91DA
:204E60009D910D90BC91A02D8093150290931602A0931702B0931802F601808185FF0CC0F7
:204E800082899389A489B5898093190290931A02A0931B02B0931C02D6018C9186FF0EC01B
:204EA00056968D919D910D90BC91A02D80931D0290931E02A0931F02B09320020E947D7541
:204EC0003AC112FF38C1F601278D30A141A152A112161306140615061CF0209316012BC144
:204EE00081E08093160127C1809175029091760212FD03C0FC01B59610C0F601878D90A1F8
:204F0000A1A1B2A1B7FD17C10097A105B10519F4EEE3F1E002C0E5E8F1E003FF0BC0D601CA
:204F20001A962D913D914D915C911D97228F338F448F558FD6018C9184FF0AC01E962D91D9
:204F40003D914D915C915197268F378F40A351A3D6018C9185FF0AC052962D913D914D91EA
:204F60005C91559722A333A344A355A3CF010E941837E1C00E94412CDEC0C6010E94AC3486
:204F8000DAC003FF0DC0F60182859385A485B58580934E0C90934F0CA093500CB093510C15
:204FA000D6018C9186FF11C0E0917502F091760256962D913D914D915C915997278B308F22
:204FC000418F528F80810E94FB3EF601808185FF0CC082899389A489B5898093520C9093D6
:204FE000530CA093540CB093550C40914E0C50914F0C6091500C7091510C81EF94E022E023
:205000000E94FB2A4091520C5091530C6091540C7091550C87EF94E022E00E94102B8BC093
:2050200012FD05C024E630E040E050E007C0D6015F962D913D914D915C919297C9010E94B3
:20504000D01879C012FD05C024E630E040E050E005C0F601278D30A141A152A1C9010E946F
:20506000BB1869C00E94CF1B66C00E94086B63C010FF08C0D6015A96CD90DD90ED90FC90D9
:205080005D9708C0C090460CD090470CE090480CF090490CB80134E0769567953A95E1F7EB
:2050A0006170A80125E0569547952A95E1F74170980196E0369527959A95E1F7217083E0D1
:2050C000169507958A95E1F7802F8170870176010E94247430C080E00E94BB2E80ED97E0FA
:2050E0000E94432A28C00E94A231E0917502F091760280810E94FB3E80EF97E00E94432A92
:205100001AC00E94273517C087EE91E00E94242A12C011FF07C00E94CF1BF601868D0E9429
:20512000FB3E09C022FF07C086ED93E00E949D29C6010E94A343E0960FB6F894DEBF0FBEB7
:20514000CDBFCF91DF911F910F91FF90EF90DF90CF90BF90AF909F908F907F906F905F90EE
:205160004F903F902F900895CF93DF930E946B490E949243EC018EE69FE00E944999209769
:20518000D1F080913D0D882381F0888181FF04C08E819F814D9791F082ED9CE0BE010E94AA
:2051A0001D7BCE010E94614803C0CE010E940C1CCE010E9472480E942175D8CF82ED9CE0EC
:2051C0000E945C79EECFCF93DF9320C080913D0D882381F0888181FF04C08E819F814D9710
:2051E00039F182ED9CE0BE010E941D7BCE010E94614803C0CE010E940C1CCE010E94724800
:205200000E94B21B8EE69FE00E9449998091810B882329F40E949243EC01009771F00E9445
:205220006B498EE69FE00E944999209779F6E8CF82ED9CE00E945C79D9CFDF91CF910895EF
:20524000CF93DF93EC0105C0219683E294E00E94054E68816623C1F7DF91CF910895AF926B
:20526000BF92CF92DF92EF92FF920F931F93DF93CF93CDB7DEB72B970FB6F894DEBF0FBE3B
:20528000CDBFC62ED92E1B869BE0A92EB12CAC0EBD1E6C2D9D2D2AE030E040E050E00E94B3
:2052A00014CBD52E7901042F152F80E3C80EC801B7012AE030E040E050E00E94C1CAC61AEA
:2052C000F501C2925F01CE2C7F2D802FE114F10401051105F1F6CF010E9420292B960FB6A1
:2052E000F894DEBF0FBECDBFCF91DF911F910F91FF90EF90DF90CF90BF90AF900895EF9284
:20530000FF920F931F937B018C0197FF0DC083E294E06DE20E94054E10950095F094E094ED
:20532000E11CF11C011D111DC801B7010E942F291F910F91FF90EF900895CF93DF93EC01E0
:2053400004C083E294E00E94054EFE01649121966623B9F7DF91CF910895EF92FF920F93B6
:205360001F937A018B010E949D29C801B7010E942F290E94591A1F910F91FF90EF90089581
:20538000EF92FF920F931F937B010E949D290027F7FC0095102FC801B7010E947F290E9468
:2053A000591A1F910F91FF90EF900895EF92FF920F931F937A018B010E949D29C801B70129
:2053C0000E942F291F910F91FF90EF900895EF92FF920F931F937A018B010E949D29C8013A
:2053E000B7010E947F291F910F91FF90EF900895EF92FF920F931F937B010E949D2900273F
:20540000F7FC0095102FC801B7010E947F291F910F91FF90EF9008950F931F938B010E947D
:205420009D29C8010E9420291F910F9108950F931F938B010E949D29C8010E9420290E9467
:20544000591A1F910F9108950E949D290E94591A08950F931F938C0181ED92E00E949D29A9
:20546000C8010E94242A1F910F9108950F931F938C0188ED92E00E949D29C8010E94242A9D
:205480001F910F9108950F931F938C0188ED92E00E949D29C8010E949D291F910F910895D1
:2054A0009F92AF92BF92CF92DF92EF92FF920F931F93CF93DF937B018C01942EA801970111
:2054C0000E94A5CA882319F089EC92E020C0C0E0D0E057016801E894D7F8C601B5012FEF49
:2054E0003FEF4FE75FE70E94A5CA882351F4C601B5012FEF3FEF4FE75FE70E943BC71816EA
:2055000014F0C1E0D0E0219729F08DEC92E00E949D2965C0C801B70120E030E040E050E00C
:205520000E943BC788234CF483E294E06DE20E94054E17FB109517F9109520E030E040E023
:205540005FE3DD240BC0CA01B90120E030E040E251E40E9442C79B01AC01D394D91498F37E
:20556000C801B7010E9475C65B016C010E94AFC77B018C010E942F29992029F083E294E03E
:205580006EE20E94054EC801B7010E94DBC79B01AC01C601B5010E9474C61FC020E030E070
:2055A00040E251E40E94EBC97B018C010E94AAC75B016C01CC24B7FCC094DC2CC601B501DD
:2055C0000E947F29C601B5010E94DDC79B01AC01C801B7010E9474C69A949920F9F6DF91D2
:2055E000CF911F910F91FF90EF90DF90CF90BF90AF909F900895DF92EF92FF920F931F93EE
:205600007A018B01D22E0E949D29C801B7014D2D0E94502A1F910F91FF90EF90DF9008959A
:20562000DF92EF92FF920F931F937A018B01D22E0E949D29C801B7014D2D0E94502A0E946B
:20564000591A1F910F91FF90EF90DF9008959C01F999FECF32BD21BDF89A80B508959C01A3
:20566000F999FECF1FBA32BD21BD60BD0FB6F894FA9AF99A0FBE0895885C904022E08835B3
:20568000920778F464E670E00E94EDCA6F5F7F4F87E598E00E94F82983E294E060E20E9412
:2056A000054E08950F931F93CF93DF93EC018B018DE598E0BE010E94F82983E294E060E2D2
:2056C0000E94054EF999FECFD2BDC1BDF89A60B570E0882777FD8095982F0E947F2983E2C4
:2056E00094E060E20E94054ECE010E943C2BC8010E94242ADF91CF911F910F910895CF9250
:20570000DF92EF92FF920F931F938C016B0184E698E0B8010E94F82983E2E82E84E0F82E56
:20572000C70160E20E94054EC80167E27BE20E943118AA2797FDA095BA2FBC01CD010E9460
:205740007F29C70160E20E94054EC8010E943C2BC6010E94242A1F910F91FF90EF90DF904C
:20576000CF900895CF92DF92EF92FF920F931F938C016B018BE698E0B8010E94F82993E222
:20578000E92E94E0F92EC70160E20E94054EC80167E27BE20E940B180E947F29C70160E2D0
:2057A0000E94054EC8010E943C2BC6010E94242A1F910F91FF90EF90DF90CF900895F99910
:2057C000FECF12BC11BCF89A80B5813171F48BE490E067E27BE20E940B186093CF01709373
:2057E000D0018093D1019093D2010895DF93CF9300D000D0CDB7DEB7BC01CE01019644E08C
:2058000050E027E23BE20E94EF1729813A814B815C81B901CA010F900F900F900F90CF911B
:20582000DF910895BF92CF92DF92EF92FF920F931F938C016B01B42E82E798E0B8010E94BB
:20584000F82923E2E22E24E0F22EC70160E20E94054EC8010E94F62B4B2D0E94502AC70107
:2058600060E20E94054EC8010E943C2BC6010E94242A1F910F91FF90EF90DF90CF90BF90ED
:2058800008958BE490E069E778E00E94B22B81E890E062E878E043E00E94122C8DE790E003
:2058A00067E978E00E94B22B8FE490E06AEA78E00E94B22B83E590E068EC78E00E94B22BB0
:2058C00083E090E06BEA79E044E00E94122C87E090E06FEB79E044E00E94122C8BE090E0DA
:2058E00063ED79E044E00E94122C8FE090E067EE79E043E00E94122C83E190E063E07AE0FA
:2059000043E00E94122C87E190E06FE17AE043E00E94122C8BE190E06BE37AE043E00E94B6
:20592000122C8FE190E069E57AE043E00E94122C83E290E067E77AE043E00E94122C87E2B5
:2059400090E067E879E043E00E94122C8FE290E068E979E043E00E94122C85E890E061EF71
:2059600078E043E00E94122C89E890E061E079E043E00E94122C8DE890E061E179E043E0AB
:205980000E94122C81E990E061E279E043E00E94122C85E990E063E379E043E00E94122C2E
:2059A00089E990E065E479E043E00E94122C83E390E065E97AE043E00E94122C87E390E005
:2059C00062EB7AE043E00E94122C8BE390E06FEC7AE043E00E94122C8FE390E06CEE7AE0F1
:2059E00043E00E94122C83E490E060E17BE043E00E94122C87E490E064E37BE043E00E94EC
:205A0000122C8AE690E065E07CE00E94522B8BE690E06CE17CE00E94522B8CE790E06EE2CC
:205A20007CE00E94522B8CE690E060E47CE043E00E94122C80E790E06FE47CE043E00E941B
:205A4000122C84E790E06EE57CE043E00E94122C88E790E06DE67CE00E94522B88EC90E0EA
:205A600067E87CE043E00E94122C8CEC90E064E97CE043E00E94122C80ED90E069EA7CE058
:205A800043E00E94122C84ED90E06FEB7CE043E00E94122C88ED90E065ED7CE00E94522BB7
:205AA00089ED90E068EE7CE00E94522B85EF90E066EF7CE00E94522B8AED90E064E07DE0F3
:205AC00044E00E94122C8EED90E069E17DE044E00E94122C82EE90E064E27DE044E00E94E3
:205AE000122C86EE90E06FE27DE00E94522B87EE90E065E47DE00E94B22B8BEE90E066E579
:205B00007DE00E94B22B8FEE90E067E67DE00E947F2B8AEF90E060E87DE00E947F2B8CEF71
:205B200090E066EA7DE00E947F2B8EEF90E06CEC7DE00E94522B0895DF93CF9300D000D02A
:205B4000CDB7DEB749835A836B837C83BE016F5F7F4F44E050E02FE23BE20E9447180F9019
:205B60000F900F900F90CF91DF91089588E293E040E050E060EA70E40E949C2D8CE293E0C4
:205B800040E050E060E070E40E949C2D88E493E040E050E068E473E40E949C2D80E293E0A4
:205BA00040E050E060E070E00E949C2D84E293E040E050E060E070E00E949C2D80E393E0A0
:205BC00040E050E066E173E40E949C2D84E393E040E050E060EA70EC0E949C2D88E393E053
:205BE00040E050E066E173E40E949C2D8CE393E040E050E060E273E40E949C2D80E493E03F
:205C000040E050E060EF71EC0E949C2D84E493E040E050E060E273E40E949C2D81EA93E010
:205C200040E050E060E870E40E949C2D0895EF92FF920F931F936091640C7091650C809126
:205C4000660C9091670C20E030E040E050E00E943BC7882309F48AC00E9454C42091600C71
:205C60003091610C4091620C5091630C621B730B840B950B28EE33E040E050E00E9414CB43
:205C800079018A018DE790E067E27BE20E940B18E60EF71E081F191F8DE790E0B801A70103
:205CA0002FE23BE20E94631881E890E00E94F62B7B018C016091640C7091650C8091660C9E
:205CC0009091670C2FE632E143E85AE30E94EBC99B01AC01C801B7010E9475C6AB01BC013A
:205CE00081E890E00E949C2D80E090E0A0E0B0E08093640C9093650CA093660CB093670C0E
:205D00000E9454C46093600C7093610C8093620C9093630C20E030E040E02836310539F0FA
:205D2000F999FECF32BD21BDF89A80B5480F2F5F3F4F88E02030380781F7F999FECF88E6C1
:205D400090E092BD81BDF89A80B5481769F0F999FECF1FBA88E690E092BD81BD40BD0FB662
:205D6000F894FA9AF99A0FBE0E94681A1F910F91FF90EF9008951F93182F4091CF01509109
:205D8000D0016091D1017091D2018BE490E02FE23BE20E946318409144045091450460913D
:205DA0004604709147048FE490E02FE23BE20E9463184091CB015091CC016091CD01709114
:205DC000CE0183E590E02FE23BE20E9463184091D5015091D6016091D7017091D80183E06C
:205DE00090E00E949C2D4091D9015091DA016091DB017091DC0187E090E00E949C2D4091A3
:205E0000DD015091DE016091DF017091E0018BE090E00E949C2D4091E5015091E60160917B
:205E2000E7017091E8018FE090E00E949C2D4091E9015091EA016091EB017091EC0183E190
:205E400090E00E949C2D4091ED015091EE016091EF017091F00187E190E00E949C2D4091F1
:205E6000F5015091F6016091F7017091F8018BE190E00E949C2D4091F9015091FA01609192
:205E8000FB017091FC018FE190E00E949C2D4091FD015091FE016091FF017091000283E2B5
:205EA00090E00E949C2D40914E0C50914F0C6091500C7091510C87E290E00E949C2D4091E0
:205EC000520C5091530C6091540C7091550C8FE290E00E949C2D409101025091020260917B
:205EE00003027091040283E390E00E949C2D4091050250910602609107027091080287E325
:205F000090E00E949C2D4091090250910A0260910B0270910C028BE390E00E949C2D4091B6
:205F200011025091120260911302709114028FE390E00E949C2D409115025091160260911D
:205F400017027091180283E490E00E949C2D4091190250911A0260911B0270911C0287E44A
:205F600090E00E949C2D20919801F999FECF1FBA8AE690E092BD81BD20BD0FB6F894FA9A95
:205F8000F99A0FBE20919D01F999FECF1FBA8BE690E092BD81BD20BD0FB6F894FA9AF99A57
:205FA0000FBE20919E01F999FECF1FBA8CE790E092BD81BD20BD0FB6F894FA9AF99A0FBEFA
:205FC00040919F015091A0016091A1017091A2018CE690E00E949C2D4091A3015091A4014F
:205FE0006091A5017091A60180E790E00E949C2D4091A7015091A8016091A9017091AA01D6
:2060000084E790E00E949C2D2091AB01F999FECF1FBA88E790E092BD81BD20BD0FB6F8940B
:20602000FA9AF99A0FBE4091320C5091330C6091340C7091350C85E890E00E949C2D4091B1
:206040003A0C50913B0C60913C0C70913D0C89E890E00E949C2D4091420C5091430C6091C3
:20606000440C7091450C8DE890E00E949C2D40912E0C50912F0C6091300C7091310C81E932
:2060800090E00E949C2D4091360C5091370C6091380C7091390C85E990E00E949C2D409159
:2060A0003E0C50913F0C6091400C7091410C89E990E00E949C2D8DE990E040E050E060E01C
:2060C00070E00E949C2D81EA90E040E050E060E070E00E949C2D85EA90E040E050E060E070
:2060E00070E00E949C2D4091220150912301609124017091250188EC90E00E949C2D40918F
:2061000028015091290160912A0170912B018CEC90E00E949C2D40913001509131016091A9
:2061200032017091330180ED90E00E949C2D40912C0150912D0160912E0170912F0184EDE0
:2061400090E00E949C2D20915101F999FECF1FBA88ED90E092BD81BD20BD0FB6F894FA9AF5
:20616000F99A0FBE20915601F999FECF1FBA89ED90E092BD81BD20BD0FB6F894FA9AF99AB7
:206180000FBE20915701F999FECF1FBA85EF90E092BD81BD20BD0FB6F894FA9AF99A0FBE5E
:2061A000409158015091590160915A0170915B018AED90E00E949C2D40915C0150915D0112
:2061C00060915E0170915F018EED90E00E949C2D409160015091610160916201709163018A
:2061E00082EE90E00E949C2D20916401F999FECF1FBA86EE90E092BD81BD20BD0FB6F89467
:20620000FA9AF99A0FBE40911A0150911B0160911C0170911D0187EE90E02FE23BE20E94BF
:20622000631840911E0150911F0160912001709121018BEE90E02FE23BE20E946318609198
:206240003801709139018FEE90E04FE25BE20E94891860913A0170913B018AEF90E04FE2A9
:206260005BE20E94891860913C0170913D018CEF90E04FE25BE20E94891820918301F999CE
:20628000FECF1FBA8EEF90E092BD81BD20BD0FB6F894FA9AF99A0FBE81EF90E040E050E08C
:2062A00060E070E00E949C2D86EF90E040E050E060E070E00E949C2D1123A1F08DE790E00A
:2062C00040E050E060E070E02FE23BE20E94631881E890E040E050E060E070E00E949C2D6F
:2062E0000E94B62DF999FECF1FBA89E690E092BD81BD87E080BD0FB6F894FA9AF99A0FBE8C
:2063000020E030E040E02836310539F0F999FECF32BD21BDF89A80B5480F2F5F3F4F88E0C2
:206320002030380781F7F999FECF1FBA88E690E092BD81BD40BD0FB6F894FA9AF99A0FBE71
:206340001F9108951F93F999FECF89E690E092BD81BDF89A10B58BE490E067E27BE20E94F5
:206360000B186093CF017093D0018093D1019093D2018FE490E067E27BE20E940B18609347
:20638000440470934504809346049093470483E590E067E27BE20E940B186093CB01709399
:2063A000CC018093CD019093CE0183E090E00E94F62B6093D5017093D6018093D7019093F6
:2063C000D80187E090E00E94F62B6093D9017093DA018093DB019093DC018BE090E00E9433
:2063E000F62B6093DD017093DE018093DF019093E0018FE090E00E94F62B6093E501709354
:20640000E6018093E7019093E80183E190E00E94F62B6093E9017093EA018093EB0190930A
:20642000EC0187E190E00E94F62B6093ED017093EE018093EF019093F0018BE190E00E946C
:20644000F62B6093F5017093F6018093F7019093F8018FE190E00E94F62B6093F90170937E
:20646000FA018093FB019093FC0183E290E00E94F62B6093FD017093FE018093FF01909331
:20648000000287E290E00E94F62B60934E0C70934F0C8093500C9093510C8FE290E00E9441
:2064A000F62B6093520C7093530C8093540C9093550C83E390E00E94F62B6093010270937F
:2064C0000202809303029093040287E390E00E94F62B609305027093060280930702909396
:2064E00008028BE390E00E94F62B6093090270930A0280930B0290930C028FE390E00E940F
:20650000F62B6093110270931202809313029093140283E490E00E94F62B60931502709335
:206520001602809317029093180287E490E00E94F62B6093190270931A0280931B029093BC
:206540001C02F999FECF8AE690E092BD81BDF89A80B580939801F999FECF8BE690E092BD4F
:2065600081BDF89A80B580939D01F999FECF8CE790E092BD81BDF89A80B580939E018CE6AB
:2065800090E00E94F62B60939F017093A0018093A1019093A20180E790E00E94F62B609389
:2065A000A3017093A4018093A5019093A60184E790E00E94F62B6093A7017093A801809314
:2065C000A9019093AA01F999FECF88E790E092BD81BDF89A80B58093AB0185E890E00E9473
:2065E000F62B6093320C7093330C8093340C9093350C89E890E00E94F62B60933A0C709370
:206600003B0C80933C0C90933D0C8DE890E00E94F62B6093420C7093430C8093440C9093AB
:20662000450C81E990E00E94F62B60932E0C70932F0C8093300C9093310C85E990E00E94D2
:20664000F62B6093360C7093370C8093380C9093390C89E990E00E94F62B60933E0C7093FA
:206660003F0C8093400C9093410C88EC90E00E94F62B6093220170932301809324019093C1
:2066800025018CEC90E00E94F62B609328017093290180932A0190932B0180ED90E00E94D4
:2066A000F62B6093300170933101809332019093330184ED90E00E94F62B60932C017093FC
:2066C0002D0180932E0190932F01F999FECF88ED90E092BD81BDF89A80B580935101F99968
:2066E000FECF89ED90E092BD81BDF89A80B580935601F999FECF85EF90E092BD81BDF89AC7
:2067000080B5809357018AED90E00E94F62B609358017093590180935A0190935B018EED1E
:2067200090E00E94F62B60935C0170935D0180935E0190935F0182EE90E00E94F62B6093EA
:206740006001709361018093620190936301F999FECF86EE90E092BD81BDF89A80B58093CC
:20676000640187EE90E067E27BE20E940B1860931A0170931B0180931C0190931D018BEE4D
:2067800090E067E27BE20E940B1860931E0170931F0180932001909321018FEE90E067E23A
:2067A0007BE20E94311890933901809338018AEF90E067E27BE20E94311890933B018093FC
:2067C0003A018CEF90E067E27BE20E94311890933D0180933C01123068F0F999FECF8EEFDB
:2067E00090E092BD81BDF89A80B580938301173009F46CC083E398E00E94362A133008F0B3
:2068000058C088E293E040E050E060EA70E40E949C2D8CE293E040E050E060E070E40E94C3
:206820009C2D88E493E040E050E068E473E40E949C2D80E293E040E050E060E070E00E94FB
:206840009C2D84E293E040E050E060E070E00E949C2D80E393E040E050E066E173E40E94E5
:206860009C2D84E393E040E050E060EA70EC0E949C2D88E393E040E050E066E173E40E94A6
:206880009C2D8CE393E040E050E060E273E40E949C2D80E493E040E050E060EF71EC0E9484
:2068A0009C2D84E493E040E050E060E273E40E949C2D173040F481EA93E040E050E060E8EF
:2068C00070E40E949C2D80E00E94BB2E0E947D750E945F371F9108950F931F9320E030E091
:2068E00010E02836310539F0F999FECF32BD21BDF89A80B5180F2F5F3F4F88E020303807BE
:2069000081F7F999FECF88E690E092BD81BDF89A00B5F999FECF12BC11BCF89A80B581317B
:2069200029F4011719F40E94A23113C0F999FECF1FBA12BC11BC81E180BD0FB6F894FA9A76
