:200000000C94AB140C94D6140C94D6140C94D6140C94D6140C94D6140C94D6140C94D614BB
:200020000C94D6140C94D6140C94D6140C94D6140C94D6140C94184F0C94D6140C94D614F3
:200040000C94D6140C94514E0C9455C30C94D6140C94A24C0C94CC4C0C94D6140C94D6143B
:200060000C94D6140C94D6140C94D6140C94D6140C94D6140C94D6140C94D6140C94D61430
:200080000C94D6140C94D6140C94D614B59AE39A119B039CDCAADCAADCAADCAADCAADCAA87
:2000A000DCAADCAADCAA409B7F9BC09BDCAADCAADCAADCAADCAADCAADCAADCAADCAADCAA22
:2000C000DCAA8A9EEB9E4C9FAD9F0EA06FA0D0A054A1DDA5D8A150A2C8A23DA3B1A325A43C
:2000E00099A405A571A5DCAADCAADCAADCAADCAA589DC09DDCAA34A6A8A617A78DA7B5A717
:200100000BA848A885A8E4A845A9A4A903AA2FAADDA7DCAADCAADCAADCAADCAADCAADCAA94
:20012000DCAADCAADCAADCAADCAAEC9C219DDCAADCAADCAADCAADCAADCAADCAADCAADCAA25
:20014000DCAA7F9DDCAADCAADCAA68AAA5AADCAADCAADCAADCAAA79ADCAADCAA469C7F9CA8
:20016000CC9C259E084AD73B3BCE016E84BCBFFDC12F3D6C74319ABD56833DDA3D00C77F74
:2001800011BED9E4BB4C3E916BAAAABE000000803F05A84CCDB2D44EB93836A9020C50B940
:2001A000918688083CA6AAAA2ABE000000803F000001000F0015000E001200FFFF1600174B
:2001C000000E001300FFFF030002001A001400FFFF1B00FFFF0D000C000400010000000E8A
:2001E00000070006001F00536574204D6963726F7374657070696E670048656174696E6763
:20020000204265640048656174696E67204578747275646572004649524D574152455F4E76
:20022000414D453A52657065746965725F302E3931204649524D574152455F55524C3A68D9
:20024000747470733A2F2F6769746875622E636F6D2F72657065746965722F52657065748D
:200260006965722D4669726D776172652F2050524F544F434F4C5F56455253494F4E3A3123
:200280002E30204D414348494E455F545950453A4D656E64656C2045585452554445525FC9
:2002A000434F554E543A312052455045544945525F50524F544F434F4C3A3200446562750D
:2002C000673A006F6B000D0A004E414E00494E46004572726F723A00496E666F3A00576110
:2002E000726E696E673A00526573656E643A004563686F3A006F6B200057726F6E672063C8
:200300006865636B73756D004D697373696E6720636865636B73756D00466F726D61742017
:200320006572726F7200446F6E65207072696E74696E672066696C650020580020590020B1
:200340005A00204500204600205300205000204900204A0020520053442072656164206578
:2003600072726F72004572726F723A6578706563746564206C696E65200020676F742000B0
:20038000736B69702000424C4B2000737461727400506F77657255700045787465726E61B6
:2003A0006C2052657365740042726F776E206F7574205265736574005761746368646F67DA
:2003C00020526573657400536F66747761726520526573657400556E6B6E6F776E20636FAA
:2003E0006D6D616E643A00467265652052414D3A00583A0020583A0020593A00205A3A004F
:2004000020453A00543A0020423A0020403A002054002040002042403A0020524157003A85
:20042000002F00202F0053706565644D756C7469706C793A00466C6F774D756C7469706C34
:20044000793A0046616E73706565643A005072696E7465642066696C616D656E743A0050B9
:2004600072696E74696E672074696D653A006D20002064617973200020686F757273200089
:20048000206D696E00496E76616C696420617263002C002000593A005A3A0045303A004574
:2004A000313A004D53312C4D53322050696E7300536574206F7574707574200020746F2008
:2004C000004820004C2000785F6D696E3A00785F6D61783A00795F6D696E3A00795F6D61A0
:2004E000783A007A5F6D696E3A007A5F6D61783A004A65726B3A00205A4A65726B3A002074
:200500006C696E6561722073746570733A00207175616472617469632073746570733A0070
:200520002C2073706565643D00454550524F4D2075706461746564006C696E656172204C6B
:200540003A0020717561647261746963204B3A0054617267657445787472005461726765E1
:20056000744265643A00504944204175746F74756E652073746172740020626961733A2009
:200580000020643A2000206D696E3A2000206D61783A2000204B753A20002054753A200082
:2005A00020436C61737369632050494400204B703A2000204B693A2000204B643A20005080
:2005C0004944204175746F74756E65206661696C6564212054656D706572617475726520A5
:2005E000746F206869676800504944204175746F74756E65206661696C6564212074696DF6
:20060000656F757400504944204175746F74756E652066696E6973686564202120506C61E3
:20062000636520746865204B702C204B6920616E64204B6420636F6E7374616E747320690E
:200640006E2074686520436F6E66696775726174696F6E2E68206F7220454550524F4D00D4
:200660004D54454D503A006865617465642062656400657874727564657220003A20746541
:200680006D702073656E736F7220646566656374003A20776F726B696E67005072696E74D0
:2006A00065722073657420696E746F206472792072756E206D6F646520756E74696C207296
:2006C00065737461727421004175746F6C6576656C696E6720656E61626C65640041757462
:2006E0006F6C6576656C696E672064697361626C6564005A2D70726F6265206661696C651D
:2007000064005A2D70726F6265206D61783A005072696E746572206865696768743A007708
:20072000616974004731205A3320463630300A473120583130205931302046363030300AEF
:200740004731205A302E3220463630300A004731205A3320463630300A473120583139305C
:20076000205931302046363030300A4731205A302E3220463630300A004731205A33204656
:200780003630300A4731205831393020593139302046363030300A4731205A302E322046FE
:2007A0003630300A004731205A3320463630300A473120583130205931393020463630300E
:2007C000300A4731205A302E3220463630300A00436F6E66696775726174696F6E207374F8
:2007E0006F72656420746F20454550524F4D2E00436F6E66696775726174696F6E206C6FE3
:20080000616465642066726F6D20454550524F4D2E00436F6E66696775726174696F6E20E8
:20082000726573657420746F2064656661756C74732E0050726F746F636F6C2076657273BA
:20084000696F6E206368616E6765642C20757067726164696E6700457874722E00455052A3
:200860003A3020004550523A3120004550523A3220004550523A33200042617564726174D2
:20088000650046696C616D656E74207072696E746564205B6D5D005072696E746572206103
:2008A0006374697665205B735D004D61782E20696E6163746976652074696D65205B6D73E1
:2008C0002C303D6F66665D0053746F70207374657070657220616674657220696E616374BD
:2008E0006976697479205B6D732C303D6F66665D005820686F6D6520706F73205B6D6D5DF2
:20090000005920686F6D6520706F73205B6D6D5D005A20686F6D6520706F73205B6D6D5D4A
:200920000058206D6178206C656E677468205B6D6D5D0059206D6178206C656E6774682024
:200940005B6D6D5D005A206D6178206C656E677468205B6D6D5D0058206261636B6C6173A8
:2009600068205B6D6D5D0059206261636B6C617368205B6D6D5D005A206261636B6C6173AE
:2009800068205B6D6D5D004D61782E206A65726B205B6D6D2F735D004D61782E205A2D6A64
:2009A00065726B205B6D6D2F735D00582D6178697320737465707320706572206D6D00595E
:2009C0002D6178697320737465707320706572206D6D005A2D6178697320737465707320DA
:2009E000706572206D6D00582D61786973206D61782E206665656472617465205B6D6D2F04
:200A0000735D00592D61786973206D61782E206665656472617465205B6D6D2F735D005A29
:200A20002D61786973206D61782E206665656472617465205B6D6D2F735D00582D617869C5
:200A40007320686F6D696E67206665656472617465205B6D6D2F735D00592D617869732072
:200A6000686F6D696E67206665656472617465205B6D6D2F735D005A2D6178697320686F0D
:200A80006D696E67206665656472617465205B6D6D2F735D00582D61786973206163636511
:200AA0006C65726174696F6E205B6D6D2F735E325D00592D6178697320616363656C6572CA
:200AC0006174696F6E205B6D6D2F735E325D005A2D6178697320616363656C6572617469AE
:200AE0006F6E205B6D6D2F735E325D00582D617869732074726176656C20616363656C65D0
:200B0000726174696F6E205B6D6D2F735E325D00592D617869732074726176656C20616397
:200B200063656C65726174696F6E205B6D6D2F735E325D005A2D617869732074726176652D
:200B40006C20616363656C65726174696F6E205B6D6D2F735E325D004F5053206F70657273
:200B60006174696F6E206D6F6465205B303D4F66662C313D436C61737369632C323D4661F4
:200B800073745D004F5053206D6F76652061667465722078252072657472616374205B25A4
:200BA0005D004F5053206D696E2E2064697374616E636520666F722066696C2E207265748E
:200BC00072616374696F6E205B6D6D5D004F50532072657472616374696F6E206C656E6760
:200BE0007468205B6D6D5D004F50532072657472616374696F6E206261636B6C61736820A1
:200C00005B6D6D5D004265642048656174204D616E61676572205B302D335D004265642027
:200C2000504944206472697665206D61780042656420504944206472697665206D696E0091
:200C40004265642050494420502D6761696E004265642050494420492D6761696E0042656C
:200C6000642050494420442D6761696E0042656420504944206D61782076616C7565205BBD
:200C8000302D3235355D00737465707320706572206D6D006D61782E2066656564726174FF
:200CA00065205B6D6D2F735D007374617274206665656472617465205B6D6D2F735D006138
:200CC0006363656C65726174696F6E205B6D6D2F735E325D0068656174206D616E6167657C
:200CE00072205B302D335D00504944206472697665206D6178005049442064726976652066
:200D00006D696E0050494420502D6761696E2F646561642D74696D650050494420492D6703
:200D200061696E0050494420442D6761696E00504944206D61782076616C7565205B302D16
:200D40003235355D00582D6F6666736574205B73746570735D00592D6F6666736574205BFF
:200D600073746570735D0074656D702E2073746162696C697A652074696D65205B735D0002
:200D800074656D702E20666F722072657472616374696F6E207768656E2068656174696E42
:200DA00067205B435D0064697374616E636520746F2072657472616374207768656E2068F4
:200DC000656174696E67205B6D6D5D00657874727564657220636F6F6C6572207370656505
:200DE00064205B302D3235355D00616476616E6365204B205B303D6F66665D006164766165
:200E00006E6365204C205B303D6F66665D00534420436172642072656D6F766564005344D6
:200E2000204361726420696E73657274656400534420696E6974206661696C006572726FBB
:200E4000722077726974696E6720746F2066696C6500426567696E2066696C65206C69732C
:200E60007400456E642066696C65206C6973740046696C65206F70656E65643A002053691A
:200E80007A653A0046696C652073656C65637465640066696C652E6F70656E206661696C14
:200EA0006564005344207072696E74696E67206279746520004E6F74205344207072696E92
:200EC00074696E67006F70656E206661696C65642C2046696C653A200057726974696E671F
:200EE00020746F2066696C653A2000446F6E6520736176696E672066696C652E0046696C9E
:200F0000652064656C657465640044656C6574696F6E206661696C65640044697265637461
:200F20006F72792063726561746564004372656174696F6E206661696C6564005344206589
:200F400072726F72436F64653A000701061C151C143A21002243141F1F730FE30F3710A734
:200F600010F710DF1100006312EB12F7134714C31400000000A00F5C00600969001009794D
:200F800000C0088C007008A2002008BD00D007DE008007050130073401E0066D019006B2B4
:200FA0000140060702F0056D02A005E80250057B0300052B04B004F8046004EB06C00335EA
:200FC0000920037F0B8002650DE001B00E40011D0FF000480FC8006C0FA000ED0F60FFFED8
:200FE0000F48FE0400801AD8009808AC012007800250065403C80528045805FC040005D058
:00000001FF
